{
  "_format": "hh-sol-artifact-1",
  "contractName": "Cookie",
  "sourceName": "contracts/Cookie.sol",
  "abi": [
    {
      "inputs": [],
      "stateMutability": "nonpayable",
      "type": "constructor"
    },
    {
      "inputs": [],
      "name": "AccessControlBadConfirmation",
      "type": "error"
    },
    {
      "inputs": [
        {
          "internalType": "address",
          "name": "account",
          "type": "address"
        },
        {
          "internalType": "bytes32",
          "name": "neededRole",
          "type": "bytes32"
        }
      ],
      "name": "AccessControlUnauthorizedAccount",
      "type": "error"
    },
    {
      "inputs": [],
      "name": "ECDSAInvalidSignature",
      "type": "error"
    },
    {
      "inputs": [
        {
          "internalType": "uint256",
          "name": "length",
          "type": "uint256"
        }
      ],
      "name": "ECDSAInvalidSignatureLength",
      "type": "error"
    },
    {
      "inputs": [
        {
          "internalType": "bytes32",
          "name": "s",
          "type": "bytes32"
        }
      ],
      "name": "ECDSAInvalidSignatureS",
      "type": "error"
    },
    {
      "inputs": [
        {
          "internalType": "address",
          "name": "spender",
          "type": "address"
        },
        {
          "internalType": "uint256",
          "name": "allowance",
          "type": "uint256"
        },
        {
          "internalType": "uint256",
          "name": "needed",
          "type": "uint256"
        }
      ],
      "name": "ERC20InsufficientAllowance",
      "type": "error"
    },
    {
      "inputs": [
        {
          "internalType": "address",
          "name": "sender",
          "type": "address"
        },
        {
          "internalType": "uint256",
          "name": "balance",
          "type": "uint256"
        },
        {
          "internalType": "uint256",
          "name": "needed",
          "type": "uint256"
        }
      ],
      "name": "ERC20InsufficientBalance",
      "type": "error"
    },
    {
      "inputs": [
        {
          "internalType": "address",
          "name": "approver",
          "type": "address"
        }
      ],
      "name": "ERC20InvalidApprover",
      "type": "error"
    },
    {
      "inputs": [
        {
          "internalType": "address",
          "name": "receiver",
          "type": "address"
        }
      ],
      "name": "ERC20InvalidReceiver",
      "type": "error"
    },
    {
      "inputs": [
        {
          "internalType": "address",
          "name": "sender",
          "type": "address"
        }
      ],
      "name": "ERC20InvalidSender",
      "type": "error"
    },
    {
      "inputs": [
        {
          "internalType": "address",
          "name": "spender",
          "type": "address"
        }
      ],
      "name": "ERC20InvalidSpender",
      "type": "error"
    },
    {
      "inputs": [
        {
          "internalType": "uint256",
          "name": "amount",
          "type": "uint256"
        }
      ],
      "name": "InvalidDepositAmount",
      "type": "error"
    },
    {
      "inputs": [
        {
          "internalType": "address",
          "name": "caller",
          "type": "address"
        }
      ],
      "name": "NotWithdrawRole",
      "type": "error"
    },
    {
      "inputs": [],
      "name": "ReentrancyGuardReentrantCall",
      "type": "error"
    },
    {
      "anonymous": false,
      "inputs": [
        {
          "indexed": true,
          "internalType": "address",
          "name": "owner",
          "type": "address"
        },
        {
          "indexed": true,
          "internalType": "address",
          "name": "spender",
          "type": "address"
        },
        {
          "indexed": false,
          "internalType": "uint256",
          "name": "value",
          "type": "uint256"
        }
      ],
      "name": "Approval",
      "type": "event"
    },
    {
      "anonymous": false,
      "inputs": [
        {
          "indexed": true,
          "internalType": "address",
          "name": "from",
          "type": "address"
        },
        {
          "indexed": false,
          "internalType": "uint256",
          "name": "amount",
          "type": "uint256"
        }
      ],
      "name": "Deposit",
      "type": "event"
    },
    {
      "anonymous": false,
      "inputs": [
        {
          "indexed": true,
          "internalType": "address",
          "name": "to",
          "type": "address"
        },
        {
          "indexed": false,
          "internalType": "uint256",
          "name": "amount",
          "type": "uint256"
        }
      ],
      "name": "Mint",
      "type": "event"
    },
    {
      "anonymous": false,
      "inputs": [
        {
          "indexed": true,
          "internalType": "bytes32",
          "name": "role",
          "type": "bytes32"
        },
        {
          "indexed": true,
          "internalType": "bytes32",
          "name": "previousAdminRole",
          "type": "bytes32"
        },
        {
          "indexed": true,
          "internalType": "bytes32",
          "name": "newAdminRole",
          "type": "bytes32"
        }
      ],
      "name": "RoleAdminChanged",
      "type": "event"
    },
    {
      "anonymous": false,
      "inputs": [
        {
          "indexed": true,
          "internalType": "bytes32",
          "name": "role",
          "type": "bytes32"
        },
        {
          "indexed": true,
          "internalType": "address",
          "name": "account",
          "type": "address"
        },
        {
          "indexed": true,
          "internalType": "address",
          "name": "sender",
          "type": "address"
        }
      ],
      "name": "RoleGranted",
      "type": "event"
    },
    {
      "anonymous": false,
      "inputs": [
        {
          "indexed": true,
          "internalType": "bytes32",
          "name": "role",
          "type": "bytes32"
        },
        {
          "indexed": true,
          "internalType": "address",
          "name": "account",
          "type": "address"
        },
        {
          "indexed": true,
          "internalType": "address",
          "name": "sender",
          "type": "address"
        }
      ],
      "name": "RoleRevoked",
      "type": "event"
    },
    {
      "anonymous": false,
      "inputs": [
        {
          "indexed": true,
          "internalType": "address",
          "name": "from",
          "type": "address"
        },
        {
          "indexed": true,
          "internalType": "address",
          "name": "to",
          "type": "address"
        },
        {
          "indexed": false,
          "internalType": "uint256",
          "name": "value",
          "type": "uint256"
        }
      ],
      "name": "Transfer",
      "type": "event"
    },
    {
      "anonymous": false,
      "inputs": [
        {
          "indexed": true,
          "internalType": "address",
          "name": "from",
          "type": "address"
        },
        {
          "indexed": false,
          "internalType": "uint256",
          "name": "amount",
          "type": "uint256"
        }
      ],
      "name": "Withdrawal",
      "type": "event"
    },
    {
      "inputs": [],
      "name": "DEFAULT_ADMIN_ROLE",
      "outputs": [
        {
          "internalType": "bytes32",
          "name": "",
          "type": "bytes32"
        }
      ],
      "stateMutability": "view",
      "type": "function"
    },
    {
      "inputs": [],
      "name": "MINTER_ROLE",
      "outputs": [
        {
          "internalType": "bytes32",
          "name": "",
          "type": "bytes32"
        }
      ],
      "stateMutability": "view",
      "type": "function"
    },
    {
      "inputs": [],
      "name": "WITHDRAW_ROLE",
      "outputs": [
        {
          "internalType": "bytes32",
          "name": "",
          "type": "bytes32"
        }
      ],
      "stateMutability": "view",
      "type": "function"
    },
    {
      "inputs": [
        {
          "internalType": "address",
          "name": "owner",
          "type": "address"
        },
        {
          "internalType": "address",
          "name": "spender",
          "type": "address"
        }
      ],
      "name": "allowance",
      "outputs": [
        {
          "internalType": "uint256",
          "name": "",
          "type": "uint256"
        }
      ],
      "stateMutability": "view",
      "type": "function"
    },
    {
      "inputs": [
        {
          "internalType": "address",
          "name": "spender",
          "type": "address"
        },
        {
          "internalType": "uint256",
          "name": "value",
          "type": "uint256"
        }
      ],
      "name": "approve",
      "outputs": [
        {
          "internalType": "bool",
          "name": "",
          "type": "bool"
        }
      ],
      "stateMutability": "nonpayable",
      "type": "function"
    },
    {
      "inputs": [
        {
          "internalType": "address",
          "name": "account",
          "type": "address"
        }
      ],
      "name": "balanceOf",
      "outputs": [
        {
          "internalType": "uint256",
          "name": "",
          "type": "uint256"
        }
      ],
      "stateMutability": "view",
      "type": "function"
    },
    {
      "inputs": [
        {
          "internalType": "uint256",
          "name": "value",
          "type": "uint256"
        }
      ],
      "name": "burn",
      "outputs": [],
      "stateMutability": "nonpayable",
      "type": "function"
    },
    {
      "inputs": [
        {
          "internalType": "address",
          "name": "account",
          "type": "address"
        },
        {
          "internalType": "uint256",
          "name": "value",
          "type": "uint256"
        }
      ],
      "name": "burnFrom",
      "outputs": [],
      "stateMutability": "nonpayable",
      "type": "function"
    },
    {
      "inputs": [],
      "name": "decimals",
      "outputs": [
        {
          "internalType": "uint8",
          "name": "",
          "type": "uint8"
        }
      ],
      "stateMutability": "view",
      "type": "function"
    },
    {
      "inputs": [
        {
          "internalType": "uint256",
          "name": "amount",
          "type": "uint256"
        }
      ],
      "name": "deposit",
      "outputs": [],
      "stateMutability": "nonpayable",
      "type": "function"
    },
    {
      "inputs": [
        {
          "internalType": "bytes32",
          "name": "role",
          "type": "bytes32"
        }
      ],
      "name": "getRoleAdmin",
      "outputs": [
        {
          "internalType": "bytes32",
          "name": "",
          "type": "bytes32"
        }
      ],
      "stateMutability": "view",
      "type": "function"
    },
    {
      "inputs": [
        {
          "internalType": "address",
          "name": "from",
          "type": "address"
        },
        {
          "internalType": "uint256",
          "name": "amount",
          "type": "uint256"
        },
        {
          "internalType": "uint256",
          "name": "timestamp",
          "type": "uint256"
        },
        {
          "internalType": "bytes32",
          "name": "hashSalt",
          "type": "bytes32"
        }
      ],
      "name": "getWithdrawHash",
      "outputs": [
        {
          "internalType": "bytes32",
          "name": "",
          "type": "bytes32"
        }
      ],
      "stateMutability": "pure",
      "type": "function"
    },
    {
      "inputs": [
        {
          "internalType": "bytes32",
          "name": "role",
          "type": "bytes32"
        },
        {
          "internalType": "address",
          "name": "account",
          "type": "address"
        }
      ],
      "name": "grantRole",
      "outputs": [],
      "stateMutability": "nonpayable",
      "type": "function"
    },
    {
      "inputs": [
        {
          "internalType": "bytes32",
          "name": "role",
          "type": "bytes32"
        },
        {
          "internalType": "address",
          "name": "account",
          "type": "address"
        }
      ],
      "name": "hasRole",
      "outputs": [
        {
          "internalType": "bool",
          "name": "",
          "type": "bool"
        }
      ],
      "stateMutability": "view",
      "type": "function"
    },
    {
      "inputs": [],
      "name": "name",
      "outputs": [
        {
          "internalType": "string",
          "name": "",
          "type": "string"
        }
      ],
      "stateMutability": "view",
      "type": "function"
    },
    {
      "inputs": [
        {
          "internalType": "bytes32",
          "name": "role",
          "type": "bytes32"
        },
        {
          "internalType": "address",
          "name": "callerConfirmation",
          "type": "address"
        }
      ],
      "name": "renounceRole",
      "outputs": [],
      "stateMutability": "nonpayable",
      "type": "function"
    },
    {
      "inputs": [
        {
          "internalType": "bytes32",
          "name": "role",
          "type": "bytes32"
        },
        {
          "internalType": "address",
          "name": "account",
          "type": "address"
        }
      ],
      "name": "revokeRole",
      "outputs": [],
      "stateMutability": "nonpayable",
      "type": "function"
    },
    {
      "inputs": [
        {
          "internalType": "bytes4",
          "name": "interfaceId",
          "type": "bytes4"
        }
      ],
      "name": "supportsInterface",
      "outputs": [
        {
          "internalType": "bool",
          "name": "",
          "type": "bool"
        }
      ],
      "stateMutability": "view",
      "type": "function"
    },
    {
      "inputs": [],
      "name": "symbol",
      "outputs": [
        {
          "internalType": "string",
          "name": "",
          "type": "string"
        }
      ],
      "stateMutability": "view",
      "type": "function"
    },
    {
      "inputs": [],
      "name": "totalSupply",
      "outputs": [
        {
          "internalType": "uint256",
          "name": "",
          "type": "uint256"
        }
      ],
      "stateMutability": "view",
      "type": "function"
    },
    {
      "inputs": [
        {
          "internalType": "address",
          "name": "to",
          "type": "address"
        },
        {
          "internalType": "uint256",
          "name": "value",
          "type": "uint256"
        }
      ],
      "name": "transfer",
      "outputs": [
        {
          "internalType": "bool",
          "name": "",
          "type": "bool"
        }
      ],
      "stateMutability": "nonpayable",
      "type": "function"
    },
    {
      "inputs": [
        {
          "internalType": "address",
          "name": "from",
          "type": "address"
        },
        {
          "internalType": "address",
          "name": "to",
          "type": "address"
        },
        {
          "internalType": "uint256",
          "name": "value",
          "type": "uint256"
        }
      ],
      "name": "transferFrom",
      "outputs": [
        {
          "internalType": "bool",
          "name": "",
          "type": "bool"
        }
      ],
      "stateMutability": "nonpayable",
      "type": "function"
    },
    {
      "inputs": [
        {
          "internalType": "uint256",
          "name": "amount",
          "type": "uint256"
        },
        {
          "internalType": "bytes32",
          "name": "hashSalt",
          "type": "bytes32"
        },
        {
          "internalType": "bytes",
          "name": "signature",
          "type": "bytes"
        }
      ],
      "name": "withdraw",
      "outputs": [],
      "stateMutability": "nonpayable",
      "type": "function"
    }
  ],
  "bytecode": "0x608060405234620003a85762000014620003ad565b60209065436f6f6b696560d01b828201526200002f620003ad565b65434f4f4b494560d01b838201528151909290916001600160401b03808411620002a85760038054946001938487811c971680156200039d575b8688101462000387578190601f9788811162000331575b508690888311600114620002ca57600092620002be575b505060001982841b1c191690841b1781555b8551918211620002a85760049485548481811c911680156200029d575b8682101462000288578181116200023d575b5084908311600114620001d4578293949596600093620001c8575b505082841b92600019911b1c19161783555b6006553315620001b057600254655af3107a4000928382018092116200019b57506000917fddf252ad1be2c89b69c2b068fc378daa952ba7f163c4a11628f55a4df523b3ef91600255338352828152604083208481540190556040519384523393a36200017233620003d1565b506200017e3362000452565b506200018a33620004f5565b506040516110599081620005948239f35b601190634e487b7160e01b6000525260246000fd5b60405163ec442f0560e01b8152600081840152602490fd5b015191503880620000f3565b90601f1983169186600052856000209260005b818110620002275750978486979899106200020c575b50505050811b01835562000105565b01519060f884600019921b161c1916905538808080620001fd565b89830151855593860193918701918701620001e7565b86600052856000208280860160051c8201928887106200027e575b0160051c019085905b82811062000271575050620000d8565b6000815501859062000261565b9250819262000258565b602287634e487b7160e01b6000525260246000fd5b90607f1690620000c6565b634e487b7160e01b600052604160045260246000fd5b01519050388062000097565b90869350601f1983169185600052886000209260005b8a8282106200031a575050841162000301575b505050811b018155620000a9565b015160001983861b60f8161c19169055388080620002f3565b8385015186558a97909501949384019301620002e0565b90915083600052866000208880850160051c8201928986106200037d575b918891869594930160051c01915b8281106200036d57505062000080565b600081558594508891016200035d565b925081926200034f565b634e487b7160e01b600052602260045260246000fd5b96607f169662000069565b600080fd5b60408051919082016001600160401b03811183821017620002a85760405260068252565b6001600160a01b031660008181527f05b8ccbb9d4d8fb16ea74ce3c29a41f1b461fbdaff4714a0d9a8eb05499746bc602052604081205490919060ff166200044e5781805260056020526040822081835260205260408220600160ff198254161790553391600080516020620015ed8339815191528180a4600190565b5090565b6001600160a01b031660008181527f15a28d26fa1bf736cf7edc9922607171ccb09c3c73b808e7772a3013e068a52260205260408120549091907f9f2df0fed2c77648de5860a4cc508cd0818c85b8b8a1ab4ceeef8d981c8956a69060ff16620004f05780835260056020526040832082845260205260408320600160ff19825416179055600080516020620015ed833981519152339380a4600190565b505090565b6001600160a01b031660008181527f90d36bf780b7622e3a6a230949e2e290b93024316c7e69642943199b8094f9c760205260408120549091907f5d8e12c39142ff96d79d04d15d1ba1269e4fe57bb9d26f43523628b34ba108ec9060ff16620004f05780835260056020526040832082845260205260408320600160ff19825416179055600080516020620015ed833981519152339380a460019056fe608060408181526004918236101561001657600080fd5b600092833560e01c91826301ffc9a7146109cb5750816306fdde03146108d4578163095ea7b31461082a57816318160ddd1461080b57816323b872dd146107ce578163248a9ca3146107a35781632f2ff15d14610779578163313ce5671461075d57816336568abe1461071757816342966c68146106f957816370a08231146106c257816375135d2d146104a557816379cc67901461046f57816391d148541461042857816395d89b4114610323578163a217fddf14610308578163a6e69116146102cf578163a9059cbb1461029e578163b6b55f2514610226578163d5391393146101eb578163d547741f146101a757508063dd62ed3e1461015f5763e02023a11461012257600080fd5b3461015b578160031936011261015b57602090517f5d8e12c39142ff96d79d04d15d1ba1269e4fe57bb9d26f43523628b34ba108ec8152f35b5080fd5b503461015b578060031936011261015b578060209261017c610a67565b610184610a82565b6001600160a01b0391821683526001865283832091168252845220549051908152f35b919050346101e757806003193601126101e7576101e391356101de60016101cc610a82565b93838752600560205286200154610cd5565b610d99565b5080f35b8280fd5b50503461015b578160031936011261015b57602090517f9f2df0fed2c77648de5860a4cc508cd0818c85b8b8a1ab4ceeef8d981c8956a68152f35b919050346101e75760203660031901126101e757813591610245610eaf565b82156102895750610257823033610bf7565b519081527fe1fffcc4923d04b559f4d29a8bfc6cda04eb5b0d3c460751c2402c5c5cc9109c60203392a2600160065580f35b826024925191632097692160e11b8352820152fd5b50503461015b578060031936011261015b576020906102c86102be610a67565b6024359033610bf7565b5160018152f35b50503461015b57608036600319011261015b576020906103016102f0610a67565b606435906044359060243590610ad0565b9051908152f35b50503461015b578160031936011261015b5751908152602090f35b83833461015b578160031936011261015b5780519180938054916001908360011c926001851694851561041e575b602095868610811461040b578589529081156103e7575060011461038f575b61038b8787610381828c0383610a98565b5191829182610a1e565b0390f35b81529295507f8a35acfbc15ff81a39ae7d344fd709f28e8600b4aa8c65c6b64bfe7fe36bd19b5b8284106103d4575050508261038b9461038192820101948680610370565b80548685018801529286019281016103b6565b60ff19168887015250505050151560051b83010192506103818261038b8680610370565b634e487b7160e01b845260228352602484fd5b93607f1693610351565b9050346101e757816003193601126101e7578160209360ff92610449610a82565b90358252600586528282206001600160a01b039091168252855220549151911615158152f35b50503461015b573660031901126104a25761049f61048b610a67565b6024359061049a823383610b24565b610e10565b80f35b80fd5b8391503461015b57606036600319011261015b578035906024936044359167ffffffffffffffff928381116106be57366023820112156106be57808201359384116106be57368785830101116106be5761056961057291610504610eaf565b6105118935428933610ad0565b7f19457468657265756d205369676e6564204d6573736167653a0a3332000000008952601c52603c88208860208881998d8a519661055885601f19601f8601160189610a98565b828852018387013784010152610ed2565b90929192610f0e565b7f5d8e12c39142ff96d79d04d15d1ba1269e4fe57bb9d26f43523628b34ba108ec8652600584528286206001600160a01b03909116865283528185205460ff16156106a9573085528483528185205484116106075750829394506105f87f7fcf532c15f0a6db0bd6d0e038bea71d30d808c7d98cb3bf7268a95bf5081b65933330610bf7565b519283523392a2600160065580f35b3315610695576002549084820180921161068357507f7fcf532c15f0a6db0bd6d0e038bea71d30d808c7d98cb3bf7268a95bf5081b65939495506002553385528482528085208481540190558051848152857fddf252ad1be2c89b69c2b068fc378daa952ba7f163c4a11628f55a4df523b3ef843393a36105f8565b634e487b7160e01b8652601190528585fd5b848692519163ec442f0560e01b8352820152fd5b85915190637b0cd94760e01b82523390820152fd5b8580fd5b50503461015b57602036600319011261015b5760209181906001600160a01b036106ea610a67565b16815280845220549051908152f35b83903461015b57602036600319011261015b5761049f903533610e10565b83833461015b578060031936011261015b57610731610a82565b90336001600160a01b0383160361074e57506101e3919235610d99565b5163334bd91960e11b81528390fd5b50503461015b578160031936011261015b576020905160088152f35b919050346101e757806003193601126101e7576101e3913561079e60016101cc610a82565b610d19565b9050346101e75760203660031901126101e75781602093600192358152600585522001549051908152f35b50503461015b57606036600319011261015b576020906102c86107ef610a67565b6107f7610a82565b60443591610806833383610b24565b610bf7565b50503461015b578160031936011261015b576020906002549051908152f35b9050346101e757816003193601126101e757610844610a67565b6024359033156108bd576001600160a01b03169182156108a657508083602095338152600187528181208582528752205582519081527f8c5be1e5ebec7d5bd14f71427d1e84f3dd0314c0f7b2291e5b200ac8c7c3b925843392a35160018152f35b8351634a1406b160e11b8152908101859052602490fd5b835163e602df0560e01b8152808401869052602490fd5b919050346101e757826003193601126101e75780519183600354906001908260011c926001811680156109c1575b60209586861082146109ae575084885290811561098c5750600114610933575b61038b8686610381828b0383610a98565b929550600383527fc2575a0e9e593c00f959f8c92f12db2869c3395a3b0502d05e2516446f71f85b5b828410610979575050508261038b94610381928201019438610922565b805486850188015292860192810161095c565b60ff191687860152505050151560051b83010192506103818261038b38610922565b634e487b7160e01b845260229052602483fd5b93607f1693610902565b8491346101e75760203660031901126101e7573563ffffffff60e01b81168091036101e75760209250637965db0b60e01b8114908115610a0d575b5015158152f35b6301ffc9a760e01b14905083610a06565b6020808252825181830181905290939260005b828110610a5357505060409293506000838284010152601f8019910116010190565b818101860151848201604001528501610a31565b600435906001600160a01b0382168203610a7d57565b600080fd5b602435906001600160a01b0382168203610a7d57565b90601f8019910116810190811067ffffffffffffffff821117610aba57604052565b634e487b7160e01b600052604160045260246000fd5b9290916040519260208401946bffffffffffffffffffffffff199060601b1685526034840152605483015260748201526074815260a0810181811067ffffffffffffffff821117610aba5760405251902090565b9160018060a01b038093169160009383855260016020526040938486209183169182875260205284862054926000198403610b63575b50505050505050565b848410610bc757508015610baf578115610b9757855260016020528385209085526020520391205538808080808080610b5a565b8451634a1406b160e11b815260048101879052602490fd5b845163e602df0560e01b815260048101879052602490fd5b8551637dc7a0d960e11b81526001600160a01b039190911660048201526024810184905260448101859052606490fd5b916001600160a01b03808416928315610cbc5716928315610ca35760009083825281602052604082205490838210610c71575091604082827fddf252ad1be2c89b69c2b068fc378daa952ba7f163c4a11628f55a4df523b3ef958760209652828652038282205586815220818154019055604051908152a3565b60405163391434e360e21b81526001600160a01b03919091166004820152602481019190915260448101839052606490fd5b60405163ec442f0560e01b815260006004820152602490fd5b604051634b637e8f60e11b815260006004820152602490fd5b80600052600560205260406000203360005260205260ff6040600020541615610cfb5750565b6044906040519063e2517d3f60e01b82523360048301526024820152fd5b906000918083526005602052604083209160018060a01b03169182845260205260ff60408420541615600014610d945780835260056020526040832082845260205260408320600160ff198254161790557f2f8788117e7eff1d82e926ec794901d17c78024a50270940304540a733656f0d339380a4600190565b505090565b906000918083526005602052604083209160018060a01b03169182845260205260ff604084205416600014610d94578083526005602052604083208284526020526040832060ff1981541690557ff6391f5c32d9c69d2a47ea670b442974b53935d1edc7fd64eb21e047a839171b339380a4600190565b906001600160a01b038216908115610cbc5760009282845283602052604084205490828210610e7d5750817fddf252ad1be2c89b69c2b068fc378daa952ba7f163c4a11628f55a4df523b3ef926020928587528684520360408620558060025403600255604051908152a3565b60405163391434e360e21b81526001600160a01b03919091166004820152602481019190915260448101829052606490fd5b600260065414610ec0576002600655565b604051633ee5aeb560e01b8152600490fd5b8151919060418303610f0357610efc92506020820151906060604084015193015160001a90610f93565b9192909190565b505060009160029190565b6004811015610f7d5780610f20575050565b60018103610f3a5760405163f645eedf60e01b8152600490fd5b60028103610f5b5760405163fce698f760e01b815260048101839052602490fd5b600314610f655750565b602490604051906335e2f38360e21b82526004820152fd5b634e487b7160e01b600052602160045260246000fd5b91907f7fffffffffffffffffffffffffffffff5d576e7357a4501ddfe92f46681b20a0841161101757926020929160ff608095604051948552168484015260408301526060820152600092839182805260015afa1561100b5780516001600160a01b0381161561100257918190565b50809160019190565b604051903d90823e3d90fd5b5050506000916003919056fea2646970667358221220371a5f3e695c43b9baa5446214e3f678a3d388cb9a15a3b37afd37439758aa3f64736f6c634300081800332f8788117e7eff1d82e926ec794901d17c78024a50270940304540a733656f0d",
  "linkReferences": {},
  "deployedLinkReferences": {}
}