{
    "_format": "hh-sol-artifact-1",
    "contractName": "Islands",
    "sourceName": "contracts/wonderbits/impl/nft/Islands.sol",
    "abi": [
        {
            "inputs": [],
            "stateMutability": "nonpayable",
            "type": "constructor"
        },
        {
            "inputs": [],
            "name": "AccessControlBadConfirmation",
            "type": "error"
        },
        {
            "inputs": [
                {
                    "internalType": "address",
                    "name": "account",
                    "type": "address"
                },
                {
                    "internalType": "bytes32",
                    "name": "neededRole",
                    "type": "bytes32"
                }
            ],
            "name": "AccessControlUnauthorizedAccount",
            "type": "error"
        },
        {
            "inputs": [],
            "name": "ApprovalCallerNotOwnerNorApproved",
            "type": "error"
        },
        {
            "inputs": [],
            "name": "ApprovalQueryForNonexistentToken",
            "type": "error"
        },
        {
            "inputs": [],
            "name": "BalanceQueryForZeroAddress",
            "type": "error"
        },
        {
            "inputs": [],
            "name": "ECDSAInvalidSignature",
            "type": "error"
        },
        {
            "inputs": [
                {
                    "internalType": "uint256",
                    "name": "length",
                    "type": "uint256"
                }
            ],
            "name": "ECDSAInvalidSignatureLength",
            "type": "error"
        },
        {
            "inputs": [
                {
                    "internalType": "bytes32",
                    "name": "s",
                    "type": "bytes32"
                }
            ],
            "name": "ECDSAInvalidSignatureS",
            "type": "error"
        },
        {
            "inputs": [
                {
                    "internalType": "address",
                    "name": "recovered",
                    "type": "address"
                }
            ],
            "name": "InvalidAdminSignature",
            "type": "error"
        },
        {
            "inputs": [],
            "name": "InvalidQueryRange",
            "type": "error"
        },
        {
            "inputs": [],
            "name": "MintERC2309QuantityExceedsLimit",
            "type": "error"
        },
        {
            "inputs": [],
            "name": "MintToZeroAddress",
            "type": "error"
        },
        {
            "inputs": [],
            "name": "MintZeroQuantity",
            "type": "error"
        },
        {
            "inputs": [],
            "name": "NotCompatibleWithSpotMints",
            "type": "error"
        },
        {
            "inputs": [],
            "name": "OwnerQueryForNonexistentToken",
            "type": "error"
        },
        {
            "inputs": [],
            "name": "OwnershipNotInitializedForExtraData",
            "type": "error"
        },
        {
            "inputs": [],
            "name": "SequentialMintExceedsLimit",
            "type": "error"
        },
        {
            "inputs": [],
            "name": "SequentialUpToTooSmall",
            "type": "error"
        },
        {
            "inputs": [],
            "name": "SpotMintTokenIdTooSmall",
            "type": "error"
        },
        {
            "inputs": [],
            "name": "TokenAlreadyExists",
            "type": "error"
        },
        {
            "inputs": [],
            "name": "TransferCallerNotOwnerNorApproved",
            "type": "error"
        },
        {
            "inputs": [],
            "name": "TransferFromIncorrectOwner",
            "type": "error"
        },
        {
            "inputs": [],
            "name": "TransferToNonERC721ReceiverImplementer",
            "type": "error"
        },
        {
            "inputs": [],
            "name": "TransferToZeroAddress",
            "type": "error"
        },
        {
            "inputs": [],
            "name": "URIQueryForNonexistentToken",
            "type": "error"
        },
        {
            "anonymous": false,
            "inputs": [
                {
                    "indexed": true,
                    "internalType": "address",
                    "name": "owner",
                    "type": "address"
                },
                {
                    "indexed": true,
                    "internalType": "address",
                    "name": "approved",
                    "type": "address"
                },
                {
                    "indexed": true,
                    "internalType": "uint256",
                    "name": "tokenId",
                    "type": "uint256"
                }
            ],
            "name": "Approval",
            "type": "event"
        },
        {
            "anonymous": false,
            "inputs": [
                {
                    "indexed": true,
                    "internalType": "address",
                    "name": "owner",
                    "type": "address"
                },
                {
                    "indexed": true,
                    "internalType": "address",
                    "name": "operator",
                    "type": "address"
                },
                {
                    "indexed": false,
                    "internalType": "bool",
                    "name": "approved",
                    "type": "bool"
                }
            ],
            "name": "ApprovalForAll",
            "type": "event"
        },
        {
            "anonymous": false,
            "inputs": [
                {
                    "indexed": true,
                    "internalType": "uint256",
                    "name": "fromTokenId",
                    "type": "uint256"
                },
                {
                    "indexed": false,
                    "internalType": "uint256",
                    "name": "toTokenId",
                    "type": "uint256"
                },
                {
                    "indexed": true,
                    "internalType": "address",
                    "name": "from",
                    "type": "address"
                },
                {
                    "indexed": true,
                    "internalType": "address",
                    "name": "to",
                    "type": "address"
                }
            ],
            "name": "ConsecutiveTransfer",
            "type": "event"
        },
        {
            "anonymous": false,
            "inputs": [
                {
                    "indexed": true,
                    "internalType": "bytes32",
                    "name": "role",
                    "type": "bytes32"
                },
                {
                    "indexed": true,
                    "internalType": "bytes32",
                    "name": "previousAdminRole",
                    "type": "bytes32"
                },
                {
                    "indexed": true,
                    "internalType": "bytes32",
                    "name": "newAdminRole",
                    "type": "bytes32"
                }
            ],
            "name": "RoleAdminChanged",
            "type": "event"
        },
        {
            "anonymous": false,
            "inputs": [
                {
                    "indexed": true,
                    "internalType": "bytes32",
                    "name": "role",
                    "type": "bytes32"
                },
                {
                    "indexed": true,
                    "internalType": "address",
                    "name": "account",
                    "type": "address"
                },
                {
                    "indexed": true,
                    "internalType": "address",
                    "name": "sender",
                    "type": "address"
                }
            ],
            "name": "RoleGranted",
            "type": "event"
        },
        {
            "anonymous": false,
            "inputs": [
                {
                    "indexed": true,
                    "internalType": "bytes32",
                    "name": "role",
                    "type": "bytes32"
                },
                {
                    "indexed": true,
                    "internalType": "address",
                    "name": "account",
                    "type": "address"
                },
                {
                    "indexed": true,
                    "internalType": "address",
                    "name": "sender",
                    "type": "address"
                }
            ],
            "name": "RoleRevoked",
            "type": "event"
        },
        {
            "anonymous": false,
            "inputs": [
                {
                    "indexed": true,
                    "internalType": "address",
                    "name": "from",
                    "type": "address"
                },
                {
                    "indexed": true,
                    "internalType": "address",
                    "name": "to",
                    "type": "address"
                },
                {
                    "indexed": true,
                    "internalType": "uint256",
                    "name": "tokenId",
                    "type": "uint256"
                }
            ],
            "name": "Transfer",
            "type": "event"
        },
        {
            "inputs": [],
            "name": "DEFAULT_ADMIN_ROLE",
            "outputs": [
                {
                    "internalType": "bytes32",
                    "name": "",
                    "type": "bytes32"
                }
            ],
            "stateMutability": "view",
            "type": "function"
        },
        {
            "inputs": [
                {
                    "internalType": "address",
                    "name": "to",
                    "type": "address"
                },
                {
                    "internalType": "uint256",
                    "name": "tokenId",
                    "type": "uint256"
                }
            ],
            "name": "approve",
            "outputs": [],
            "stateMutability": "payable",
            "type": "function"
        },
        {
            "inputs": [
                {
                    "internalType": "address",
                    "name": "owner",
                    "type": "address"
                }
            ],
            "name": "balanceOf",
            "outputs": [
                {
                    "internalType": "uint256",
                    "name": "",
                    "type": "uint256"
                }
            ],
            "stateMutability": "view",
            "type": "function"
        },
        {
            "inputs": [
                {
                    "internalType": "uint256",
                    "name": "tokenId",
                    "type": "uint256"
                }
            ],
            "name": "burn",
            "outputs": [],
            "stateMutability": "nonpayable",
            "type": "function"
        },
        {
            "inputs": [
                {
                    "internalType": "uint256",
                    "name": "tokenId",
                    "type": "uint256"
                }
            ],
            "name": "explicitOwnershipOf",
            "outputs": [
                {
                    "components": [
                        {
                            "internalType": "address",
                            "name": "addr",
                            "type": "address"
                        },
                        {
                            "internalType": "uint64",
                            "name": "startTimestamp",
                            "type": "uint64"
                        },
                        {
                            "internalType": "bool",
                            "name": "burned",
                            "type": "bool"
                        },
                        {
                            "internalType": "uint24",
                            "name": "extraData",
                            "type": "uint24"
                        }
                    ],
                    "internalType": "struct IERC721A.TokenOwnership",
                    "name": "ownership",
                    "type": "tuple"
                }
            ],
            "stateMutability": "view",
            "type": "function"
        },
        {
            "inputs": [
                {
                    "internalType": "uint256[]",
                    "name": "tokenIds",
                    "type": "uint256[]"
                }
            ],
            "name": "explicitOwnershipsOf",
            "outputs": [
                {
                    "components": [
                        {
                            "internalType": "address",
                            "name": "addr",
                            "type": "address"
                        },
                        {
                            "internalType": "uint64",
                            "name": "startTimestamp",
                            "type": "uint64"
                        },
                        {
                            "internalType": "bool",
                            "name": "burned",
                            "type": "bool"
                        },
                        {
                            "internalType": "uint24",
                            "name": "extraData",
                            "type": "uint24"
                        }
                    ],
                    "internalType": "struct IERC721A.TokenOwnership[]",
                    "name": "",
                    "type": "tuple[]"
                }
            ],
            "stateMutability": "view",
            "type": "function"
        },
        {
            "inputs": [
                {
                    "internalType": "uint256",
                    "name": "tokenId",
                    "type": "uint256"
                }
            ],
            "name": "getApproved",
            "outputs": [
                {
                    "internalType": "address",
                    "name": "",
                    "type": "address"
                }
            ],
            "stateMutability": "view",
            "type": "function"
        },
        {
            "inputs": [
                {
                    "internalType": "address",
                    "name": "_owner",
                    "type": "address"
                }
            ],
            "name": "getAux",
            "outputs": [
                {
                    "internalType": "uint64",
                    "name": "",
                    "type": "uint64"
                }
            ],
            "stateMutability": "view",
            "type": "function"
        },
        {
            "inputs": [
                {
                    "internalType": "bytes32",
                    "name": "role",
                    "type": "bytes32"
                }
            ],
            "name": "getRoleAdmin",
            "outputs": [
                {
                    "internalType": "bytes32",
                    "name": "",
                    "type": "bytes32"
                }
            ],
            "stateMutability": "view",
            "type": "function"
        },
        {
            "inputs": [
                {
                    "internalType": "bytes32",
                    "name": "role",
                    "type": "bytes32"
                },
                {
                    "internalType": "address",
                    "name": "account",
                    "type": "address"
                }
            ],
            "name": "grantRole",
            "outputs": [],
            "stateMutability": "nonpayable",
            "type": "function"
        },
        {
            "inputs": [
                {
                    "internalType": "bytes32",
                    "name": "role",
                    "type": "bytes32"
                },
                {
                    "internalType": "address",
                    "name": "account",
                    "type": "address"
                }
            ],
            "name": "hasRole",
            "outputs": [
                {
                    "internalType": "bool",
                    "name": "",
                    "type": "bool"
                }
            ],
            "stateMutability": "view",
            "type": "function"
        },
        {
            "inputs": [
                {
                    "internalType": "address",
                    "name": "owner",
                    "type": "address"
                },
                {
                    "internalType": "address",
                    "name": "operator",
                    "type": "address"
                }
            ],
            "name": "isApprovedForAll",
            "outputs": [
                {
                    "internalType": "bool",
                    "name": "",
                    "type": "bool"
                }
            ],
            "stateMutability": "view",
            "type": "function"
        },
        {
            "inputs": [
                {
                    "internalType": "address",
                    "name": "to",
                    "type": "address"
                },
                {
                    "internalType": "bytes[2]",
                    "name": "sigData",
                    "type": "bytes[2]"
                }
            ],
            "name": "mint",
            "outputs": [],
            "stateMutability": "nonpayable",
            "type": "function"
        },
        {
            "inputs": [],
            "name": "name",
            "outputs": [
                {
                    "internalType": "string",
                    "name": "",
                    "type": "string"
                }
            ],
            "stateMutability": "view",
            "type": "function"
        },
        {
            "inputs": [],
            "name": "nextTokenId",
            "outputs": [
                {
                    "internalType": "uint256",
                    "name": "",
                    "type": "uint256"
                }
            ],
            "stateMutability": "view",
            "type": "function"
        },
        {
            "inputs": [
                {
                    "internalType": "address",
                    "name": "addr",
                    "type": "address"
                },
                {
                    "internalType": "bytes",
                    "name": "salt",
                    "type": "bytes"
                }
            ],
            "name": "opHash",
            "outputs": [
                {
                    "internalType": "bytes32",
                    "name": "",
                    "type": "bytes32"
                }
            ],
            "stateMutability": "pure",
            "type": "function"
        },
        {
            "inputs": [
                {
                    "internalType": "uint256",
                    "name": "tokenId",
                    "type": "uint256"
                }
            ],
            "name": "ownerOf",
            "outputs": [
                {
                    "internalType": "address",
                    "name": "",
                    "type": "address"
                }
            ],
            "stateMutability": "view",
            "type": "function"
        },
        {
            "inputs": [
                {
                    "internalType": "bytes32",
                    "name": "role",
                    "type": "bytes32"
                },
                {
                    "internalType": "address",
                    "name": "callerConfirmation",
                    "type": "address"
                }
            ],
            "name": "renounceRole",
            "outputs": [],
            "stateMutability": "nonpayable",
            "type": "function"
        },
        {
            "inputs": [
                {
                    "internalType": "bytes32",
                    "name": "role",
                    "type": "bytes32"
                },
                {
                    "internalType": "address",
                    "name": "account",
                    "type": "address"
                }
            ],
            "name": "revokeRole",
            "outputs": [],
            "stateMutability": "nonpayable",
            "type": "function"
        },
        {
            "inputs": [
                {
                    "internalType": "address",
                    "name": "from",
                    "type": "address"
                },
                {
                    "internalType": "address",
                    "name": "to",
                    "type": "address"
                },
                {
                    "internalType": "uint256",
                    "name": "tokenId",
                    "type": "uint256"
                }
            ],
            "name": "safeTransferFrom",
            "outputs": [],
            "stateMutability": "payable",
            "type": "function"
        },
        {
            "inputs": [
                {
                    "internalType": "address",
                    "name": "from",
                    "type": "address"
                },
                {
                    "internalType": "address",
                    "name": "to",
                    "type": "address"
                },
                {
                    "internalType": "uint256",
                    "name": "tokenId",
                    "type": "uint256"
                },
                {
                    "internalType": "bytes",
                    "name": "_data",
                    "type": "bytes"
                }
            ],
            "name": "safeTransferFrom",
            "outputs": [],
            "stateMutability": "payable",
            "type": "function"
        },
        {
            "inputs": [
                {
                    "internalType": "address",
                    "name": "operator",
                    "type": "address"
                },
                {
                    "internalType": "bool",
                    "name": "approved",
                    "type": "bool"
                }
            ],
            "name": "setApprovalForAll",
            "outputs": [],
            "stateMutability": "nonpayable",
            "type": "function"
        },
        {
            "inputs": [
                {
                    "internalType": "string",
                    "name": "uri",
                    "type": "string"
                }
            ],
            "name": "setBaseURI",
            "outputs": [],
            "stateMutability": "nonpayable",
            "type": "function"
        },
        {
            "inputs": [
                {
                    "internalType": "bytes4",
                    "name": "interfaceId",
                    "type": "bytes4"
                }
            ],
            "name": "supportsInterface",
            "outputs": [
                {
                    "internalType": "bool",
                    "name": "",
                    "type": "bool"
                }
            ],
            "stateMutability": "view",
            "type": "function"
        },
        {
            "inputs": [],
            "name": "symbol",
            "outputs": [
                {
                    "internalType": "string",
                    "name": "",
                    "type": "string"
                }
            ],
            "stateMutability": "view",
            "type": "function"
        },
        {
            "inputs": [
                {
                    "internalType": "uint256",
                    "name": "tokenId",
                    "type": "uint256"
                }
            ],
            "name": "tokenURI",
            "outputs": [
                {
                    "internalType": "string",
                    "name": "",
                    "type": "string"
                }
            ],
            "stateMutability": "view",
            "type": "function"
        },
        {
            "inputs": [
                {
                    "internalType": "address",
                    "name": "owner",
                    "type": "address"
                }
            ],
            "name": "tokensOfOwner",
            "outputs": [
                {
                    "internalType": "uint256[]",
                    "name": "",
                    "type": "uint256[]"
                }
            ],
            "stateMutability": "view",
            "type": "function"
        },
        {
            "inputs": [
                {
                    "internalType": "address",
                    "name": "owner",
                    "type": "address"
                },
                {
                    "internalType": "uint256",
                    "name": "start",
                    "type": "uint256"
                },
                {
                    "internalType": "uint256",
                    "name": "stop",
                    "type": "uint256"
                }
            ],
            "name": "tokensOfOwnerIn",
            "outputs": [
                {
                    "internalType": "uint256[]",
                    "name": "",
                    "type": "uint256[]"
                }
            ],
            "stateMutability": "view",
            "type": "function"
        },
        {
            "inputs": [],
            "name": "totalBurned",
            "outputs": [
                {
                    "internalType": "uint256",
                    "name": "",
                    "type": "uint256"
                }
            ],
            "stateMutability": "view",
            "type": "function"
        },
        {
            "inputs": [],
            "name": "totalSupply",
            "outputs": [
                {
                    "internalType": "uint256",
                    "name": "result",
                    "type": "uint256"
                }
            ],
            "stateMutability": "view",
            "type": "function"
        },
        {
            "inputs": [
                {
                    "internalType": "address",
                    "name": "from",
                    "type": "address"
                },
                {
                    "internalType": "address",
                    "name": "to",
                    "type": "address"
                },
                {
                    "internalType": "uint256",
                    "name": "tokenId",
                    "type": "uint256"
                }
            ],
            "name": "transferFrom",
            "outputs": [],
            "stateMutability": "payable",
            "type": "function"
        },
        {
            "inputs": [],
            "name": "withdrawFunds",
            "outputs": [],
            "stateMutability": "nonpayable",
            "type": "function"
        },
        {
            "inputs": [
                {
                    "internalType": "address",
                    "name": "_tokenAddr",
                    "type": "address"
                },
                {
                    "internalType": "uint256",
                    "name": "_amount",
                    "type": "uint256"
                }
            ],
            "name": "withdrawTokens",
            "outputs": [],
            "stateMutability": "nonpayable",
            "type": "function"
        }
    ],
    "bytecode": "0x6080604052346101475761001161015f565b6649736c616e647360c81b6020820152610029610182565b621254d360ea1b60208201528151916001600160401b0383116101425761005a836100556002546101a5565b6101dd565b602090601f84116001146100bc57928061008d92610095955f926100b1575b50508160011b915f199060031b1c19161790565b60025561027c565b5f80556100a133610355565b5060405161201e90816103df8239f35b015190505f80610079565b60025f52601f19841691907f405787fa12a823e0f2b7631cc41b3ba8828b3321ca811111fa75cd3aa3bb5ace925f5b81811061012a5750916001939186610095979410610112575b505050811b0160025561027c565b01515f1960f88460031b161c191690555f8080610104565b929360206001819287860151815501950193016100eb565b61014b565b5f80fd5b634e487b7160e01b5f52604160045260245ffd5b60408051919082016001600160401b038111838210176101425760405260078252565b60408051919082016001600160401b038111838210176101425760405260038252565b90600182811c921680156101d3575b60208310146101bf57565b634e487b7160e01b5f52602260045260245ffd5b91607f16916101b4565b601f81116101e9575050565b60025f5260205f20906020601f840160051c83019310610223575b601f0160051c01905b818110610218575050565b5f815560010161020d565b9091508190610204565b601f821161023a57505050565b5f5260205f20906020601f840160051c83019310610272575b601f0160051c01905b818110610267575050565b5f815560010161025c565b9091508190610253565b80519091906001600160401b038111610142576102a58161029e6003546101a5565b600361022d565b602092601f82116001146102d9576102d4929382915f926100b15750508160011b915f199060031b1c19161790565b600355565b60035f52601f198216937fc2575a0e9e593c00f959f8c92f12db2869c3395a3b0502d05e2516446f71f85b915f5b86811061033d5750836001959610610325575b505050811b01600355565b01515f1960f88460031b161c191690555f808061031a565b91926020600181928685015181550194019201610307565b6001600160a01b0381165f9081525f805160206123fd833981519152602052604090205460ff166103d9576001600160a01b03165f8181525f805160206123fd83398151915260205260408120805460ff191660011790553391907f2f8788117e7eff1d82e926ec794901d17c78024a50270940304540a733656f0d8180a4600190565b505f9056fe60806040526004361015610011575f80fd5b5f3560e01c806301ffc9a71461022457806306b091f91461021f57806306fdde031461021a578063081812fc14610215578063095ea7b31461021057806318160ddd1461020b57806323b872dd1461020657806324600fc314610201578063248a9ca3146101fc5780632f2ff15d146101f757806336568abe146101f257806342842e0e146101ed57806342966c68146101e857806355f804b3146101e35780635bbb2177146101de5780636352211e146101d957806370a08231146101d457806375794a3c146101cf5780638462151c146101ca57806391d14854146101c557806395d89b41146101c057806399a2557a146101bb578063a217fddf146101b6578063a22cb465146101b1578063b88d4fde146101ac578063bf0b175e146101a7578063c23dc68f146101a2578063c87b56dd1461019d578063cf55fea714610198578063d547741f14610193578063d89135cd1461018e578063e985e9c5146101895763fcceab8114610184575f80fd5b6113bf565b61136f565b611352565b611314565b6112d0565b611185565b611122565b6110e7565b61108d565b610f77565b610f53565b610de0565b610d3b565b610cec565b610b62565b610b0d565b610aea565b610abb565b610a4f565b6108be565b610707565b6106e3565b61069f565b61065c565b610629565b6105f1565b6105df565b610584565b6104bd565b61046e565b610394565b6102c1565b61023f565b6001600160e01b031981160361023b57565b5f80fd5b3461023b57602036600319011261023b57602060043561025e81610229565b63ffffffff60e01b16637965db0b60e01b8114908115610284575b506040519015158152f35b6301ffc9a760e01b1490505f610279565b600435906001600160a01b038216820361023b57565b602435906001600160a01b038216820361023b57565b3461023b57604036600319011261023b575f60206102dd610295565b60446024356102ea6119fd565b60405163a9059cbb60e01b815233600482015260248101919091529384928391906001600160a01b03165af180156103575761032257005b6020813d60201161034f575b8161033b6020938361101b565b8101031261023b5761034d9051610f6d565b005b3d915061032e565b6115e6565b805180835260209291819084018484015e5f828201840152601f01601f1916010190565b90602061039192818152019061035c565b90565b3461023b575f36600319011261023b576040515f6002546103b4816115f1565b808452906001811690811561044a57506001146103ec575b6103e8836103dc8185038261101b565b60405191829182610380565b0390f35b91905060025f527f405787fa12a823e0f2b7631cc41b3ba8828b3321ca811111fa75cd3aa3bb5ace915f905b808210610430575090915081016020016103dc6103cc565b919260018160209254838588010152019101909291610418565b60ff191660208086019190915291151560051b840190910191506103dc90506103cc565b3461023b57602036600319011261023b5760043561048b81611a86565b156104ae575f526006602052602060018060a01b0360405f205416604051908152f35b6333d1c03960e21b5f5260045ffd5b604036600319011261023b576104d1610295565b602435906001600160a01b036104e683611b31565b1690813303610555575b61052581610506855f52600660205260405f2090565b80546001600160a01b0319166001600160a01b03909216919091179055565b6001600160a01b0316907f8c5be1e5ebec7d5bd14f71427d1e84f3dd0314c0f7b2291e5b200ac8c7c3b9255f80a4005b5f82815260076020908152604080832033845290915290205460ff166104f0576367d9dca160e11b5f5260045ffd5b3461023b575f36600319011261023b5760205f546001549003604051908152f35b606090600319011261023b576004356001600160a01b038116810361023b57906024356001600160a01b038116810361023b579060443590565b61034d6105eb366105a5565b91611629565b3461023b575f36600319011261023b576106096119fd565b5f80808047818115610620575b3390f11561035757005b506108fc610616565b3461023b57602036600319011261023b5760206106546004355f526009602052600160405f20015490565b604051908152f35b3461023b57604036600319011261023b5761034d60043561067b6102ab565b9061069a610695825f526009602052600160405f20015490565b611a4c565b611ba1565b3461023b57604036600319011261023b576004356106bb6102ab565b336001600160a01b038216036106d45761034d91611c31565b63334bd91960e11b5f5260045ffd5b61034d6106ef366105a5565b90604051926106ff60208561101b565b5f8452611887565b3461023b57602036600319011261023b5760043561072481611b31565b5f8281526006602052604090208054916001600160a01b03811691338085149084141715610751565b1590565b610847575b5f9361083e575b506001600160a01b0382165f90815260056020526040902080546fffffffffffffffffffffffffffffffff0190556001600160a01b0382164260a01b17600360e01b176107b2855f52600460205260405f2090565b55600160e11b8116156107f9575b507fddf252ad1be2c89b69c2b068fc378daa952ba7f163c4a11628f55a4df523b3ef8280a461034d6107f460015460010190565b600155565b6001840161080f815f52600460205260405f2090565b541561081c575b506107c0565b8354811461081657610836905f52600460205260405f2090565b555f80610816565b8390555f61075d565b61088761074d6108803361086b8760018060a01b03165f52600760205260405f2090565b9060018060a01b03165f5260205260405f2090565b5460ff1690565b1561075657611ad9565b9181601f8401121561023b578235916001600160401b03831161023b576020838186019501011161023b57565b3461023b57602036600319011261023b576004356001600160401b03811161023b576108ee903690600401610891565b6108f66119fd565b6001600160401b0381116109d15761091881610913600a546115f1565b6117bf565b5f601f8211600114610955578190610945935f9261094a575b50508160011b915f199060031b1c19161790565b600a55005b013590505f80610931565b600a5f52601f198216927fc65a7bb8d6351c1cf70c95a316cc6a92839c986682d98bc35f958f4883f9d2a8915f5b8581106109b9575083600195106109a0575b505050811b01600a55005b01355f19600384901b60f8161c191690555f8080610995565b90926020600181928686013581550194019101610983565b611007565b60206040818301928281528451809452019201905f5b8181106109f95750505090565b9091926020608082610a44600194885162ffffff6060809260018060a01b0381511685526001600160401b036020820151166020860152604081015115156040860152015116910152565b0194019291016109ec565b3461023b57602036600319011261023b576004356001600160401b03811161023b573660238201121561023b578060040135906001600160401b03821161023b573660248360051b8301011161023b576103e8916024610aaf920161180f565b604051918291826109d6565b3461023b57602036600319011261023b5760206001600160a01b03610ae1600435611b31565b16604051908152f35b3461023b57602036600319011261023b576020610654610b08610295565b611851565b3461023b575f36600319011261023b5760205f54604051908152f35b60206040818301928281528451809452019201905f5b818110610b4c5750505090565b8251845260209384019390920191600101610b3f565b3461023b57602036600319011261023b57610b7b610295565b5f546060908015908115610b98575b604051806103e88582610b29565b80929192935f91606094610ce7575f5480911015610cdf575b50610bbb81611851565b928515610cd7575b83610bd9575b505050506103e891505f80610b8a565b909192809450851115610ccf575b604051916001850160051b83019485604052610c025f6118fc565b905f91610c1561074d6040830151151590565b610cbd575b505f9791959160015b15610c8e575b5f96610c3484611df5565b604081015115610c5357505060015f935b019688604052969296610c23565b9390935180610c86575b50848418861b15610c71575b600190610c45565b6001909901600581901b87018a905298610c69565b93505f610c5d565b8083148015610cb4575b15610c295750505050509150506103e89181525f808080610bc9565b50818914610c98565b516001600160a01b031691505f610c1a565b849350610be7565b5f9350610bc3565b94505f610bb1565b611b22565b3461023b57604036600319011261023b57602060ff610d2f600435610d0f6102ab565b905f526009845260405f209060018060a01b03165f5260205260405f2090565b54166040519015158152f35b3461023b575f36600319011261023b576040515f600354610d5b816115f1565b808452906001811690811561044a5750600114610d82576103e8836103dc8185038261101b565b91905060035f527fc2575a0e9e593c00f959f8c92f12db2869c3395a3b0502d05e2516446f71f85b915f905b808210610dc6575090915081016020016103dc6103cc565b919260018160209254838588010152019101909291610dae565b3461023b57606036600319011261023b57610df9610295565b602435604435908192819060609380841015610ce7575f5480911015610f4b575b50610e2481611851565b9085841015610f43575b81610e42575b604051806103e88782610b29565b909192809450850382811115610f3b575b5060405191610e6e6001820160051b840195866040526118fc565b905f91610e8161074d6040830151151590565b610f29575b505f9691949160015b15610efb575b5f95610ea084611df5565b604081015115610ebf57505060015f935b019587604052959295610e8f565b9390935180610ef3575b5084841860601b15610ede575b600190610eb1565b6001909801600581901b860189905297610ed6565b93505f610ec9565b8083148015610f20575b15610e9557505050509150506103e89181525f808080610e34565b50818814610f05565b516001600160a01b031691505f610e86565b91505f610e53565b5f9150610e2e565b94505f610e1a565b3461023b575f36600319011261023b5760206040515f8152f35b8015150361023b57565b3461023b57604036600319011261023b57610f90610295565b60243590610f9d82610f6d565b335f9081526007602090815260408083206001600160a01b038516845290915290209115159160ff1981541660ff841617905560405191825260018060a01b0316907f17307eab39ab6107e8899845ad3d59bd9653f200f220920489ca2b5937696c3160203392a3005b634e487b7160e01b5f52604160045260245ffd5b90601f801991011681019081106001600160401b038211176109d157604052565b6001600160401b0381116109d157601f01601f191660200190565b9291926110638261103c565b91611071604051938461101b565b82948184528183011161023b578281602093845f960137010152565b608036600319011261023b576110a1610295565b6110a96102ab565b90604435606435926001600160401b03841161023b573660238501121561023b576110e161034d943690602481600401359101611057565b92611887565b3461023b57602036600319011261023b576001600160a01b03611108610295565b165f526005602052602060405f205460c01c604051908152f35b3461023b57602036600319011261023b5760806111406004356118fc565b611183604051809262ffffff6060809260018060a01b0381511685526001600160401b036020820151166020860152604081015115156040860152015116910152565bf35b3461023b57602036600319011261023b576004356111a281611a86565b156112c157604051600a54815f6111b8836115f1565b80835292600181169081156112a25750600114611243575b6111dc9250038261101b565b805115611231576103dc61120c916112236112126111fc6103e896611e4d565b6040519586946020860190611937565b90611937565b64173539b7b760d91b815260050190565b03601f19810183528261101b565b50506103e861123e6117ab565b6103dc565b5090600a5f527fc65a7bb8d6351c1cf70c95a316cc6a92839c986682d98bc35f958f4883f9d2a8905f915b8183106112865750509060206111dc928201016111d0565b602091935080600191548385880101520191019091839261126e565b602092506111dc94915060ff191682840152151560051b8201016111d0565b630a14c4b560e41b5f5260045ffd5b3461023b57604036600319011261023b576112e9610295565b6024356001600160401b03811161023b5760209161130e610654923690600401610891565b91611949565b3461023b57604036600319011261023b5761034d6004356113336102ab565b9061134d610695825f526009602052600160405f20015490565b611c31565b3461023b575f36600319011261023b576020600154604051908152f35b3461023b57604036600319011261023b57602060ff610d2f61138f610295565b6113976102ab565b6001600160a01b039182165f9081526007865260408082209290931681526020919091522090565b3461023b57604036600319011261023b576113d8610295565b6024356001600160401b03811161023b57806004019060443691011161023b5760ff6114bb61148361147a8461141a61141361146d97611992565b9089611949565b7f19457468657265756d205369676e6564204d6573736167653a0a3332000000005f52601c52611474611450603c5f20926119c6565b61146461145e368385611057565b85611e92565b909a919a611eea565b3691611057565b90611e92565b90929192611eea565b6001600160a01b03165f9081527fec8156718a8372b1db44bb411437d0870f3e3790d4a08526d024ce1b0b668f6b6020526040902090565b5416156115c657506040516114d160208261101b565b5f808252546001600160a01b0383164260a01b17600160e11b176114fd825f52600460205260405f2090565b556001600160a01b0383165f8181526005602052604090208054680100000000000000010190559182156115c15760018201919360015b15611567575b5f85855f7fddf252ad1be2c89b69c2b068fc378daa952ba7f163c4a11628f55a4df523b3ef8180a4611534565b936001019382850361153a57825f55803b61157e57005b5f545f198101919060015b156115ad575b5f6115a261074d86600187019686611d2e565b15611589575b6118b9565b80831061158f57925050505f540361023b57005b611ae8565b63ee4abeb760e01b5f9081526001600160a01b0391909116600452602490fd5b6040513d5f823e3d90fd5b90600182811c9216801561161f575b602083101461160b57565b634e487b7160e01b5f52602260045260245ffd5b91607f1691611600565b919061163482611b31565b6001600160a01b039384169381168490036117a6575f83815260066020526040902080546116716001600160a01b03871633908114908314171590565b611778575b61176f575b506001600160a01b0384165f90815260056020526040902080545f190190556001600160a01b0382165f908152600560205260409020805460010190556001600160a01b0382164260a01b17600160e11b176116df845f52600460205260405f2090565b55600160e11b81161561172a575b506001600160a01b03169182907fddf252ad1be2c89b69c2b068fc378daa952ba7f163c4a11628f55a4df523b3ef5f80a41561172557565b611b04565b60018301611740815f52600460205260405f2090565b541561174d575b506116ed565b5f54811461174757611767905f52600460205260405f2090565b555f80611747565b5f90555f61167b565b61179c61074d6108803361086b8a60018060a01b03165f52600760205260405f2090565b1561167657611ad9565b611af6565b604051906117ba60208361101b565b5f8252565b601f81116117cb575050565b600a5f5260205f20906020601f840160051c83019310611805575b601f0160051c01905b8181106117fa575050565b5f81556001016117ef565b90915081906117e6565b6040519180835260051b906020828401016040525b8182801561184a57601f19908101936118419190840101356118fc565b90840152611824565b5050505090565b6001600160a01b03168015611878575f5260056020526001600160401b0360405f20541690565b6323d3ad8160e21b5f5260045ffd5b929190611895828286611629565b803b6118a2575b50505050565b6118ab93611dcd565b156118b9575f80808061189c565b6368d2bf6b60e11b5f5260045ffd5b60405190608082018281106001600160401b038211176109d1576040525f6060838281528260208201528260408201520152565b906119056118c8565b915f5481106119115750565b9091505b805f52600460205260405f205461192e575f1901611915565b61039190611df5565b805191908290602001825e015f815290565b9190603461198c918360405194859260208401976bffffffffffffffffffffffff199060601b1688528484013781015f838201520301601f19810183528261101b565b51902090565b803590601e198136030182121561023b5701908135916001600160401b03831161023b57602001823603811361023b579190565b602081013590601e198136030182121561023b5701908135916001600160401b03831161023b57602001823603811361023b579190565b335f9081527fec8156718a8372b1db44bb411437d0870f3e3790d4a08526d024ce1b0b668f6b602052604090205460ff1615611a3557565b63e2517d3f60e01b5f52336004525f60245260445ffd5b5f81815260096020908152604080832033845290915290205460ff1615611a705750565b63e2517d3f60e01b5f523360045260245260445ffd5b905f915f548110611a945750565b9091505b805f52600460205260405f205480611acd57508015611ab9575f1901611a98565b634e487b7160e01b5f52601160045260245ffd5b600160e01b1615919050565b632ce44b5f60e11b5f5260045ffd5b622e076360e81b5f5260045ffd5b62a1148160e81b5f5260045ffd5b633a954ecd60e21b5f5260045ffd5b636f96cda160e11b5f5260045ffd5b631960ccad60e11b5f5260045ffd5b611b43815f52600460205260405f2090565b54908115611b5a5750600160e01b8116611b135790565b90505f54811015611b13575b5f19015f81815260046020526040902054908115611b9a5750600160e01b81161561039157636f96cda160e11b5f5260045ffd5b9050611b66565b5f8181526009602090815260408083206001600160a01b038616845290915290205460ff16611c2b575f8181526009602090815260408083206001600160a01b03861684529091529020805460ff1916600117905533916001600160a01b0316907f2f8788117e7eff1d82e926ec794901d17c78024a50270940304540a733656f0d5f80a4600190565b50505f90565b5f8181526009602090815260408083206001600160a01b038616845290915290205460ff1615611c2b575f8181526009602090815260408083206001600160a01b03861684529091529020805460ff1916905533916001600160a01b0316907ff6391f5c32d9c69d2a47ea670b442974b53935d1edc7fd64eb21e047a839171b5f80a4600190565b9081602091031261023b575161039181610229565b6001600160a01b0391821681529116602082015260408101919091526080606082018190526103919291019061035c565b3d15611d29573d90611d108261103c565b91611d1e604051938461101b565b82523d5f602084013e565b606090565b91611d55926020925f604051809681958294630a85bd0160e11b8452843360048601611cce565b03926001600160a01b03165af15f9181611d9c575b50611d8657611d77611cff565b8051156115a857805190602001fd5b6001600160e01b031916630a85bd0160e11b1490565b611dbf91925060203d602011611dc6575b611db7818361101b565b810190611cb9565b905f611d6a565b503d611dad565b906020925f611d55959360405196879586948593630a85bd0160e11b85523360048601611cce565b611dfd6118c8565b505f52600460205260405f2054611e126118c8565b6001600160a01b038216815260a082901c6001600160401b03166020820152600160e01b82161515604082015260e89190911c606082015290565b9060405160a08101604052600a60808201935f8552935b5f190193603082820601855304928315611e8057600a90611e64565b809350608091030191601f1901918252565b8151919060418303611ec257611ebb9250602082015190606060408401519301515f1a90611f66565b9192909190565b50505f9160029190565b60041115611ed657565b634e487b7160e01b5f52602160045260245ffd5b611ef381611ecc565b80611efc575050565b611f0581611ecc565b60018103611f1c5763f645eedf60e01b5f5260045ffd5b611f2581611ecc565b60028103611f40575063fce698f760e01b5f5260045260245ffd5b80611f4c600392611ecc565b14611f545750565b6335e2f38360e21b5f5260045260245ffd5b91907f7fffffffffffffffffffffffffffffff5d576e7357a4501ddfe92f46681b20a08411611fdd579160209360809260ff5f9560405194855216868401526040830152606082015282805260015afa15610357575f516001600160a01b03811615611fd357905f905f90565b505f906001905f90565b5050505f916003919056fea26469706673582212207f50df016bb01eef4e36de2ccf09db5054dbb0c6fc03196164a6556f90068fbd64736f6c634300081a0033ec8156718a8372b1db44bb411437d0870f3e3790d4a08526d024ce1b0b668f6b",
    "linkReferences": {},
    "deployedLinkReferences": {}
}