{
    "_format": "hh-sol-artifact-1",
    "contractName": "KeyOfSalvation",
    "sourceName": "contracts/implementation/KeyOfSalvation.sol",
    "abi": [
        {
            "inputs": [],
            "stateMutability": "nonpayable",
            "type": "constructor"
        },
        {
            "inputs": [],
            "name": "ApprovalCallerNotOwnerNorApproved",
            "type": "error"
        },
        {
            "inputs": [],
            "name": "ApprovalQueryForNonexistentToken",
            "type": "error"
        },
        {
            "inputs": [],
            "name": "BalanceQueryForZeroAddress",
            "type": "error"
        },
        {
            "inputs": [],
            "name": "InvalidQueryRange",
            "type": "error"
        },
        {
            "inputs": [],
            "name": "MintERC2309QuantityExceedsLimit",
            "type": "error"
        },
        {
            "inputs": [],
            "name": "MintToZeroAddress",
            "type": "error"
        },
        {
            "inputs": [],
            "name": "MintZeroQuantity",
            "type": "error"
        },
        {
            "inputs": [
                {
                    "internalType": "address",
                    "name": "operator",
                    "type": "address"
                }
            ],
            "name": "OperatorNotAllowed",
            "type": "error"
        },
        {
            "inputs": [],
            "name": "OwnerQueryForNonexistentToken",
            "type": "error"
        },
        {
            "inputs": [],
            "name": "OwnershipNotInitializedForExtraData",
            "type": "error"
        },
        {
            "inputs": [],
            "name": "TransferCallerNotOwnerNorApproved",
            "type": "error"
        },
        {
            "inputs": [],
            "name": "TransferFromIncorrectOwner",
            "type": "error"
        },
        {
            "inputs": [],
            "name": "TransferToNonERC721ReceiverImplementer",
            "type": "error"
        },
        {
            "inputs": [],
            "name": "TransferToZeroAddress",
            "type": "error"
        },
        {
            "inputs": [],
            "name": "URIQueryForNonexistentToken",
            "type": "error"
        },
        {
            "anonymous": false,
            "inputs": [
                {
                    "indexed": true,
                    "internalType": "address",
                    "name": "owner",
                    "type": "address"
                },
                {
                    "indexed": true,
                    "internalType": "address",
                    "name": "approved",
                    "type": "address"
                },
                {
                    "indexed": true,
                    "internalType": "uint256",
                    "name": "tokenId",
                    "type": "uint256"
                }
            ],
            "name": "Approval",
            "type": "event"
        },
        {
            "anonymous": false,
            "inputs": [
                {
                    "indexed": true,
                    "internalType": "address",
                    "name": "owner",
                    "type": "address"
                },
                {
                    "indexed": true,
                    "internalType": "address",
                    "name": "operator",
                    "type": "address"
                },
                {
                    "indexed": false,
                    "internalType": "bool",
                    "name": "approved",
                    "type": "bool"
                }
            ],
            "name": "ApprovalForAll",
            "type": "event"
        },
        {
            "anonymous": false,
            "inputs": [
                {
                    "indexed": true,
                    "internalType": "uint256",
                    "name": "fromTokenId",
                    "type": "uint256"
                },
                {
                    "indexed": false,
                    "internalType": "uint256",
                    "name": "toTokenId",
                    "type": "uint256"
                },
                {
                    "indexed": true,
                    "internalType": "address",
                    "name": "from",
                    "type": "address"
                },
                {
                    "indexed": true,
                    "internalType": "address",
                    "name": "to",
                    "type": "address"
                }
            ],
            "name": "ConsecutiveTransfer",
            "type": "event"
        },
        {
            "anonymous": false,
            "inputs": [
                {
                    "indexed": true,
                    "internalType": "bytes32",
                    "name": "role",
                    "type": "bytes32"
                },
                {
                    "indexed": true,
                    "internalType": "bytes32",
                    "name": "previousAdminRole",
                    "type": "bytes32"
                },
                {
                    "indexed": true,
                    "internalType": "bytes32",
                    "name": "newAdminRole",
                    "type": "bytes32"
                }
            ],
            "name": "RoleAdminChanged",
            "type": "event"
        },
        {
            "anonymous": false,
            "inputs": [
                {
                    "indexed": true,
                    "internalType": "bytes32",
                    "name": "role",
                    "type": "bytes32"
                },
                {
                    "indexed": true,
                    "internalType": "address",
                    "name": "account",
                    "type": "address"
                },
                {
                    "indexed": true,
                    "internalType": "address",
                    "name": "sender",
                    "type": "address"
                }
            ],
            "name": "RoleGranted",
            "type": "event"
        },
        {
            "anonymous": false,
            "inputs": [
                {
                    "indexed": true,
                    "internalType": "bytes32",
                    "name": "role",
                    "type": "bytes32"
                },
                {
                    "indexed": true,
                    "internalType": "address",
                    "name": "account",
                    "type": "address"
                },
                {
                    "indexed": true,
                    "internalType": "address",
                    "name": "sender",
                    "type": "address"
                }
            ],
            "name": "RoleRevoked",
            "type": "event"
        },
        {
            "anonymous": false,
            "inputs": [
                {
                    "indexed": true,
                    "internalType": "address",
                    "name": "from",
                    "type": "address"
                },
                {
                    "indexed": true,
                    "internalType": "address",
                    "name": "to",
                    "type": "address"
                },
                {
                    "indexed": true,
                    "internalType": "uint256",
                    "name": "tokenId",
                    "type": "uint256"
                }
            ],
            "name": "Transfer",
            "type": "event"
        },
        {
            "inputs": [],
            "name": "DEFAULT_ADMIN_ROLE",
            "outputs": [
                {
                    "internalType": "bytes32",
                    "name": "",
                    "type": "bytes32"
                }
            ],
            "stateMutability": "view",
            "type": "function"
        },
        {
            "inputs": [],
            "name": "OPERATOR_FILTER_REGISTRY",
            "outputs": [
                {
                    "internalType": "contract IOperatorFilterRegistry",
                    "name": "",
                    "type": "address"
                }
            ],
            "stateMutability": "view",
            "type": "function"
        },
        {
            "inputs": [
                {
                    "internalType": "address",
                    "name": "_operator",
                    "type": "address"
                },
                {
                    "internalType": "uint256",
                    "name": "_tokenId",
                    "type": "uint256"
                }
            ],
            "name": "approve",
            "outputs": [],
            "stateMutability": "payable",
            "type": "function"
        },
        {
            "inputs": [
                {
                    "internalType": "address",
                    "name": "owner",
                    "type": "address"
                }
            ],
            "name": "balanceOf",
            "outputs": [
                {
                    "internalType": "uint256",
                    "name": "",
                    "type": "uint256"
                }
            ],
            "stateMutability": "view",
            "type": "function"
        },
        {
            "inputs": [],
            "name": "baseURI",
            "outputs": [
                {
                    "internalType": "string",
                    "name": "",
                    "type": "string"
                }
            ],
            "stateMutability": "view",
            "type": "function"
        },
        {
            "inputs": [
                {
                    "internalType": "uint256",
                    "name": "tokenId",
                    "type": "uint256"
                }
            ],
            "name": "burn",
            "outputs": [],
            "stateMutability": "nonpayable",
            "type": "function"
        },
        {
            "inputs": [
                {
                    "internalType": "uint16",
                    "name": "_devMintLimit",
                    "type": "uint16"
                }
            ],
            "name": "changeDevMintLimit",
            "outputs": [],
            "stateMutability": "nonpayable",
            "type": "function"
        },
        {
            "inputs": [
                {
                    "internalType": "uint256",
                    "name": "_timestamp",
                    "type": "uint256"
                }
            ],
            "name": "changeEndMintTimestamp",
            "outputs": [],
            "stateMutability": "nonpayable",
            "type": "function"
        },
        {
            "inputs": [
                {
                    "internalType": "uint256",
                    "name": "_timestamp",
                    "type": "uint256"
                }
            ],
            "name": "changeGuaranteedMintTimestamp",
            "outputs": [],
            "stateMutability": "nonpayable",
            "type": "function"
        },
        {
            "inputs": [
                {
                    "internalType": "uint16",
                    "name": "_maxSupply",
                    "type": "uint16"
                }
            ],
            "name": "changeMaxSupply",
            "outputs": [],
            "stateMutability": "nonpayable",
            "type": "function"
        },
        {
            "inputs": [
                {
                    "internalType": "uint256",
                    "name": "_timestamp",
                    "type": "uint256"
                }
            ],
            "name": "changeOverallocatedMintTimestamp",
            "outputs": [],
            "stateMutability": "nonpayable",
            "type": "function"
        },
        {
            "inputs": [
                {
                    "internalType": "address",
                    "name": "_newOwner",
                    "type": "address"
                }
            ],
            "name": "changeOwner",
            "outputs": [],
            "stateMutability": "nonpayable",
            "type": "function"
        },
        {
            "inputs": [],
            "name": "contractURI",
            "outputs": [
                {
                    "internalType": "string",
                    "name": "",
                    "type": "string"
                }
            ],
            "stateMutability": "view",
            "type": "function"
        },
        {
            "inputs": [
                {
                    "internalType": "uint16",
                    "name": "_amount",
                    "type": "uint16"
                }
            ],
            "name": "devMint",
            "outputs": [],
            "stateMutability": "nonpayable",
            "type": "function"
        },
        {
            "inputs": [],
            "name": "devMintLimit",
            "outputs": [
                {
                    "internalType": "uint16",
                    "name": "",
                    "type": "uint16"
                }
            ],
            "stateMutability": "view",
            "type": "function"
        },
        {
            "inputs": [],
            "name": "endMintTimestamp",
            "outputs": [
                {
                    "internalType": "uint256",
                    "name": "",
                    "type": "uint256"
                }
            ],
            "stateMutability": "view",
            "type": "function"
        },
        {
            "inputs": [
                {
                    "internalType": "uint256",
                    "name": "_tokenId",
                    "type": "uint256"
                }
            ],
            "name": "exists",
            "outputs": [
                {
                    "internalType": "bool",
                    "name": "",
                    "type": "bool"
                }
            ],
            "stateMutability": "view",
            "type": "function"
        },
        {
            "inputs": [
                {
                    "internalType": "uint256",
                    "name": "tokenId",
                    "type": "uint256"
                }
            ],
            "name": "explicitOwnershipOf",
            "outputs": [
                {
                    "components": [
                        {
                            "internalType": "address",
                            "name": "addr",
                            "type": "address"
                        },
                        {
                            "internalType": "uint64",
                            "name": "startTimestamp",
                            "type": "uint64"
                        },
                        {
                            "internalType": "bool",
                            "name": "burned",
                            "type": "bool"
                        },
                        {
                            "internalType": "uint24",
                            "name": "extraData",
                            "type": "uint24"
                        }
                    ],
                    "internalType": "struct IERC721A.TokenOwnership",
                    "name": "",
                    "type": "tuple"
                }
            ],
            "stateMutability": "view",
            "type": "function"
        },
        {
            "inputs": [
                {
                    "internalType": "uint256[]",
                    "name": "tokenIds",
                    "type": "uint256[]"
                }
            ],
            "name": "explicitOwnershipsOf",
            "outputs": [
                {
                    "components": [
                        {
                            "internalType": "address",
                            "name": "addr",
                            "type": "address"
                        },
                        {
                            "internalType": "uint64",
                            "name": "startTimestamp",
                            "type": "uint64"
                        },
                        {
                            "internalType": "bool",
                            "name": "burned",
                            "type": "bool"
                        },
                        {
                            "internalType": "uint24",
                            "name": "extraData",
                            "type": "uint24"
                        }
                    ],
                    "internalType": "struct IERC721A.TokenOwnership[]",
                    "name": "",
                    "type": "tuple[]"
                }
            ],
            "stateMutability": "view",
            "type": "function"
        },
        {
            "inputs": [
                {
                    "internalType": "uint256",
                    "name": "tokenId",
                    "type": "uint256"
                }
            ],
            "name": "getApproved",
            "outputs": [
                {
                    "internalType": "address",
                    "name": "",
                    "type": "address"
                }
            ],
            "stateMutability": "view",
            "type": "function"
        },
        {
            "inputs": [
                {
                    "internalType": "address",
                    "name": "_owner",
                    "type": "address"
                }
            ],
            "name": "getAux",
            "outputs": [
                {
                    "internalType": "uint64",
                    "name": "",
                    "type": "uint64"
                }
            ],
            "stateMutability": "view",
            "type": "function"
        },
        {
            "inputs": [
                {
                    "internalType": "bytes32",
                    "name": "role",
                    "type": "bytes32"
                }
            ],
            "name": "getRoleAdmin",
            "outputs": [
                {
                    "internalType": "bytes32",
                    "name": "",
                    "type": "bytes32"
                }
            ],
            "stateMutability": "view",
            "type": "function"
        },
        {
            "inputs": [
                {
                    "internalType": "bytes32",
                    "name": "role",
                    "type": "bytes32"
                },
                {
                    "internalType": "address",
                    "name": "account",
                    "type": "address"
                }
            ],
            "name": "grantRole",
            "outputs": [],
            "stateMutability": "nonpayable",
            "type": "function"
        },
        {
            "inputs": [],
            "name": "guaranteedMerkleRoot",
            "outputs": [
                {
                    "internalType": "bytes32",
                    "name": "",
                    "type": "bytes32"
                }
            ],
            "stateMutability": "view",
            "type": "function"
        },
        {
            "inputs": [
                {
                    "internalType": "bytes32[]",
                    "name": "_proof",
                    "type": "bytes32[]"
                }
            ],
            "name": "guaranteedMint",
            "outputs": [],
            "stateMutability": "nonpayable",
            "type": "function"
        },
        {
            "inputs": [],
            "name": "guaranteedMintTimestamp",
            "outputs": [
                {
                    "internalType": "uint256",
                    "name": "",
                    "type": "uint256"
                }
            ],
            "stateMutability": "view",
            "type": "function"
        },
        {
            "inputs": [
                {
                    "internalType": "bytes32",
                    "name": "role",
                    "type": "bytes32"
                },
                {
                    "internalType": "address",
                    "name": "account",
                    "type": "address"
                }
            ],
            "name": "hasRole",
            "outputs": [
                {
                    "internalType": "bool",
                    "name": "",
                    "type": "bool"
                }
            ],
            "stateMutability": "view",
            "type": "function"
        },
        {
            "inputs": [
                {
                    "internalType": "address",
                    "name": "owner",
                    "type": "address"
                },
                {
                    "internalType": "address",
                    "name": "operator",
                    "type": "address"
                }
            ],
            "name": "isApprovedForAll",
            "outputs": [
                {
                    "internalType": "bool",
                    "name": "",
                    "type": "bool"
                }
            ],
            "stateMutability": "view",
            "type": "function"
        },
        {
            "inputs": [],
            "name": "maxSupply",
            "outputs": [
                {
                    "internalType": "uint16",
                    "name": "",
                    "type": "uint16"
                }
            ],
            "stateMutability": "view",
            "type": "function"
        },
        {
            "inputs": [],
            "name": "name",
            "outputs": [
                {
                    "internalType": "string",
                    "name": "",
                    "type": "string"
                }
            ],
            "stateMutability": "view",
            "type": "function"
        },
        {
            "inputs": [],
            "name": "nextTokenId",
            "outputs": [
                {
                    "internalType": "uint256",
                    "name": "",
                    "type": "uint256"
                }
            ],
            "stateMutability": "view",
            "type": "function"
        },
        {
            "inputs": [
                {
                    "internalType": "address",
                    "name": "_owner",
                    "type": "address"
                }
            ],
            "name": "numberMinted",
            "outputs": [
                {
                    "internalType": "uint256",
                    "name": "",
                    "type": "uint256"
                }
            ],
            "stateMutability": "view",
            "type": "function"
        },
        {
            "inputs": [],
            "name": "overallocatedMerkleRoot",
            "outputs": [
                {
                    "internalType": "bytes32",
                    "name": "",
                    "type": "bytes32"
                }
            ],
            "stateMutability": "view",
            "type": "function"
        },
        {
            "inputs": [
                {
                    "internalType": "bytes32[]",
                    "name": "_proof",
                    "type": "bytes32[]"
                }
            ],
            "name": "overallocatedMint",
            "outputs": [],
            "stateMutability": "nonpayable",
            "type": "function"
        },
        {
            "inputs": [],
            "name": "overallocatedMintTimestamp",
            "outputs": [
                {
                    "internalType": "uint256",
                    "name": "",
                    "type": "uint256"
                }
            ],
            "stateMutability": "view",
            "type": "function"
        },
        {
            "inputs": [],
            "name": "owner",
            "outputs": [
                {
                    "internalType": "address",
                    "name": "",
                    "type": "address"
                }
            ],
            "stateMutability": "view",
            "type": "function"
        },
        {
            "inputs": [
                {
                    "internalType": "uint256",
                    "name": "tokenId",
                    "type": "uint256"
                }
            ],
            "name": "ownerOf",
            "outputs": [
                {
                    "internalType": "address",
                    "name": "",
                    "type": "address"
                }
            ],
            "stateMutability": "view",
            "type": "function"
        },
        {
            "inputs": [
                {
                    "internalType": "bytes32",
                    "name": "role",
                    "type": "bytes32"
                },
                {
                    "internalType": "address",
                    "name": "account",
                    "type": "address"
                }
            ],
            "name": "renounceRole",
            "outputs": [],
            "stateMutability": "nonpayable",
            "type": "function"
        },
        {
            "inputs": [],
            "name": "revealStage",
            "outputs": [
                {
                    "internalType": "enum KeyOfSalvation.RevealStage",
                    "name": "",
                    "type": "uint8"
                }
            ],
            "stateMutability": "view",
            "type": "function"
        },
        {
            "inputs": [
                {
                    "internalType": "bytes32",
                    "name": "role",
                    "type": "bytes32"
                },
                {
                    "internalType": "address",
                    "name": "account",
                    "type": "address"
                }
            ],
            "name": "revokeRole",
            "outputs": [],
            "stateMutability": "nonpayable",
            "type": "function"
        },
        {
            "inputs": [
                {
                    "internalType": "uint256",
                    "name": "_tokenId",
                    "type": "uint256"
                },
                {
                    "internalType": "uint256",
                    "name": "_salePrice",
                    "type": "uint256"
                }
            ],
            "name": "royaltyInfo",
            "outputs": [
                {
                    "internalType": "address",
                    "name": "",
                    "type": "address"
                },
                {
                    "internalType": "uint256",
                    "name": "",
                    "type": "uint256"
                }
            ],
            "stateMutability": "view",
            "type": "function"
        },
        {
            "inputs": [
                {
                    "internalType": "address",
                    "name": "_from",
                    "type": "address"
                },
                {
                    "internalType": "address",
                    "name": "_to",
                    "type": "address"
                },
                {
                    "internalType": "uint256",
                    "name": "_tokenId",
                    "type": "uint256"
                }
            ],
            "name": "safeTransferFrom",
            "outputs": [],
            "stateMutability": "payable",
            "type": "function"
        },
        {
            "inputs": [
                {
                    "internalType": "address",
                    "name": "_from",
                    "type": "address"
                },
                {
                    "internalType": "address",
                    "name": "_to",
                    "type": "address"
                },
                {
                    "internalType": "uint256",
                    "name": "_tokenId",
                    "type": "uint256"
                },
                {
                    "internalType": "bytes",
                    "name": "_data",
                    "type": "bytes"
                }
            ],
            "name": "safeTransferFrom",
            "outputs": [],
            "stateMutability": "payable",
            "type": "function"
        },
        {
            "inputs": [
                {
                    "internalType": "address",
                    "name": "_operator",
                    "type": "address"
                },
                {
                    "internalType": "bool",
                    "name": "_approved",
                    "type": "bool"
                }
            ],
            "name": "setApprovalForAll",
            "outputs": [],
            "stateMutability": "nonpayable",
            "type": "function"
        },
        {
            "inputs": [
                {
                    "internalType": "address",
                    "name": "_owner",
                    "type": "address"
                },
                {
                    "internalType": "uint64",
                    "name": "_aux",
                    "type": "uint64"
                }
            ],
            "name": "setAux",
            "outputs": [],
            "stateMutability": "nonpayable",
            "type": "function"
        },
        {
            "inputs": [
                {
                    "internalType": "uint8",
                    "name": "_type",
                    "type": "uint8"
                },
                {
                    "internalType": "string",
                    "name": "_uri",
                    "type": "string"
                }
            ],
            "name": "setBaseURI",
            "outputs": [],
            "stateMutability": "nonpayable",
            "type": "function"
        },
        {
            "inputs": [
                {
                    "internalType": "string",
                    "name": "contractURI_",
                    "type": "string"
                }
            ],
            "name": "setContractURI",
            "outputs": [],
            "stateMutability": "nonpayable",
            "type": "function"
        },
        {
            "inputs": [
                {
                    "internalType": "address",
                    "name": "_receiver",
                    "type": "address"
                },
                {
                    "internalType": "uint96",
                    "name": "_feeNumerator",
                    "type": "uint96"
                }
            ],
            "name": "setDefaultRoyalty",
            "outputs": [],
            "stateMutability": "nonpayable",
            "type": "function"
        },
        {
            "inputs": [
                {
                    "internalType": "uint8",
                    "name": "_type",
                    "type": "uint8"
                },
                {
                    "internalType": "bytes32",
                    "name": "_merkleRoot",
                    "type": "bytes32"
                }
            ],
            "name": "setMerkleRoot",
            "outputs": [],
            "stateMutability": "nonpayable",
            "type": "function"
        },
        {
            "inputs": [
                {
                    "internalType": "enum KeyOfSalvation.RevealStage",
                    "name": "_stage",
                    "type": "uint8"
                }
            ],
            "name": "setRevealStage",
            "outputs": [],
            "stateMutability": "nonpayable",
            "type": "function"
        },
        {
            "inputs": [
                {
                    "internalType": "bytes4",
                    "name": "interfaceId",
                    "type": "bytes4"
                }
            ],
            "name": "supportsInterface",
            "outputs": [
                {
                    "internalType": "bool",
                    "name": "",
                    "type": "bool"
                }
            ],
            "stateMutability": "view",
            "type": "function"
        },
        {
            "inputs": [],
            "name": "symbol",
            "outputs": [
                {
                    "internalType": "string",
                    "name": "",
                    "type": "string"
                }
            ],
            "stateMutability": "view",
            "type": "function"
        },
        {
            "inputs": [
                {
                    "internalType": "uint256",
                    "name": "_tokenId",
                    "type": "uint256"
                }
            ],
            "name": "tokenURI",
            "outputs": [
                {
                    "internalType": "string",
                    "name": "",
                    "type": "string"
                }
            ],
            "stateMutability": "view",
            "type": "function"
        },
        {
            "inputs": [
                {
                    "internalType": "address",
                    "name": "owner",
                    "type": "address"
                }
            ],
            "name": "tokensOfOwner",
            "outputs": [
                {
                    "internalType": "uint256[]",
                    "name": "",
                    "type": "uint256[]"
                }
            ],
            "stateMutability": "view",
            "type": "function"
        },
        {
            "inputs": [
                {
                    "internalType": "address",
                    "name": "owner",
                    "type": "address"
                },
                {
                    "internalType": "uint256",
                    "name": "start",
                    "type": "uint256"
                },
                {
                    "internalType": "uint256",
                    "name": "stop",
                    "type": "uint256"
                }
            ],
            "name": "tokensOfOwnerIn",
            "outputs": [
                {
                    "internalType": "uint256[]",
                    "name": "",
                    "type": "uint256[]"
                }
            ],
            "stateMutability": "view",
            "type": "function"
        },
        {
            "inputs": [],
            "name": "totalBurned",
            "outputs": [
                {
                    "internalType": "uint256",
                    "name": "",
                    "type": "uint256"
                }
            ],
            "stateMutability": "view",
            "type": "function"
        },
        {
            "inputs": [],
            "name": "totalMinted",
            "outputs": [
                {
                    "internalType": "uint256",
                    "name": "",
                    "type": "uint256"
                }
            ],
            "stateMutability": "view",
            "type": "function"
        },
        {
            "inputs": [],
            "name": "totalSupply",
            "outputs": [
                {
                    "internalType": "uint256",
                    "name": "",
                    "type": "uint256"
                }
            ],
            "stateMutability": "view",
            "type": "function"
        },
        {
            "inputs": [
                {
                    "internalType": "address",
                    "name": "_from",
                    "type": "address"
                },
                {
                    "internalType": "address",
                    "name": "_to",
                    "type": "address"
                },
                {
                    "internalType": "uint256",
                    "name": "_tokenId",
                    "type": "uint256"
                }
            ],
            "name": "transferFrom",
            "outputs": [],
            "stateMutability": "payable",
            "type": "function"
        },
        {
            "inputs": [],
            "name": "withdrawFunds",
            "outputs": [],
            "stateMutability": "nonpayable",
            "type": "function"
        },
        {
            "inputs": [
                {
                    "internalType": "address",
                    "name": "_tokenAddr",
                    "type": "address"
                },
                {
                    "internalType": "uint256",
                    "name": "_amount",
                    "type": "uint256"
                }
            ],
            "name": "withdrawTokens",
            "outputs": [],
            "stateMutability": "nonpayable",
            "type": "function"
        }
    ],
    "bytecode": "0x6080604052600b805463ffffffff19166301f413881790553480156200002457600080fd5b50733cc6cdda760b79bafa08df41ecfa224f810dceb660016040518060400160405280601081526020016f25b2bc9027b31029b0b63b30ba34b7b760811b815250604051806040016040528060038152602001624b4f5360e81b81525081600290816200009291906200048b565b506003620000a182826200048b565b50600160005550506daaeb6d7670e522a718067333cd4e3b15620001ee5780156200013c57604051633e9f1edf60e11b81523060048201526001600160a01b03831660248201526daaeb6d7670e522a718067333cd4e90637d3e3dbe906044015b600060405180830381600087803b1580156200011d57600080fd5b505af115801562000132573d6000803e3d6000fd5b50505050620001ee565b6001600160a01b038216156200018d5760405163a0af290360e01b81523060048201526001600160a01b03831660248201526daaeb6d7670e522a718067333cd4e9063a0af29039060440162000102565b604051632210724360e11b81523060048201526daaeb6d7670e522a718067333cd4e90634420e48690602401600060405180830381600087803b158015620001d457600080fd5b505af1158015620001e9573d6000803e3d6000fd5b505050505b50620001fe90506000336200023c565b6200020c336103e8620002e1565b600f805463643013d0600c556364309968600d55636430e684600e556001600160a81b0319163317905562000557565b60008281526008602090815260408083206001600160a01b038516845290915290205460ff16620002dd5760008281526008602090815260408083206001600160a01b03851684529091529020805460ff191660011790556200029c3390565b6001600160a01b0316816001600160a01b0316837f2f8788117e7eff1d82e926ec794901d17c78024a50270940304540a733656f0d60405160405180910390a45b5050565b6127106001600160601b0382161115620003555760405162461bcd60e51b815260206004820152602a60248201527f455243323938313a20726f79616c7479206665652077696c6c206578636565646044820152692073616c65507269636560b01b60648201526084015b60405180910390fd5b6001600160a01b038216620003ad5760405162461bcd60e51b815260206004820152601960248201527f455243323938313a20696e76616c69642072656365697665720000000000000060448201526064016200034c565b604080518082019091526001600160a01b039092168083526001600160601b039091166020909201829052600160a01b90910217600955565b634e487b7160e01b600052604160045260246000fd5b600181811c908216806200041157607f821691505b6020821081036200043257634e487b7160e01b600052602260045260246000fd5b50919050565b601f8211156200048657600081815260208120601f850160051c81016020861015620004615750805b601f850160051c820191505b8181101562000482578281556001016200046d565b5050505b505050565b81516001600160401b03811115620004a757620004a7620003e6565b620004bf81620004b88454620003fc565b8462000438565b602080601f831160018114620004f75760008415620004de5750858301515b600019600386901b1c1916600185901b17855562000482565b600085815260208120601f198616915b82811015620005285788860151825594840194600190910190840162000507565b5085821015620005475787850151600019600388901b60f8161c191681555b5050505050600190811b01905550565b61362780620005676000396000f3fe6080604052600436106103a25760003560e01c80637fa83b43116101e7578063bf0b175e1161010d578063d89135cd116100a0578063efc9e5fb1161006f578063efc9e5fb14610b03578063f37b770e14610b19578063f8f8ae4d14610b39578063fa24bd3514610b5957600080fd5b8063d89135cd14610a70578063dc33e68114610a85578063e8a3d48514610aa5578063e985e9c514610aba57600080fd5b8063c959eec7116100dc578063c959eec7146109ff578063cf47075114610a1f578063d547741f14610a35578063d5abeb0114610a5557600080fd5b8063bf0b175e1461095a578063c23dc68f14610992578063c367ab4a146109bf578063c87b56dd146109df57600080fd5b806399bc7dae11610185578063a6f9dae111610154578063a6f9dae1146108f1578063b88d4fde14610911578063bca980ca14610924578063bdc9cacd1461093a57600080fd5b806399bc7dae14610883578063a217fddf146108a3578063a22cb465146108b8578063a2309ff8146108d857600080fd5b806391d14854116101c157806391d148541461080e578063938e3d7b1461082e57806395d89b411461084e57806399a2557a1461086357600080fd5b80637fa83b43146107a35780638462151c146107c35780638da5cb5b146107f057600080fd5b806342842e0e116102cc5780635755294c1161026a5780636c0360eb116102395780636c0360eb1461074357806370a082311461075857806375794a3c1461077857806376d0d85c1461078d57600080fd5b80635755294c146106945780635bbb2177146106c85780636352211e146106f5578063677f83e61461071557600080fd5b8063468cd929116102a6578063468cd9291461061e5780634f558e791461063e57806354d77e0e1461065e57806354dff9541461067e57600080fd5b806342842e0e146105cb57806342966c68146105de578063453ab141146105fe57600080fd5b8063208c2d41116103445780632a55205a116103135780632a55205a1461052a5780632f2ff15d1461056957806336568abe1461058957806341f43434146105a957600080fd5b8063208c2d41146104b257806323b872dd146104d257806324600fc3146104e5578063248a9ca3146104fa57600080fd5b806306fdde031161038057806306fdde031461041e578063081812fc14610440578063095ea7b31461047857806318160ddd1461048b57600080fd5b806301ffc9a7146103a757806304634d8d146103dc57806306b091f9146103fe575b600080fd5b3480156103b357600080fd5b506103c76103c2366004612b9f565b610b79565b60405190151581526020015b60405180910390f35b3480156103e857600080fd5b506103fc6103f7366004612bd8565b610be9565b005b34801561040a57600080fd5b506103fc610419366004612c1b565b610c03565b34801561042a57600080fd5b50610433610c97565b6040516103d39190612c95565b34801561044c57600080fd5b5061046061045b366004612ca8565b610d29565b6040516001600160a01b0390911681526020016103d3565b6103fc610486366004612c1b565b610d6d565b34801561049757600080fd5b5060015460005403600019015b6040519081526020016103d3565b3480156104be57600080fd5b506103fc6104cd366004612cc1565b610d81565b6103fc6104e0366004612ce5565b610da5565b3480156104f157600080fd5b506103fc610dd0565b34801561050657600080fd5b506104a4610515366004612ca8565b60009081526008602052604090206001015490565b34801561053657600080fd5b5061054a610545366004612d21565b610e0b565b604080516001600160a01b0390931683526020830191909152016103d3565b34801561057557600080fd5b506103fc610584366004612d43565b610eb9565b34801561059557600080fd5b506103fc6105a4366004612d43565b610ede565b3480156105b557600080fd5b506104606daaeb6d7670e522a718067333cd4e81565b6103fc6105d9366004612ce5565b610f5d565b3480156105ea57600080fd5b506103fc6105f9366004612ca8565b610f82565b34801561060a57600080fd5b506103fc610619366004612d6f565b610f90565b34801561062a57600080fd5b506103fc610639366004612ca8565b610f9a565b34801561064a57600080fd5b506103c7610659366004612ca8565b610fab565b34801561066a57600080fd5b506103fc610679366004612db8565b610fb6565b34801561068a57600080fd5b506104a4600d5481565b3480156106a057600080fd5b50600b546106b59062010000900461ffff1681565b60405161ffff90911681526020016103d3565b3480156106d457600080fd5b506106e86106e3366004612e18565b611033565b6040516103d39190612e95565b34801561070157600080fd5b50610460610710366004612ca8565b6110fe565b34801561072157600080fd5b50600f5461073690600160a01b900460ff1681565b6040516103d39190612eed565b34801561074f57600080fd5b50610433611109565b34801561076457600080fd5b506104a4610773366004612f15565b611118565b34801561078457600080fd5b506000546104a4565b34801561079957600080fd5b506104a460115481565b3480156107af57600080fd5b506103fc6107be366004612e18565b611166565b3480156107cf57600080fd5b506107e36107de366004612f15565b611298565b6040516103d39190612f30565b3480156107fc57600080fd5b50600f546001600160a01b0316610460565b34801561081a57600080fd5b506103c7610829366004612d43565b6113a0565b34801561083a57600080fd5b506103fc610849366004612f68565b6113cb565b34801561085a57600080fd5b506104336113e3565b34801561086f57600080fd5b506107e361087e366004612fd9565b6113f2565b34801561088f57600080fd5b506103fc61089e366004612e18565b611579565b3480156108af57600080fd5b506104a4600081565b3480156108c457600080fd5b506103fc6108d336600461301a565b61163e565b3480156108e457600080fd5b50600054600019016104a4565b3480156108fd57600080fd5b506103fc61090c366004612f15565b611652565b6103fc61091f3660046130d1565b611701565b34801561093057600080fd5b506104a460105481565b34801561094657600080fd5b506103fc61095536600461314c565b611727565b34801561096657600080fd5b5061097a610975366004612f15565b6117d5565b6040516001600160401b0390911681526020016103d3565b34801561099e57600080fd5b506109b26109ad366004612ca8565b6117f6565b6040516103d391906131ad565b3480156109cb57600080fd5b506103fc6109da366004612cc1565b61187e565b3480156109eb57600080fd5b506104336109fa366004612ca8565b611897565b348015610a0b57600080fd5b506103fc610a1a3660046131bb565b611962565b348015610a2b57600080fd5b506104a4600e5481565b348015610a4157600080fd5b506103fc610a50366004612d43565b61199b565b348015610a6157600080fd5b50600b546106b59061ffff1681565b348015610a7c57600080fd5b506104a46119c0565b348015610a9157600080fd5b506104a4610aa0366004612f15565b6119cb565b348015610ab157600080fd5b506104336119f5565b348015610ac657600080fd5b506103c7610ad53660046131dc565b6001600160a01b03918216600090815260076020908152604080832093909416825291909152205460ff1690565b348015610b0f57600080fd5b506104a4600c5481565b348015610b2557600080fd5b506103fc610b34366004612ca8565b611a04565b348015610b4557600080fd5b506103fc610b54366004612cc1565b611a15565b348015610b6557600080fd5b506103fc610b74366004612ca8565b611a41565b60006001600160e01b03198216637965db0b60e01b1480610b9e5750610b9e82611a52565b80610bb957506001600160e01b0319821663152a902d60e11b145b80610bd457506001600160e01b031982166301ffc9a760e01b145b80610be35750610be382611aa0565b92915050565b6000610bf481611ac5565b610bfe8383611acf565b505050565b6000610c0e81611ac5565b826001600160a01b03811663a9059cbb336040516001600160e01b031960e084901b1681526001600160a01b039091166004820152602481018690526044016020604051808303816000875af1158015610c6c573d6000803e3d6000fd5b505050506040513d601f19601f82011682018060405250810190610c909190613206565b5050505050565b606060028054610ca690613223565b80601f0160208091040260200160405190810160405280929190818152602001828054610cd290613223565b8015610d1f5780601f10610cf457610100808354040283529160200191610d1f565b820191906000526020600020905b815481529060010190602001808311610d0257829003601f168201915b5050505050905090565b6000610d3482611bcc565b610d51576040516333d1c03960e21b815260040160405180910390fd5b506000908152600660205260409020546001600160a01b031690565b81610d7781611c01565b610bfe8383611cba565b6000610d8c81611ac5565b50600b805461ffff191661ffff92909216919091179055565b826001600160a01b0381163314610dbf57610dbf33611c01565b610dca848484611d5a565b50505050565b6000610ddb81611ac5565b60405133904780156108fc02916000818181858888f19350505050158015610e07573d6000803e3d6000fd5b5050565b6000828152600a602090815260408083208151808301909252546001600160a01b038116808352600160a01b9091046001600160601b0316928201929092528291610e805750604080518082019091526009546001600160a01b0381168252600160a01b90046001600160601b031660208201525b602081015160009061271090610e9f906001600160601b03168761326d565b610ea99190613284565b91519350909150505b9250929050565b600082815260086020526040902060010154610ed481611ac5565b610bfe8383611eeb565b6001600160a01b0381163314610f535760405162461bcd60e51b815260206004820152602f60248201527f416363657373436f6e74726f6c3a2063616e206f6e6c792072656e6f756e636560448201526e103937b632b9903337b91039b2b63360891b60648201526084015b60405180910390fd5b610e078282611f71565b826001600160a01b0381163314610f7757610f7733611c01565b610dca848484611fd8565b610f8d816001611ff3565b50565b610e07828261212b565b6000610fa581611ac5565b50600c55565b6000610be382611bcc565b6000610fc181611ac5565b828060ff1660011480610fd757508060ff166002145b61100b5760405162461bcd60e51b815260206004820152600560248201526404b4f5331360dc1b6044820152606401610f4a565b8360ff16600103611020576010839055610dca565b8360ff16600203610dca57505060115550565b6060816000816001600160401b0381111561105057611050613046565b6040519080825280602002602001820160405280156110a257816020015b60408051608081018252600080825260208083018290529282018190526060820152825260001990920191018161106e5790505b50905060005b8281146110f5576110d08686838181106110c4576110c46132a6565b905060200201356117f6565b8282815181106110e2576110e26132a6565b60209081029190910101526001016110a8565b50949350505050565b6000610be38261215d565b60606111136121cc565b905090565b60006001600160a01b038216611141576040516323d3ad8160e21b815260040160405180910390fd5b506001600160a01b03166000908152600560205260409020546001600160401b031690565b81816111766002335b848461223f565b6111ab5760405162461bcd60e51b8152600401610f4a906020808252600490820152634b4f533360e01b604082015260600190565b6111ce335b6001600160a01b031660009081526005602052604090205460c01c90565b6001600160401b03161561120d5760405162461bcd60e51b8152600401610f4a9060208082526004908201526312d3d4cd60e21b604082015260600190565b600d544210156112485760405162461bcd60e51b8152600401610f4a9060208082526004908201526325a7a99b60e11b604082015260600190565b600e5442106112825760405162461bcd60e51b8152600401610f4a906020808252600490820152634b4f533760e01b604082015260600190565b61128d33600161212b565b610dca3360016122cc565b606060008060006112a885611118565b90506000816001600160401b038111156112c4576112c4613046565b6040519080825280602002602001820160405280156112ed578160200160208202803683370190505b50905061131a60408051608081018252600080825260208201819052918101829052606081019190915290565b60015b8386146113945761132d8161232e565b9150816040015161138c5781516001600160a01b03161561134d57815194505b876001600160a01b0316856001600160a01b03160361138c578083878060010198508151811061137f5761137f6132a6565b6020026020010181815250505b60010161131d565b50909695505050505050565b60009182526008602090815260408084206001600160a01b0393909316845291905290205460ff1690565b60006113d681611ac5565b6012610dca838583613302565b606060038054610ca690613223565b606081831061141457604051631960ccad60e11b815260040160405180910390fd5b60008061142060005490565b9050600185101561143057600194505b8084111561143c578093505b600061144787611118565b9050848610156114665785850381811015611460578091505b5061146a565b5060005b6000816001600160401b0381111561148457611484613046565b6040519080825280602002602001820160405280156114ad578160200160208202803683370190505b509050816000036114c357935061157292505050565b60006114ce886117f6565b9050600081604001516114df575080515b885b8881141580156114f15750848714155b15611566576114ff8161232e565b9250826040015161155e5782516001600160a01b03161561151f57825191505b8a6001600160a01b0316826001600160a01b03160361155e5780848880600101995081518110611551576115516132a6565b6020026020010181815250505b6001016114e1565b50505092835250909150505b9392505050565b818161158660013361116f565b6115bb5760405162461bcd60e51b8152600401610f4a9060208082526004908201526325a7a99960e11b604082015260600190565b6115c4336111b0565b6001600160401b0316156116035760405162461bcd60e51b8152600401610f4a9060208082526004908201526312d3d4cd60e21b604082015260600190565b600c544210156112485760405162461bcd60e51b8152600401610f4a906020808252600490820152634b4f533560e01b604082015260600190565b8161164881611c01565b610bfe838361236a565b600f546001600160a01b0316336001600160a01b03161461169e5760405162461bcd60e51b8152600401610f4a906020808252600490820152630969ea6760e31b604082015260600190565b806001600160a01b0381166116de5760405162461bcd60e51b8152600401610f4a906020808252600490820152634b4f533960e01b604082015260600190565b50600f80546001600160a01b0319166001600160a01b0392909216919091179055565b836001600160a01b038116331461171b5761171b33611c01565b610c90858585856123d6565b600061173281611ac5565b828060ff166001148061174857508060ff166002145b8061175657508060ff166003145b61178a5760405162461bcd60e51b815260206004820152600560248201526425a7a9989960d91b6044820152606401610f4a565b8360ff166001036117a75760136117a184826133c1565b50610dca565b8360ff166002036117be5760146117a184826133c1565b8360ff16600303610dca576015610c9084826133c1565b6001600160a01b03811660009081526005602052604081205460c01c610be3565b604080516080810182526000808252602082018190529181018290526060810191909152604080516080810182526000808252602082018190529181018290526060810191909152600183108061184f57506000548310155b1561185a5792915050565b6118638361232e565b90508060400151156118755792915050565b6115728361241a565b600061188981611ac5565b610e07338361ffff166122cc565b6060816118a381611bcc565b6118d75760405162461bcd60e51b81526020600482015260056024820152644b4f53313160d81b6044820152606401610f4a565b60006118e16121cc565b90506000600f54600160a01b900460ff16600281111561190357611903612ed7565b0361190f57915061195c565b600081511161192d5760405180602001604052806000815250611958565b806119378561244f565b604051602001611948929190613480565b6040516020818303038152906040525b9250505b50919050565b600061196d81611ac5565b600f805483919060ff60a01b1916600160a01b83600281111561199257611992612ed7565b02179055505050565b6000828152600860205260409020600101546119b681611ac5565b610bfe8383611f71565b600061111360015490565b6001600160a01b038116600090815260056020526040808220546001600160401b03911c16610be3565b606060128054610ca690613223565b6000611a0f81611ac5565b50600e55565b6000611a2081611ac5565b50600b805461ffff909216620100000263ffff000019909216919091179055565b6000611a4c81611ac5565b50600d55565b60006301ffc9a760e01b6001600160e01b031983161480611a8357506380ac58cd60e01b6001600160e01b03198316145b80610be35750506001600160e01b031916635b5e139f60e01b1490565b60006001600160e01b0319821663152a902d60e11b1480610be35750610be3826124e2565b610f8d8133612517565b6127106001600160601b0382161115611b3d5760405162461bcd60e51b815260206004820152602a60248201527f455243323938313a20726f79616c7479206665652077696c6c206578636565646044820152692073616c65507269636560b01b6064820152608401610f4a565b6001600160a01b038216611b935760405162461bcd60e51b815260206004820152601960248201527f455243323938313a20696e76616c6964207265636569766572000000000000006044820152606401610f4a565b604080518082019091526001600160a01b039092168083526001600160601b039091166020909201829052600160a01b90910217600955565b600081600111158015611be0575060005482105b8015610be3575050600090815260046020526040902054600160e01b161590565b6daaeb6d7670e522a718067333cd4e3b15610f8d57604051633185c44d60e21b81523060048201526001600160a01b03821660248201526daaeb6d7670e522a718067333cd4e9063c617113490604401602060405180830381865afa158015611c6e573d6000803e3d6000fd5b505050506040513d601f19601f82011682018060405250810190611c929190613206565b610f8d57604051633b79c77360e21b81526001600160a01b0382166004820152602401610f4a565b6000611cc5826110fe565b9050336001600160a01b03821614611cfe57611ce18133610ad5565b611cfe576040516367d9dca160e11b815260040160405180910390fd5b60008281526006602052604080822080546001600160a01b0319166001600160a01b0387811691821790925591518593918516917f8c5be1e5ebec7d5bd14f71427d1e84f3dd0314c0f7b2291e5b200ac8c7c3b92591a4505050565b6000611d658261215d565b9050836001600160a01b0316816001600160a01b031614611d985760405162a1148160e81b815260040160405180910390fd5b60008281526006602052604090208054611dc48187335b6001600160a01b039081169116811491141790565b611def57611dd28633610ad5565b611def57604051632ce44b5f60e11b815260040160405180910390fd5b6001600160a01b038516611e1657604051633a954ecd60e21b815260040160405180910390fd5b8015611e2157600082555b6001600160a01b038681166000908152600560205260408082208054600019019055918716808252919020805460010190554260a01b17600160e11b17600085815260046020526040812091909155600160e11b84169003611eb357600184016000818152600460205260408120549003611eb1576000548114611eb15760008181526004602052604090208490555b505b83856001600160a01b0316876001600160a01b03166000805160206135d283398151915260405160405180910390a45b505050505050565b611ef582826113a0565b610e075760008281526008602090815260408083206001600160a01b03851684529091529020805460ff19166001179055611f2d3390565b6001600160a01b0316816001600160a01b0316837f2f8788117e7eff1d82e926ec794901d17c78024a50270940304540a733656f0d60405160405180910390a45050565b611f7b82826113a0565b15610e075760008281526008602090815260408083206001600160a01b0385168085529252808320805460ff1916905551339285917ff6391f5c32d9c69d2a47ea670b442974b53935d1edc7fd64eb21e047a839171b9190a45050565b610bfe83838360405180602001604052806000815250611701565b6000611ffe8361215d565b90508060008061201c86600090815260066020526040902080549091565b91509150841561205c57612031818433611daf565b61205c5761203f8333610ad5565b61205c57604051632ce44b5f60e11b815260040160405180910390fd5b801561206757600082555b6001600160a01b038316600081815260056020526040902080546fffffffffffffffffffffffffffffffff0190554260a01b17600360e01b17600087815260046020526040812091909155600160e11b851690036120f5576001860160008181526004602052604081205490036120f35760005481146120f35760008181526004602052604090208590555b505b60405186906000906001600160a01b038616906000805160206135d2833981519152908390a45050600180548101905550505050565b6001600160a01b03909116600090815260056020526040902080546001600160c01b031660c09290921b919091179055565b600081806001116121b3576000548110156121b35760008181526004602052604081205490600160e01b821690036121b1575b80600003611572575060001901600081815260046020526040902054612190565b505b604051636f96cda160e11b815260040160405180910390fd5b60606000600f54600160a01b900460ff1660028111156121ee576121ee612ed7565b036122005760138054610ca690613223565b6001600f54600160a01b900460ff16600281111561222057612220612ed7565b036122325760148054610ca690613223565b60158054610ca690613223565b60006122c185612288866040516bffffffffffffffffffffffff19606083901b166020820152600090603401604051602081830303815290604052805190602001209050919050565b85858080602002602001604051908101604052809392919081815260200183836020028082843760009201919091525061257092505050565b90505b949350505050565b600b54600154600054839261ffff1691839103600019016122ed91906134bf565b11156123245760405162461bcd60e51b8152600401610f4a906020808252600490820152634b4f533160e01b604082015260600190565b610bfe83836125f1565b604080516080810182526000808252602082018190529181018290526060810191909152600082815260046020526040902054610be39061260b565b3360008181526007602090815260408083206001600160a01b03871680855290835292819020805460ff191686151590811790915590519081529192917f17307eab39ab6107e8899845ad3d59bd9653f200f220920489ca2b5937696c31910160405180910390a35050565b6123e1848484610da5565b6001600160a01b0383163b15610dca576123fd84848484612652565b610dca576040516368d2bf6b60e11b815260040160405180910390fd5b604080516080810182526000808252602082018190529181018290526060810191909152610be361244a8361215d565b61260b565b6060600061245c8361273a565b60010190506000816001600160401b0381111561247b5761247b613046565b6040519080825280601f01601f1916602001820160405280156124a5576020820181803683370190505b5090508181016020015b600019016f181899199a1a9b1b9c1cb0b131b232b360811b600a86061a8153600a85049450846124af575b509392505050565b60006001600160e01b03198216637965db0b60e01b1480610be357506301ffc9a760e01b6001600160e01b0319831614610be3565b61252182826113a0565b610e075761252e81612812565b612539836020612824565b60405160200161254a9291906134d2565b60408051601f198184030181529082905262461bcd60e51b8252610f4a91600401612c95565b6000838060ff166001148061258857508060ff166002145b6125bc5760405162461bcd60e51b815260206004820152600560248201526404b4f5331360dc1b6044820152606401610f4a565b8460ff166001036125db576125d483601054866129bf565b91506124da565b6125e883601154866129bf565b95945050505050565b610e078282604051806020016040528060008152506129d5565b604080516080810182526001600160a01b038316815260a083901c6001600160401b03166020820152600160e01b831615159181019190915260e89190911c606082015290565b604051630a85bd0160e11b81526000906001600160a01b0385169063150b7a0290612687903390899088908890600401613547565b6020604051808303816000875af19250505080156126c2575060408051601f3d908101601f191682019092526126bf91810190613584565b60015b612720573d8080156126f0576040519150601f19603f3d011682016040523d82523d6000602084013e6126f5565b606091505b508051600003612718576040516368d2bf6b60e11b815260040160405180910390fd5b805181602001fd5b6001600160e01b031916630a85bd0160e11b1490506122c4565b60008072184f03e93ff9f4daa797ed6e38ed64bf6a1f0160401b83106127795772184f03e93ff9f4daa797ed6e38ed64bf6a1f0160401b830492506040015b6d04ee2d6d415b85acef810000000083106127a5576d04ee2d6d415b85acef8100000000830492506020015b662386f26fc1000083106127c357662386f26fc10000830492506010015b6305f5e10083106127db576305f5e100830492506008015b61271083106127ef57612710830492506004015b60648310612801576064830492506002015b600a8310610be35760010192915050565b6060610be36001600160a01b03831660145b6060600061283383600261326d565b61283e9060026134bf565b6001600160401b0381111561285557612855613046565b6040519080825280601f01601f19166020018201604052801561287f576020820181803683370190505b509050600360fc1b8160008151811061289a5761289a6132a6565b60200101906001600160f81b031916908160001a905350600f60fb1b816001815181106128c9576128c96132a6565b60200101906001600160f81b031916908160001a90535060006128ed84600261326d565b6128f89060016134bf565b90505b6001811115612970576f181899199a1a9b1b9c1cb0b131b232b360811b85600f166010811061292c5761292c6132a6565b1a60f81b828281518110612942576129426132a6565b60200101906001600160f81b031916908160001a90535060049490941c93612969816135a1565b90506128fb565b5083156115725760405162461bcd60e51b815260206004820181905260248201527f537472696e67733a20686578206c656e67746820696e73756666696369656e746044820152606401610f4a565b6000826129cc8584612a3b565b14949350505050565b6129df8383612a80565b6001600160a01b0383163b15610bfe576000548281035b612a096000868380600101945086612652565b612a26576040516368d2bf6b60e11b815260040160405180910390fd5b8181106129f6578160005414610c9057600080fd5b600081815b84518110156124da57612a6c82868381518110612a5f57612a5f6132a6565b6020026020010151612b5a565b915080612a78816135b8565b915050612a40565b6000805490829003612aa55760405163b562e8dd60e01b815260040160405180910390fd5b6001600160a01b03831660008181526005602090815260408083208054680100000000000000018802019055848352600490915281206001851460e11b4260a01b178317905582840190839083906000805160206135d28339815191528180a4600183015b818114612b3057808360006000805160206135d2833981519152600080a4600101612b0a565b5081600003612b5157604051622e076360e81b815260040160405180910390fd5b60005550505050565b6000818310612b76576000828152602084905260409020611572565b6000838152602083905260409020611572565b6001600160e01b031981168114610f8d57600080fd5b600060208284031215612bb157600080fd5b813561157281612b89565b80356001600160a01b0381168114612bd357600080fd5b919050565b60008060408385031215612beb57600080fd5b612bf483612bbc565b915060208301356001600160601b0381168114612c1057600080fd5b809150509250929050565b60008060408385031215612c2e57600080fd5b612c3783612bbc565b946020939093013593505050565b60005b83811015612c60578181015183820152602001612c48565b50506000910152565b60008151808452612c81816020860160208601612c45565b601f01601f19169290920160200192915050565b6020815260006115726020830184612c69565b600060208284031215612cba57600080fd5b5035919050565b600060208284031215612cd357600080fd5b813561ffff8116811461157257600080fd5b600080600060608486031215612cfa57600080fd5b612d0384612bbc565b9250612d1160208501612bbc565b9150604084013590509250925092565b60008060408385031215612d3457600080fd5b50508035926020909101359150565b60008060408385031215612d5657600080fd5b82359150612d6660208401612bbc565b90509250929050565b60008060408385031215612d8257600080fd5b612d8b83612bbc565b915060208301356001600160401b0381168114612c1057600080fd5b803560ff81168114612bd357600080fd5b60008060408385031215612dcb57600080fd5b612c3783612da7565b60008083601f840112612de657600080fd5b5081356001600160401b03811115612dfd57600080fd5b6020830191508360208260051b8501011115610eb257600080fd5b60008060208385031215612e2b57600080fd5b82356001600160401b03811115612e4157600080fd5b612e4d85828601612dd4565b90969095509350505050565b80516001600160a01b031682526020808201516001600160401b03169083015260408082015115159083015260609081015162ffffff16910152565b6020808252825182820181905260009190848201906040850190845b8181101561139457612ec4838551612e59565b9284019260809290920191600101612eb1565b634e487b7160e01b600052602160045260246000fd5b6020810160038310612f0f57634e487b7160e01b600052602160045260246000fd5b91905290565b600060208284031215612f2757600080fd5b61157282612bbc565b6020808252825182820181905260009190848201906040850190845b8181101561139457835183529284019291840191600101612f4c565b60008060208385031215612f7b57600080fd5b82356001600160401b0380821115612f9257600080fd5b818501915085601f830112612fa657600080fd5b813581811115612fb557600080fd5b866020828501011115612fc757600080fd5b60209290920196919550909350505050565b600080600060608486031215612fee57600080fd5b612ff784612bbc565b95602085013595506040909401359392505050565b8015158114610f8d57600080fd5b6000806040838503121561302d57600080fd5b61303683612bbc565b91506020830135612c108161300c565b634e487b7160e01b600052604160045260246000fd5b60006001600160401b038084111561307657613076613046565b604051601f8501601f19908116603f0116810190828211818310171561309e5761309e613046565b816040528093508581528686860111156130b757600080fd5b858560208301376000602087830101525050509392505050565b600080600080608085870312156130e757600080fd5b6130f085612bbc565b93506130fe60208601612bbc565b92506040850135915060608501356001600160401b0381111561312057600080fd5b8501601f8101871361313157600080fd5b6131408782356020840161305c565b91505092959194509250565b6000806040838503121561315f57600080fd5b61316883612da7565b915060208301356001600160401b0381111561318357600080fd5b8301601f8101851361319457600080fd5b6131a38582356020840161305c565b9150509250929050565b60808101610be38284612e59565b6000602082840312156131cd57600080fd5b81356003811061157257600080fd5b600080604083850312156131ef57600080fd5b6131f883612bbc565b9150612d6660208401612bbc565b60006020828403121561321857600080fd5b81516115728161300c565b600181811c9082168061323757607f821691505b60208210810361195c57634e487b7160e01b600052602260045260246000fd5b634e487b7160e01b600052601160045260246000fd5b8082028115828204841417610be357610be3613257565b6000826132a157634e487b7160e01b600052601260045260246000fd5b500490565b634e487b7160e01b600052603260045260246000fd5b601f821115610bfe57600081815260208120601f850160051c810160208610156132e35750805b601f850160051c820191505b81811015611ee3578281556001016132ef565b6001600160401b0383111561331957613319613046565b61332d836133278354613223565b836132bc565b6000601f84116001811461336157600085156133495750838201355b600019600387901b1c1916600186901b178355610c90565b600083815260209020601f19861690835b828110156133925786850135825560209485019460019092019101613372565b50868210156133af5760001960f88860031b161c19848701351681555b505060018560011b0183555050505050565b81516001600160401b038111156133da576133da613046565b6133ee816133e88454613223565b846132bc565b602080601f831160018114613423576000841561340b5750858301515b600019600386901b1c1916600185901b178555611ee3565b600085815260208120601f198616915b8281101561345257888601518255948401946001909101908401613433565b50858210156134705787850151600019600388901b60f8161c191681555b5050505050600190811b01905550565b60008351613492818460208801612c45565b8351908301906134a6818360208801612c45565b64173539b7b760d91b9101908152600501949350505050565b80820180821115610be357610be3613257565b7f416363657373436f6e74726f6c3a206163636f756e742000000000000000000081526000835161350a816017850160208801612c45565b7001034b99036b4b9b9b4b733903937b6329607d1b601791840191820152835161353b816028840160208801612c45565b01602801949350505050565b6001600160a01b038581168252841660208201526040810183905260806060820181905260009061357a90830184612c69565b9695505050505050565b60006020828403121561359657600080fd5b815161157281612b89565b6000816135b0576135b0613257565b506000190190565b6000600182016135ca576135ca613257565b506001019056feddf252ad1be2c89b69c2b068fc378daa952ba7f163c4a11628f55a4df523b3efa2646970667358221220bfa097ddaf1639451ae5210bd1b1d6dd53119ccff725abd0565be542672993a064736f6c63430008120033",
    "linkReferences": {},
    "deployedLinkReferences": {}
}