{
  "_format": "hh-sol-artifact-1",
  "contractName": "Lottery",
  "sourceName": "contracts/Lottery.sol",
  "abi": [
    {
      "inputs": [],
      "stateMutability": "nonpayable",
      "type": "constructor"
    },
    {
      "inputs": [],
      "name": "AccessControlBadConfirmation",
      "type": "error"
    },
    {
      "inputs": [
        {
          "internalType": "address",
          "name": "account",
          "type": "address"
        },
        {
          "internalType": "bytes32",
          "name": "neededRole",
          "type": "bytes32"
        }
      ],
      "name": "AccessControlUnauthorizedAccount",
      "type": "error"
    },
    {
      "inputs": [
        {
          "internalType": "uint256",
          "name": "drawId",
          "type": "uint256"
        },
        {
          "internalType": "address",
          "name": "winner",
          "type": "address"
        }
      ],
      "name": "AlreadyClaimedWinnings",
      "type": "error"
    },
    {
      "inputs": [
        {
          "internalType": "address",
          "name": "winner",
          "type": "address"
        },
        {
          "internalType": "uint256",
          "name": "prize",
          "type": "uint256"
        }
      ],
      "name": "FailedSendingPrize",
      "type": "error"
    },
    {
      "inputs": [
        {
          "internalType": "uint256",
          "name": "contractBalance",
          "type": "uint256"
        },
        {
          "internalType": "uint256",
          "name": "prize",
          "type": "uint256"
        }
      ],
      "name": "InsufficientContractBalance",
      "type": "error"
    },
    {
      "inputs": [
        {
          "internalType": "uint256",
          "name": "drawId",
          "type": "uint256"
        }
      ],
      "name": "InvalidDrawId",
      "type": "error"
    },
    {
      "inputs": [
        {
          "internalType": "address",
          "name": "recoveredAddress",
          "type": "address"
        }
      ],
      "name": "InvalidRecoveredAddress",
      "type": "error"
    },
    {
      "inputs": [
        {
          "internalType": "uint256",
          "name": "drawId",
          "type": "uint256"
        },
        {
          "internalType": "address",
          "name": "caller",
          "type": "address"
        }
      ],
      "name": "NotDrawWinner",
      "type": "error"
    },
    {
      "inputs": [
        {
          "internalType": "address",
          "name": "caller",
          "type": "address"
        }
      ],
      "name": "NotTicketOwner",
      "type": "error"
    },
    {
      "inputs": [
        {
          "internalType": "address",
          "name": "caller",
          "type": "address"
        }
      ],
      "name": "NotTicketOwnerOrAdmin",
      "type": "error"
    },
    {
      "inputs": [],
      "name": "ReentrancyGuardReentrantCall",
      "type": "error"
    },
    {
      "anonymous": false,
      "inputs": [
        {
          "indexed": false,
          "internalType": "uint256",
          "name": "drawId",
          "type": "uint256"
        },
        {
          "indexed": false,
          "internalType": "bytes32",
          "name": "revealedServerSeed",
          "type": "bytes32"
        },
        {
          "indexed": false,
          "internalType": "bytes32",
          "name": "clientSeed",
          "type": "bytes32"
        },
        {
          "indexed": false,
          "internalType": "bytes32",
          "name": "merkleRoot",
          "type": "bytes32"
        },
        {
          "indexed": false,
          "internalType": "uint88",
          "name": "packedData",
          "type": "uint88"
        }
      ],
      "name": "FinalizeDraw",
      "type": "event"
    },
    {
      "anonymous": false,
      "inputs": [
        {
          "indexed": true,
          "internalType": "bytes32",
          "name": "role",
          "type": "bytes32"
        },
        {
          "indexed": true,
          "internalType": "bytes32",
          "name": "previousAdminRole",
          "type": "bytes32"
        },
        {
          "indexed": true,
          "internalType": "bytes32",
          "name": "newAdminRole",
          "type": "bytes32"
        }
      ],
      "name": "RoleAdminChanged",
      "type": "event"
    },
    {
      "anonymous": false,
      "inputs": [
        {
          "indexed": true,
          "internalType": "bytes32",
          "name": "role",
          "type": "bytes32"
        },
        {
          "indexed": true,
          "internalType": "address",
          "name": "account",
          "type": "address"
        },
        {
          "indexed": true,
          "internalType": "address",
          "name": "sender",
          "type": "address"
        }
      ],
      "name": "RoleGranted",
      "type": "event"
    },
    {
      "anonymous": false,
      "inputs": [
        {
          "indexed": true,
          "internalType": "bytes32",
          "name": "role",
          "type": "bytes32"
        },
        {
          "indexed": true,
          "internalType": "address",
          "name": "account",
          "type": "address"
        },
        {
          "indexed": true,
          "internalType": "address",
          "name": "sender",
          "type": "address"
        }
      ],
      "name": "RoleRevoked",
      "type": "event"
    },
    {
      "anonymous": false,
      "inputs": [
        {
          "indexed": false,
          "internalType": "uint256",
          "name": "drawId",
          "type": "uint256"
        },
        {
          "indexed": false,
          "internalType": "bytes32",
          "name": "merkleRoot",
          "type": "bytes32"
        }
      ],
      "name": "SetDrawMerkleRoot",
      "type": "event"
    },
    {
      "anonymous": false,
      "inputs": [
        {
          "indexed": false,
          "internalType": "uint256",
          "name": "drawId",
          "type": "uint256"
        },
        {
          "indexed": false,
          "internalType": "address",
          "name": "winner",
          "type": "address"
        }
      ],
      "name": "WinningsClaimed",
      "type": "event"
    },
    {
      "inputs": [],
      "name": "DEFAULT_ADMIN_ROLE",
      "outputs": [
        {
          "internalType": "bytes32",
          "name": "",
          "type": "bytes32"
        }
      ],
      "stateMutability": "view",
      "type": "function"
    },
    {
      "inputs": [
        {
          "internalType": "address",
          "name": "user",
          "type": "address"
        },
        {
          "internalType": "uint256",
          "name": "drawId",
          "type": "uint256"
        }
      ],
      "name": "checkWinningsClaimed",
      "outputs": [
        {
          "internalType": "bool",
          "name": "",
          "type": "bool"
        }
      ],
      "stateMutability": "view",
      "type": "function"
    },
    {
      "inputs": [
        {
          "internalType": "uint256",
          "name": "drawId",
          "type": "uint256"
        },
        {
          "internalType": "uint256",
          "name": "prize",
          "type": "uint256"
        },
        {
          "internalType": "bytes32[]",
          "name": "proof",
          "type": "bytes32[]"
        }
      ],
      "name": "claimWinnings",
      "outputs": [],
      "stateMutability": "nonpayable",
      "type": "function"
    },
    {
      "inputs": [],
      "name": "currentDrawId",
      "outputs": [
        {
          "internalType": "uint256",
          "name": "",
          "type": "uint256"
        }
      ],
      "stateMutability": "view",
      "type": "function"
    },
    {
      "inputs": [
        {
          "internalType": "bytes32",
          "name": "revealedServerSeed",
          "type": "bytes32"
        },
        {
          "internalType": "bytes32",
          "name": "clientSeed",
          "type": "bytes32"
        },
        {
          "internalType": "bytes32",
          "name": "merkleRoot",
          "type": "bytes32"
        },
        {
          "internalType": "uint88",
          "name": "packedData",
          "type": "uint88"
        }
      ],
      "name": "finalizeDraw",
      "outputs": [],
      "stateMutability": "nonpayable",
      "type": "function"
    },
    {
      "inputs": [
        {
          "internalType": "uint256",
          "name": "drawId",
          "type": "uint256"
        }
      ],
      "name": "getDrawData",
      "outputs": [
        {
          "internalType": "uint256",
          "name": "",
          "type": "uint256"
        },
        {
          "internalType": "bytes32",
          "name": "",
          "type": "bytes32"
        },
        {
          "internalType": "uint88[6]",
          "name": "",
          "type": "uint88[6]"
        },
        {
          "internalType": "uint256",
          "name": "",
          "type": "uint256"
        }
      ],
      "stateMutability": "view",
      "type": "function"
    },
    {
      "inputs": [
        {
          "internalType": "bytes32",
          "name": "role",
          "type": "bytes32"
        }
      ],
      "name": "getRoleAdmin",
      "outputs": [
        {
          "internalType": "bytes32",
          "name": "",
          "type": "bytes32"
        }
      ],
      "stateMutability": "view",
      "type": "function"
    },
    {
      "inputs": [
        {
          "internalType": "bytes32",
          "name": "role",
          "type": "bytes32"
        },
        {
          "internalType": "address",
          "name": "account",
          "type": "address"
        }
      ],
      "name": "grantRole",
      "outputs": [],
      "stateMutability": "nonpayable",
      "type": "function"
    },
    {
      "inputs": [
        {
          "internalType": "bytes32",
          "name": "role",
          "type": "bytes32"
        },
        {
          "internalType": "address",
          "name": "account",
          "type": "address"
        }
      ],
      "name": "hasRole",
      "outputs": [
        {
          "internalType": "bool",
          "name": "",
          "type": "bool"
        }
      ],
      "stateMutability": "view",
      "type": "function"
    },
    {
      "inputs": [
        {
          "internalType": "bytes32",
          "name": "role",
          "type": "bytes32"
        },
        {
          "internalType": "address",
          "name": "callerConfirmation",
          "type": "address"
        }
      ],
      "name": "renounceRole",
      "outputs": [],
      "stateMutability": "nonpayable",
      "type": "function"
    },
    {
      "inputs": [
        {
          "internalType": "bytes32",
          "name": "role",
          "type": "bytes32"
        },
        {
          "internalType": "address",
          "name": "account",
          "type": "address"
        }
      ],
      "name": "revokeRole",
      "outputs": [],
      "stateMutability": "nonpayable",
      "type": "function"
    },
    {
      "inputs": [
        {
          "internalType": "uint256",
          "name": "drawId",
          "type": "uint256"
        },
        {
          "internalType": "bytes32",
          "name": "merkleRoot",
          "type": "bytes32"
        }
      ],
      "name": "setDrawMerkleRoot",
      "outputs": [],
      "stateMutability": "nonpayable",
      "type": "function"
    },
    {
      "inputs": [
        {
          "internalType": "bytes4",
          "name": "interfaceId",
          "type": "bytes4"
        }
      ],
      "name": "supportsInterface",
      "outputs": [
        {
          "internalType": "bool",
          "name": "",
          "type": "bool"
        }
      ],
      "stateMutability": "view",
      "type": "function"
    }
  ],
  "bytecode": "0x60806040523461002b576001805561001633610030565b506001600355604051610b7890816100c18239f35b600080fd5b6001600160a01b031660008181527fad3228b676f7d3cd4284a5443f17f1962b36e491b30a40b2405849e597ba5fb5602052604081205490919060ff166100bc57818052816020526040822081835260205260408220600160ff1982541617905533917f2f8788117e7eff1d82e926ec794901d17c78024a50270940304540a733656f0d8180a4600190565b509056fe60806040908082526004918236101561001757600080fd5b600091823560e01c90816301ffc9a7146108bd57508063248a9ca3146108935780632f2ff15d1461086957806334c05e511461055757806336568abe146105125780633cf1926b146103a2578063899b16171461035457806391d148541461030e578063a217fddf146102f4578063bca78fab146102d6578063cd42e7d114610178578063d547741f146101355763ee544d46146100b457600080fd5b3461013157806003193601126101315782356024356100d16109d1565b600019820182811161011e577ff7cb35d17bfa7c61c36033a36220e6c5688612c01cf31258b8b5fde7eb8fa258949550600361010d8392610980565b50015582519182526020820152a180f35b634e487b7160e01b855260118652602485fd5b5080fd5b50829034610174578060031936011261017457610170913561016b600161015a610911565b938387528660205286200154610a29565b610acd565b5080f35b8280fd5b5034610131576080366003190112610131578235602435604435606435916affffffffffffffffffffff8084168094036102d2576101b46109d1565b600354908651916101c48361092c565b8252602082019186835287810184815260608201908682526080830194888652600254680100000000000000008110156102be578060016102089201600255610980565b9490946102ab57518455516001840155516002830155516003808301919091559251908a0180546affffffffffffffffffffff191691909216179055548551818152602081019590955294840152606083015260808201527f3cb1d91e37bfea39428c19aea8de9435085e5266a5e9bca6ff63832aad3e35379060a090a160001981146102985760010160035580f35b506011602492634e487b7160e01b835252fd5b50634e487b7160e01b8c528b8d5260248cfd5b50634e487b7160e01b8c5260418d5260248cfd5b8680fd5b50346101315781600319360112610131576020906003549051908152f35b503461013157816003193601126101315751908152602090f35b5082346101745781600319360112610174578160209360ff9261032f610911565b903582528186528282206001600160a01b039091168252855220549151911615158152f35b50823461017457816003193601126101745780356001600160a01b038116919082900361039e5760209360ff92849260243583528652828220908252855220541690519015158152f35b8380fd5b50903461050f576020928360031936011261013157825167ffffffffffffffff949082359060c08101878111828210176104fc57865260c09036903760001981019081116104e9576103f390610980565b50928451926104018461092c565b845495868552600195600181015485870152600281015482870152826003820154918260608901520154986affffffffffffffffffffff966080888c1691015260ff9083519460c0860191868310908311176104d657508352898116845260088a901c81168685015260108a901c81168484015260188a901c8116606085015289861c8116608085015260288a901c1660a084015281519788528785015286015b600683106104c1576101208764ffffffffff8a60301c16610100820152f35b815185168152918501919083019083016104a2565b634e487b7160e01b875260419052602486fd5b634e487b7160e01b845260118352602484fd5b634e487b7160e01b865260418552602486fd5b80fd5b503461013157806003193601126101315761052b610911565b90336001600160a01b038316036105485750610170919235610acd565b5163334bd91960e11b81528390fd5b508290346101745760603660031901126101745767ffffffffffffffff9160443590803560248035908685116108655736602386011215610865578484013596808811610853576005978060051b966020978951926105b88a83018561095e565b835284898401918301019136831161084f57858a9101915b83831061083f575050505060019860028a541461082f5760028a5560035486118015610827575b61081157858b52868852888b20338c52885260ff898c2054166107f0578851888101903360601b82528660348201526034815260608101818110868211176107de578b525190209160001987018781116107cc578b918d938c600361065c8695610980565b500154969580955b61077b575b505050505050036107575782471061073b578880808086335af1903d15610735573d908111610723578751906106a8601f8201601f191689018361095e565b815289873d92013e5b1561070657505083518181523360208201527f941d61efba8b35f6d6846e4660c647a22d43a723e09a5019de1014965142984990604090a18552815281842033855290528220805460ff191682179055805580f35b8551633543347f60e01b8152339481019490945283015250604490fd5b634e487b7160e01b8a5260418652828afd5b506106b1565b865163b7ddd88b60e01b81524781870152808301849052604490fd5b505084516307af980d60e41b81529283019182525033602082015281906040010390fd5b9091929394958d85518810156107bf5790818794939289871b88010151918281106000146107b557835252205b94019291908c8f84610664565b91835252206107a8565b5095508493508190610669565b634e487b7160e01b8d5260118952858dfd5b634e487b7160e01b8e5260418a52868efd5b8851632024fd4360e01b815280880187815233602082015281906040010390fd5b8851635f5a8be360e01b81528088018790528490fd5b5085156105f7565b8851633ee5aeb560e01b81528790fd5b82358152918101918a91016105d0565b8c80fd5b50634e487b7160e01b88526041845287fd5b8780fd5b50829034610174578060031936011261017457610170913561088e600161015a610911565b610a4f565b50823461017457602036600319011261017457816020936001923581528085522001549051908152f35b83908534610174576020366003190112610174573563ffffffff60e01b81168091036101745760209250637965db0b60e01b8114908115610900575b5015158152f35b6301ffc9a760e01b149050836108f9565b602435906001600160a01b038216820361092757565b600080fd5b60a0810190811067ffffffffffffffff82111761094857604052565b634e487b7160e01b600052604160045260246000fd5b90601f8019910116810190811067ffffffffffffffff82111761094857604052565b6002548110156109bb576005906002600052027f405787fa12a823e0f2b7631cc41b3ba8828b3321ca811111fa75cd3aa3bb5ace0190600090565b634e487b7160e01b600052603260045260246000fd5b3360009081527fad3228b676f7d3cd4284a5443f17f1962b36e491b30a40b2405849e597ba5fb5602052604081205460ff1615610a0b5750565b6044906040519063e2517d3f60e01b82523360048301526024820152fd5b80600052600060205260406000203360005260205260ff6040600020541615610a0b5750565b9060009180835282602052604083209160018060a01b03169182845260205260ff60408420541615600014610ac857808352826020526040832082845260205260408320600160ff198254161790557f2f8788117e7eff1d82e926ec794901d17c78024a50270940304540a733656f0d339380a4600190565b505090565b9060009180835282602052604083209160018060a01b03169182845260205260ff604084205416600014610ac85780835282602052604083208284526020526040832060ff1981541690557ff6391f5c32d9c69d2a47ea670b442974b53935d1edc7fd64eb21e047a839171b339380a460019056fea2646970667358221220e3643c4a268fb34734b4345a1649e4342da54ab7cfdc43f05a29f56ec14b10bb64736f6c63430008180033",
  "linkReferences": {},
  "deployedLinkReferences": {}
}