{
    "_format": "hh-sol-artifact-1",
    "contractName": "SuperiorKeychain",
    "sourceName": "contracts/implementation/SuperiorKeychain.sol",
    "abi": [
        {
            "inputs": [],
            "stateMutability": "nonpayable",
            "type": "constructor"
        },
        {
            "inputs": [],
            "name": "ApprovalCallerNotOwnerNorApproved",
            "type": "error"
        },
        {
            "inputs": [],
            "name": "ApprovalQueryForNonexistentToken",
            "type": "error"
        },
        {
            "inputs": [],
            "name": "BalanceQueryForZeroAddress",
            "type": "error"
        },
        {
            "inputs": [],
            "name": "InvalidQueryRange",
            "type": "error"
        },
        {
            "inputs": [],
            "name": "MintERC2309QuantityExceedsLimit",
            "type": "error"
        },
        {
            "inputs": [],
            "name": "MintToZeroAddress",
            "type": "error"
        },
        {
            "inputs": [],
            "name": "MintZeroQuantity",
            "type": "error"
        },
        {
            "inputs": [
                {
                    "internalType": "address",
                    "name": "operator",
                    "type": "address"
                }
            ],
            "name": "OperatorNotAllowed",
            "type": "error"
        },
        {
            "inputs": [],
            "name": "OwnerQueryForNonexistentToken",
            "type": "error"
        },
        {
            "inputs": [],
            "name": "OwnershipNotInitializedForExtraData",
            "type": "error"
        },
        {
            "inputs": [],
            "name": "TransferCallerNotOwnerNorApproved",
            "type": "error"
        },
        {
            "inputs": [],
            "name": "TransferFromIncorrectOwner",
            "type": "error"
        },
        {
            "inputs": [],
            "name": "TransferToNonERC721ReceiverImplementer",
            "type": "error"
        },
        {
            "inputs": [],
            "name": "TransferToZeroAddress",
            "type": "error"
        },
        {
            "inputs": [],
            "name": "URIQueryForNonexistentToken",
            "type": "error"
        },
        {
            "anonymous": false,
            "inputs": [
                {
                    "indexed": true,
                    "internalType": "address",
                    "name": "owner",
                    "type": "address"
                },
                {
                    "indexed": true,
                    "internalType": "address",
                    "name": "approved",
                    "type": "address"
                },
                {
                    "indexed": true,
                    "internalType": "uint256",
                    "name": "tokenId",
                    "type": "uint256"
                }
            ],
            "name": "Approval",
            "type": "event"
        },
        {
            "anonymous": false,
            "inputs": [
                {
                    "indexed": true,
                    "internalType": "address",
                    "name": "owner",
                    "type": "address"
                },
                {
                    "indexed": true,
                    "internalType": "address",
                    "name": "operator",
                    "type": "address"
                },
                {
                    "indexed": false,
                    "internalType": "bool",
                    "name": "approved",
                    "type": "bool"
                }
            ],
            "name": "ApprovalForAll",
            "type": "event"
        },
        {
            "anonymous": false,
            "inputs": [
                {
                    "indexed": true,
                    "internalType": "uint256",
                    "name": "fromTokenId",
                    "type": "uint256"
                },
                {
                    "indexed": false,
                    "internalType": "uint256",
                    "name": "toTokenId",
                    "type": "uint256"
                },
                {
                    "indexed": true,
                    "internalType": "address",
                    "name": "from",
                    "type": "address"
                },
                {
                    "indexed": true,
                    "internalType": "address",
                    "name": "to",
                    "type": "address"
                }
            ],
            "name": "ConsecutiveTransfer",
            "type": "event"
        },
        {
            "anonymous": false,
            "inputs": [
                {
                    "indexed": true,
                    "internalType": "bytes32",
                    "name": "role",
                    "type": "bytes32"
                },
                {
                    "indexed": true,
                    "internalType": "bytes32",
                    "name": "previousAdminRole",
                    "type": "bytes32"
                },
                {
                    "indexed": true,
                    "internalType": "bytes32",
                    "name": "newAdminRole",
                    "type": "bytes32"
                }
            ],
            "name": "RoleAdminChanged",
            "type": "event"
        },
        {
            "anonymous": false,
            "inputs": [
                {
                    "indexed": true,
                    "internalType": "bytes32",
                    "name": "role",
                    "type": "bytes32"
                },
                {
                    "indexed": true,
                    "internalType": "address",
                    "name": "account",
                    "type": "address"
                },
                {
                    "indexed": true,
                    "internalType": "address",
                    "name": "sender",
                    "type": "address"
                }
            ],
            "name": "RoleGranted",
            "type": "event"
        },
        {
            "anonymous": false,
            "inputs": [
                {
                    "indexed": true,
                    "internalType": "bytes32",
                    "name": "role",
                    "type": "bytes32"
                },
                {
                    "indexed": true,
                    "internalType": "address",
                    "name": "account",
                    "type": "address"
                },
                {
                    "indexed": true,
                    "internalType": "address",
                    "name": "sender",
                    "type": "address"
                }
            ],
            "name": "RoleRevoked",
            "type": "event"
        },
        {
            "anonymous": false,
            "inputs": [
                {
                    "indexed": true,
                    "internalType": "address",
                    "name": "from",
                    "type": "address"
                },
                {
                    "indexed": true,
                    "internalType": "address",
                    "name": "to",
                    "type": "address"
                },
                {
                    "indexed": true,
                    "internalType": "uint256",
                    "name": "tokenId",
                    "type": "uint256"
                }
            ],
            "name": "Transfer",
            "type": "event"
        },
        {
            "inputs": [],
            "name": "DEFAULT_ADMIN_ROLE",
            "outputs": [
                {
                    "internalType": "bytes32",
                    "name": "",
                    "type": "bytes32"
                }
            ],
            "stateMutability": "view",
            "type": "function"
        },
        {
            "inputs": [],
            "name": "OPERATOR_FILTER_REGISTRY",
            "outputs": [
                {
                    "internalType": "contract IOperatorFilterRegistry",
                    "name": "",
                    "type": "address"
                }
            ],
            "stateMutability": "view",
            "type": "function"
        },
        {
            "inputs": [
                {
                    "internalType": "address",
                    "name": "_operator",
                    "type": "address"
                },
                {
                    "internalType": "uint256",
                    "name": "_tokenId",
                    "type": "uint256"
                }
            ],
            "name": "approve",
            "outputs": [],
            "stateMutability": "payable",
            "type": "function"
        },
        {
            "inputs": [
                {
                    "internalType": "address",
                    "name": "owner",
                    "type": "address"
                }
            ],
            "name": "balanceOf",
            "outputs": [
                {
                    "internalType": "uint256",
                    "name": "",
                    "type": "uint256"
                }
            ],
            "stateMutability": "view",
            "type": "function"
        },
        {
            "inputs": [
                {
                    "internalType": "uint256",
                    "name": "tokenId",
                    "type": "uint256"
                }
            ],
            "name": "burn",
            "outputs": [],
            "stateMutability": "nonpayable",
            "type": "function"
        },
        {
            "inputs": [
                {
                    "internalType": "uint16",
                    "name": "_max",
                    "type": "uint16"
                }
            ],
            "name": "changeMaxSupply",
            "outputs": [],
            "stateMutability": "nonpayable",
            "type": "function"
        },
        {
            "inputs": [],
            "name": "contractURI",
            "outputs": [
                {
                    "internalType": "string",
                    "name": "",
                    "type": "string"
                }
            ],
            "stateMutability": "view",
            "type": "function"
        },
        {
            "inputs": [
                {
                    "internalType": "address[]",
                    "name": "_to",
                    "type": "address[]"
                },
                {
                    "internalType": "uint16[]",
                    "name": "_tokenAmts",
                    "type": "uint16[]"
                }
            ],
            "name": "devMintExt",
            "outputs": [],
            "stateMutability": "nonpayable",
            "type": "function"
        },
        {
            "inputs": [
                {
                    "internalType": "uint256",
                    "name": "_tokenId",
                    "type": "uint256"
                }
            ],
            "name": "exists",
            "outputs": [
                {
                    "internalType": "bool",
                    "name": "",
                    "type": "bool"
                }
            ],
            "stateMutability": "view",
            "type": "function"
        },
        {
            "inputs": [
                {
                    "internalType": "uint256",
                    "name": "tokenId",
                    "type": "uint256"
                }
            ],
            "name": "explicitOwnershipOf",
            "outputs": [
                {
                    "components": [
                        {
                            "internalType": "address",
                            "name": "addr",
                            "type": "address"
                        },
                        {
                            "internalType": "uint64",
                            "name": "startTimestamp",
                            "type": "uint64"
                        },
                        {
                            "internalType": "bool",
                            "name": "burned",
                            "type": "bool"
                        },
                        {
                            "internalType": "uint24",
                            "name": "extraData",
                            "type": "uint24"
                        }
                    ],
                    "internalType": "struct IERC721A.TokenOwnership",
                    "name": "",
                    "type": "tuple"
                }
            ],
            "stateMutability": "view",
            "type": "function"
        },
        {
            "inputs": [
                {
                    "internalType": "uint256[]",
                    "name": "tokenIds",
                    "type": "uint256[]"
                }
            ],
            "name": "explicitOwnershipsOf",
            "outputs": [
                {
                    "components": [
                        {
                            "internalType": "address",
                            "name": "addr",
                            "type": "address"
                        },
                        {
                            "internalType": "uint64",
                            "name": "startTimestamp",
                            "type": "uint64"
                        },
                        {
                            "internalType": "bool",
                            "name": "burned",
                            "type": "bool"
                        },
                        {
                            "internalType": "uint24",
                            "name": "extraData",
                            "type": "uint24"
                        }
                    ],
                    "internalType": "struct IERC721A.TokenOwnership[]",
                    "name": "",
                    "type": "tuple[]"
                }
            ],
            "stateMutability": "view",
            "type": "function"
        },
        {
            "inputs": [
                {
                    "internalType": "uint256",
                    "name": "tokenId",
                    "type": "uint256"
                }
            ],
            "name": "getApproved",
            "outputs": [
                {
                    "internalType": "address",
                    "name": "",
                    "type": "address"
                }
            ],
            "stateMutability": "view",
            "type": "function"
        },
        {
            "inputs": [
                {
                    "internalType": "address",
                    "name": "_owner",
                    "type": "address"
                }
            ],
            "name": "getAux",
            "outputs": [
                {
                    "internalType": "uint64",
                    "name": "",
                    "type": "uint64"
                }
            ],
            "stateMutability": "view",
            "type": "function"
        },
        {
            "inputs": [
                {
                    "internalType": "bytes32",
                    "name": "role",
                    "type": "bytes32"
                }
            ],
            "name": "getRoleAdmin",
            "outputs": [
                {
                    "internalType": "bytes32",
                    "name": "",
                    "type": "bytes32"
                }
            ],
            "stateMutability": "view",
            "type": "function"
        },
        {
            "inputs": [
                {
                    "internalType": "bytes32",
                    "name": "role",
                    "type": "bytes32"
                },
                {
                    "internalType": "address",
                    "name": "account",
                    "type": "address"
                }
            ],
            "name": "grantRole",
            "outputs": [],
            "stateMutability": "nonpayable",
            "type": "function"
        },
        {
            "inputs": [
                {
                    "internalType": "bytes32",
                    "name": "role",
                    "type": "bytes32"
                },
                {
                    "internalType": "address",
                    "name": "account",
                    "type": "address"
                }
            ],
            "name": "hasRole",
            "outputs": [
                {
                    "internalType": "bool",
                    "name": "",
                    "type": "bool"
                }
            ],
            "stateMutability": "view",
            "type": "function"
        },
        {
            "inputs": [
                {
                    "internalType": "address",
                    "name": "owner",
                    "type": "address"
                },
                {
                    "internalType": "address",
                    "name": "operator",
                    "type": "address"
                }
            ],
            "name": "isApprovedForAll",
            "outputs": [
                {
                    "internalType": "bool",
                    "name": "",
                    "type": "bool"
                }
            ],
            "stateMutability": "view",
            "type": "function"
        },
        {
            "inputs": [],
            "name": "maxSupply",
            "outputs": [
                {
                    "internalType": "uint16",
                    "name": "",
                    "type": "uint16"
                }
            ],
            "stateMutability": "view",
            "type": "function"
        },
        {
            "inputs": [],
            "name": "name",
            "outputs": [
                {
                    "internalType": "string",
                    "name": "",
                    "type": "string"
                }
            ],
            "stateMutability": "view",
            "type": "function"
        },
        {
            "inputs": [],
            "name": "nextTokenId",
            "outputs": [
                {
                    "internalType": "uint256",
                    "name": "",
                    "type": "uint256"
                }
            ],
            "stateMutability": "view",
            "type": "function"
        },
        {
            "inputs": [
                {
                    "internalType": "address",
                    "name": "_owner",
                    "type": "address"
                }
            ],
            "name": "numberMinted",
            "outputs": [
                {
                    "internalType": "uint256",
                    "name": "",
                    "type": "uint256"
                }
            ],
            "stateMutability": "view",
            "type": "function"
        },
        {
            "inputs": [
                {
                    "internalType": "uint256",
                    "name": "tokenId",
                    "type": "uint256"
                }
            ],
            "name": "ownerOf",
            "outputs": [
                {
                    "internalType": "address",
                    "name": "",
                    "type": "address"
                }
            ],
            "stateMutability": "view",
            "type": "function"
        },
        {
            "inputs": [
                {
                    "internalType": "bytes32",
                    "name": "role",
                    "type": "bytes32"
                },
                {
                    "internalType": "address",
                    "name": "account",
                    "type": "address"
                }
            ],
            "name": "renounceRole",
            "outputs": [],
            "stateMutability": "nonpayable",
            "type": "function"
        },
        {
            "inputs": [
                {
                    "internalType": "bytes32",
                    "name": "role",
                    "type": "bytes32"
                },
                {
                    "internalType": "address",
                    "name": "account",
                    "type": "address"
                }
            ],
            "name": "revokeRole",
            "outputs": [],
            "stateMutability": "nonpayable",
            "type": "function"
        },
        {
            "inputs": [
                {
                    "internalType": "uint256",
                    "name": "_tokenId",
                    "type": "uint256"
                },
                {
                    "internalType": "uint256",
                    "name": "_salePrice",
                    "type": "uint256"
                }
            ],
            "name": "royaltyInfo",
            "outputs": [
                {
                    "internalType": "address",
                    "name": "",
                    "type": "address"
                },
                {
                    "internalType": "uint256",
                    "name": "",
                    "type": "uint256"
                }
            ],
            "stateMutability": "view",
            "type": "function"
        },
        {
            "inputs": [
                {
                    "internalType": "address",
                    "name": "_from",
                    "type": "address"
                },
                {
                    "internalType": "address",
                    "name": "_to",
                    "type": "address"
                },
                {
                    "internalType": "uint256",
                    "name": "_tokenId",
                    "type": "uint256"
                }
            ],
            "name": "safeTransferFrom",
            "outputs": [],
            "stateMutability": "payable",
            "type": "function"
        },
        {
            "inputs": [
                {
                    "internalType": "address",
                    "name": "_from",
                    "type": "address"
                },
                {
                    "internalType": "address",
                    "name": "_to",
                    "type": "address"
                },
                {
                    "internalType": "uint256",
                    "name": "_tokenId",
                    "type": "uint256"
                },
                {
                    "internalType": "bytes",
                    "name": "_data",
                    "type": "bytes"
                }
            ],
            "name": "safeTransferFrom",
            "outputs": [],
            "stateMutability": "payable",
            "type": "function"
        },
        {
            "inputs": [
                {
                    "internalType": "address",
                    "name": "_operator",
                    "type": "address"
                },
                {
                    "internalType": "bool",
                    "name": "_approved",
                    "type": "bool"
                }
            ],
            "name": "setApprovalForAll",
            "outputs": [],
            "stateMutability": "nonpayable",
            "type": "function"
        },
        {
            "inputs": [
                {
                    "internalType": "address",
                    "name": "_owner",
                    "type": "address"
                },
                {
                    "internalType": "uint64",
                    "name": "_aux",
                    "type": "uint64"
                }
            ],
            "name": "setAux",
            "outputs": [],
            "stateMutability": "nonpayable",
            "type": "function"
        },
        {
            "inputs": [
                {
                    "internalType": "string",
                    "name": "_uri",
                    "type": "string"
                }
            ],
            "name": "setBaseURI",
            "outputs": [],
            "stateMutability": "nonpayable",
            "type": "function"
        },
        {
            "inputs": [
                {
                    "internalType": "string",
                    "name": "contractURI_",
                    "type": "string"
                }
            ],
            "name": "setContractURI",
            "outputs": [],
            "stateMutability": "nonpayable",
            "type": "function"
        },
        {
            "inputs": [
                {
                    "internalType": "address",
                    "name": "_receiver",
                    "type": "address"
                },
                {
                    "internalType": "uint96",
                    "name": "_feeNumerator",
                    "type": "uint96"
                }
            ],
            "name": "setDefaultRoyalty",
            "outputs": [],
            "stateMutability": "nonpayable",
            "type": "function"
        },
        {
            "inputs": [
                {
                    "internalType": "bytes4",
                    "name": "interfaceId",
                    "type": "bytes4"
                }
            ],
            "name": "supportsInterface",
            "outputs": [
                {
                    "internalType": "bool",
                    "name": "",
                    "type": "bool"
                }
            ],
            "stateMutability": "view",
            "type": "function"
        },
        {
            "inputs": [],
            "name": "symbol",
            "outputs": [
                {
                    "internalType": "string",
                    "name": "",
                    "type": "string"
                }
            ],
            "stateMutability": "view",
            "type": "function"
        },
        {
            "inputs": [
                {
                    "internalType": "uint256",
                    "name": "_tokenId",
                    "type": "uint256"
                }
            ],
            "name": "tokenURI",
            "outputs": [
                {
                    "internalType": "string",
                    "name": "",
                    "type": "string"
                }
            ],
            "stateMutability": "view",
            "type": "function"
        },
        {
            "inputs": [
                {
                    "internalType": "address",
                    "name": "owner",
                    "type": "address"
                }
            ],
            "name": "tokensOfOwner",
            "outputs": [
                {
                    "internalType": "uint256[]",
                    "name": "",
                    "type": "uint256[]"
                }
            ],
            "stateMutability": "view",
            "type": "function"
        },
        {
            "inputs": [
                {
                    "internalType": "address",
                    "name": "owner",
                    "type": "address"
                },
                {
                    "internalType": "uint256",
                    "name": "start",
                    "type": "uint256"
                },
                {
                    "internalType": "uint256",
                    "name": "stop",
                    "type": "uint256"
                }
            ],
            "name": "tokensOfOwnerIn",
            "outputs": [
                {
                    "internalType": "uint256[]",
                    "name": "",
                    "type": "uint256[]"
                }
            ],
            "stateMutability": "view",
            "type": "function"
        },
        {
            "inputs": [],
            "name": "totalBurned",
            "outputs": [
                {
                    "internalType": "uint256",
                    "name": "",
                    "type": "uint256"
                }
            ],
            "stateMutability": "view",
            "type": "function"
        },
        {
            "inputs": [],
            "name": "totalMinted",
            "outputs": [
                {
                    "internalType": "uint256",
                    "name": "",
                    "type": "uint256"
                }
            ],
            "stateMutability": "view",
            "type": "function"
        },
        {
            "inputs": [],
            "name": "totalSupply",
            "outputs": [
                {
                    "internalType": "uint256",
                    "name": "",
                    "type": "uint256"
                }
            ],
            "stateMutability": "view",
            "type": "function"
        },
        {
            "inputs": [
                {
                    "internalType": "address",
                    "name": "_from",
                    "type": "address"
                },
                {
                    "internalType": "address",
                    "name": "_to",
                    "type": "address"
                },
                {
                    "internalType": "uint256",
                    "name": "_tokenId",
                    "type": "uint256"
                }
            ],
            "name": "transferFrom",
            "outputs": [],
            "stateMutability": "payable",
            "type": "function"
        },
        {
            "inputs": [],
            "name": "withdrawFunds",
            "outputs": [],
            "stateMutability": "nonpayable",
            "type": "function"
        },
        {
            "inputs": [
                {
                    "internalType": "address",
                    "name": "_tokenAddr",
                    "type": "address"
                },
                {
                    "internalType": "uint256",
                    "name": "_amount",
                    "type": "uint256"
                }
            ],
            "name": "withdrawTokens",
            "outputs": [],
            "stateMutability": "nonpayable",
            "type": "function"
        }
    ],
    "bytecode": "0x6080604052600b805461ffff191660781790553480156200001f57600080fd5b50733cc6cdda760b79bafa08df41ecfa224f810dceb660016040518060400160405280601181526020017029bab832b934b7b91025b2bcb1b430b4b760791b815250604051806040016040528060048152602001630a69686960e31b81525081600290816200008f91906200045e565b5060036200009e82826200045e565b50600160005550506daaeb6d7670e522a718067333cd4e3b15620001eb5780156200013957604051633e9f1edf60e11b81523060048201526001600160a01b03831660248201526daaeb6d7670e522a718067333cd4e90637d3e3dbe906044015b600060405180830381600087803b1580156200011a57600080fd5b505af11580156200012f573d6000803e3d6000fd5b50505050620001eb565b6001600160a01b038216156200018a5760405163a0af290360e01b81523060048201526001600160a01b03831660248201526daaeb6d7670e522a718067333cd4e9063a0af290390604401620000ff565b604051632210724360e11b81523060048201526daaeb6d7670e522a718067333cd4e90634420e48690602401600060405180830381600087803b158015620001d157600080fd5b505af1158015620001e6573d6000803e3d6000fd5b505050505b50620001fb90506000336200020f565b62000209336101f4620002b4565b6200052a565b60008281526008602090815260408083206001600160a01b038516845290915290205460ff16620002b05760008281526008602090815260408083206001600160a01b03851684529091529020805460ff191660011790556200026f3390565b6001600160a01b0316816001600160a01b0316837f2f8788117e7eff1d82e926ec794901d17c78024a50270940304540a733656f0d60405160405180910390a45b5050565b6127106001600160601b0382161115620003285760405162461bcd60e51b815260206004820152602a60248201527f455243323938313a20726f79616c7479206665652077696c6c206578636565646044820152692073616c65507269636560b01b60648201526084015b60405180910390fd5b6001600160a01b038216620003805760405162461bcd60e51b815260206004820152601960248201527f455243323938313a20696e76616c69642072656365697665720000000000000060448201526064016200031f565b604080518082019091526001600160a01b039092168083526001600160601b039091166020909201829052600160a01b90910217600955565b634e487b7160e01b600052604160045260246000fd5b600181811c90821680620003e457607f821691505b6020821081036200040557634e487b7160e01b600052602260045260246000fd5b50919050565b601f8211156200045957600081815260208120601f850160051c81016020861015620004345750805b601f850160051c820191505b81811015620004555782815560010162000440565b5050505b505050565b81516001600160401b038111156200047a576200047a620003b9565b62000492816200048b8454620003cf565b846200040b565b602080601f831160018114620004ca5760008415620004b15750858301515b600019600386901b1c1916600185901b17855562000455565b600085815260208120601f198616915b82811015620004fb57888601518255948401946001909101908401620004da565b50858210156200051a5787850151600019600388901b60f8161c191681555b5050505050600190811b01905550565b612aad806200053a6000396000f3fe60806040526004361061025c5760003560e01c80636352211e11610144578063b88d4fde116100b6578063d547741f1161007a578063d547741f1461076e578063d5abeb011461078e578063d89135cd146107bc578063dc33e681146107d1578063e8a3d485146107f1578063e985e9c51461080657600080fd5b8063b88d4fde146106b6578063bf0b175e146106c9578063c23dc68f14610701578063c87b56dd1461072e578063ce8e1ad81461074e57600080fd5b8063938e3d7b11610108578063938e3d7b1461061357806395d89b411461063357806399a2557a14610648578063a217fddf14610668578063a22cb4651461067d578063a2309ff81461069d57600080fd5b80636352211e1461057157806370a082311461059157806375794a3c146105b15780638462151c146105c657806391d14854146105f357600080fd5b8063248a9ca3116101dd57806342842e0e116101a157806342842e0e1461048557806342966c6814610498578063453ab141146104b85780634f558e791461050457806355f804b3146105245780635bbb21771461054457600080fd5b8063248a9ca3146103b45780632a55205a146103e45780632f2ff15d1461042357806336568abe1461044357806341f434341461046357600080fd5b8063095ea7b311610224578063095ea7b31461033257806318160ddd14610345578063208c2d411461036c57806323b872dd1461038c57806324600fc31461039f57600080fd5b806301ffc9a71461026157806304634d8d1461029657806306b091f9146102b857806306fdde03146102d8578063081812fc146102fa575b600080fd5b34801561026d57600080fd5b5061028161027c3660046120b1565b61084f565b60405190151581526020015b60405180910390f35b3480156102a257600080fd5b506102b66102b13660046120ea565b6108bf565b005b3480156102c457600080fd5b506102b66102d336600461212d565b6108d9565b3480156102e457600080fd5b506102ed61096d565b60405161028d91906121a7565b34801561030657600080fd5b5061031a6103153660046121ba565b6109ff565b6040516001600160a01b03909116815260200161028d565b6102b661034036600461212d565b610a43565b34801561035157600080fd5b5060015460005403600019015b60405190815260200161028d565b34801561037857600080fd5b506102b66103873660046121d3565b610a57565b6102b661039a3660046121f7565b610ac7565b3480156103ab57600080fd5b506102b6610af2565b3480156103c057600080fd5b5061035e6103cf3660046121ba565b60009081526008602052604090206001015490565b3480156103f057600080fd5b506104046103ff366004612233565b610b2d565b604080516001600160a01b03909316835260208301919091520161028d565b34801561042f57600080fd5b506102b661043e366004612255565b610bdb565b34801561044f57600080fd5b506102b661045e366004612255565b610c00565b34801561046f57600080fd5b5061031a6daaeb6d7670e522a718067333cd4e81565b6102b66104933660046121f7565b610c7a565b3480156104a457600080fd5b506102b66104b33660046121ba565b610c9f565b3480156104c457600080fd5b506102b66104d3366004612281565b6001600160a01b0382166000908152600560205260409020805460c083901b6001600160c01b039091161790555050565b34801561051057600080fd5b5061028161051f3660046121ba565b610cad565b34801561053057600080fd5b506102b661053f366004612344565b610cb8565b34801561055057600080fd5b5061056461055f3660046123d0565b610ccf565b60405161028d919061244d565b34801561057d57600080fd5b5061031a61058c3660046121ba565b610d9a565b34801561059d57600080fd5b5061035e6105ac36600461248f565b610da5565b3480156105bd57600080fd5b5060005461035e565b3480156105d257600080fd5b506105e66105e136600461248f565b610df8565b60405161028d91906124aa565b3480156105ff57600080fd5b5061028161060e366004612255565b610f00565b34801561061f57600080fd5b506102b661062e3660046124e2565b610f2b565b34801561063f57600080fd5b506102ed610f43565b34801561065457600080fd5b506105e6610663366004612553565b610f52565b34801561067457600080fd5b5061035e600081565b34801561068957600080fd5b506102b6610698366004612594565b6110d9565b3480156106a957600080fd5b506000546000190161035e565b6102b66106c43660046125c0565b6110ed565b3480156106d557600080fd5b506106e96106e436600461248f565b611113565b6040516001600160401b03909116815260200161028d565b34801561070d57600080fd5b5061072161071c3660046121ba565b611134565b60405161028d919061263b565b34801561073a57600080fd5b506102ed6107493660046121ba565b6111bc565b34801561075a57600080fd5b506102b6610769366004612649565b6111c6565b34801561077a57600080fd5b506102b6610789366004612255565b6112f2565b34801561079a57600080fd5b50600b546107a99061ffff1681565b60405161ffff909116815260200161028d565b3480156107c857600080fd5b5061035e611317565b3480156107dd57600080fd5b5061035e6107ec36600461248f565b611322565b3480156107fd57600080fd5b506102ed61134c565b34801561081257600080fd5b506102816108213660046126b4565b6001600160a01b03918216600090815260076020908152604080832093909416825291909152205460ff1690565b60006001600160e01b03198216637965db0b60e01b148061087457506108748261135b565b8061088f57506001600160e01b0319821663152a902d60e11b145b806108aa57506001600160e01b031982166301ffc9a760e01b145b806108b957506108b9826113a9565b92915050565b60006108ca816113ce565b6108d483836113d8565b505050565b60006108e4816113ce565b826001600160a01b03811663a9059cbb336040516001600160e01b031960e084901b1681526001600160a01b039091166004820152602481018690526044016020604051808303816000875af1158015610942573d6000803e3d6000fd5b505050506040513d601f19601f8201168201806040525081019061096691906126de565b5050505050565b60606002805461097c906126fb565b80601f01602080910402602001604051908101604052809291908181526020018280546109a8906126fb565b80156109f55780601f106109ca576101008083540402835291602001916109f5565b820191906000526020600020905b8154815290600101906020018083116109d857829003601f168201915b5050505050905090565b6000610a0a826114d5565b610a27576040516333d1c03960e21b815260040160405180910390fd5b506000908152600660205260409020546001600160a01b031690565b81610a4d8161150a565b6108d483836115c3565b6000610a62816113ce565b600b546101be61ffff9091161115610aae5760405162461bcd60e51b8152600401610aa5906020808252600490820152634b43483160e01b604082015260600190565b60405180910390fd5b50600b805461ffff191661ffff92909216919091179055565b826001600160a01b0381163314610ae157610ae13361150a565b610aec848484611663565b50505050565b6000610afd816113ce565b60405133904780156108fc02916000818181858888f19350505050158015610b29573d6000803e3d6000fd5b5050565b6000828152600a602090815260408083208151808301909252546001600160a01b038116808352600160a01b9091046001600160601b0316928201929092528291610ba25750604080518082019091526009546001600160a01b0381168252600160a01b90046001600160601b031660208201525b602081015160009061271090610bc1906001600160601b03168761274b565b610bcb9190612762565b91519350909150505b9250929050565b600082815260086020526040902060010154610bf6816113ce565b6108d483836117f4565b6001600160a01b0381163314610c705760405162461bcd60e51b815260206004820152602f60248201527f416363657373436f6e74726f6c3a2063616e206f6e6c792072656e6f756e636560448201526e103937b632b9903337b91039b2b63360891b6064820152608401610aa5565b610b29828261187a565b826001600160a01b0381163314610c9457610c943361150a565b610aec8484846118e1565b610caa8160016118fc565b50565b60006108b9826114d5565b6000610cc3816113ce565b600d6108d483826127ca565b6060816000816001600160401b03811115610cec57610cec6122b9565b604051908082528060200260200182016040528015610d3e57816020015b604080516080810182526000808252602080830182905292820181905260608201528252600019909201910181610d0a5790505b50905060005b828114610d9157610d6c868683818110610d6057610d60612889565b90506020020135611134565b828281518110610d7e57610d7e612889565b6020908102919091010152600101610d44565b50949350505050565b60006108b982611a34565b60006001600160a01b038216610dce576040516323d3ad8160e21b815260040160405180910390fd5b506001600160a01b03166000908152600560205260409020546001600160401b031690565b905090565b60606000806000610e0885610da5565b90506000816001600160401b03811115610e2457610e246122b9565b604051908082528060200260200182016040528015610e4d578160200160208202803683370190505b509050610e7a60408051608081018252600080825260208201819052918101829052606081019190915290565b60015b838614610ef457610e8d81611aa3565b91508160400151610eec5781516001600160a01b031615610ead57815194505b876001600160a01b0316856001600160a01b031603610eec5780838780600101985081518110610edf57610edf612889565b6020026020010181815250505b600101610e7d565b50909695505050505050565b60009182526008602090815260408084206001600160a01b0393909316845291905290205460ff1690565b6000610f36816113ce565b600c610aec83858361289f565b60606003805461097c906126fb565b6060818310610f7457604051631960ccad60e11b815260040160405180910390fd5b600080610f8060005490565b90506001851015610f9057600194505b80841115610f9c578093505b6000610fa787610da5565b905084861015610fc65785850381811015610fc0578091505b50610fca565b5060005b6000816001600160401b03811115610fe457610fe46122b9565b60405190808252806020026020018201604052801561100d578160200160208202803683370190505b509050816000036110235793506110d292505050565b600061102e88611134565b90506000816040015161103f575080515b885b8881141580156110515750848714155b156110c65761105f81611aa3565b925082604001516110be5782516001600160a01b03161561107f57825191505b8a6001600160a01b0316826001600160a01b0316036110be57808488806001019950815181106110b1576110b1612889565b6020026020010181815250505b600101611041565b50505092835250909150505b9392505050565b816110e38161150a565b6108d48383611adf565b836001600160a01b0381163314611107576111073361150a565b61096685858585611b4b565b6001600160a01b03811660009081526005602052604081205460c01c6108b9565b604080516080810182526000808252602082018190529181018290526060810191909152604080516080810182526000808252602082018190529181018290526060810191909152600183108061118d57506000548310155b156111985792915050565b6111a183611aa3565b90508060400151156111b35792915050565b6110d283611b8f565b60606108b9611bc4565b60006111d1816113ce565b8484848480831461120d5760405162461bcd60e51b8152600401610aa59060208082526004908201526312d0d20d60e21b604082015260600190565b600b54600154600054889261ffff90811692908416910360001901611232919061295e565b11156112695760405162461bcd60e51b8152600401610aa59060208082526004908201526325a1a41960e11b604082015260600190565b60005b61ffff808b1690821610156112e5576112dd8b8b8361ffff1681811061129457611294612889565b90506020020160208101906112a9919061248f565b8a8a8461ffff168181106112bf576112bf612889565b90506020020160208101906112d491906121d3565b61ffff16611bd3565b60010161126c565b5050505050505050505050565b60008281526008602052604090206001015461130d816113ce565b6108d4838361187a565b6000610df360015490565b6001600160a01b038116600090815260056020526040808220546001600160401b03911c166108b9565b6060600c805461097c906126fb565b60006301ffc9a760e01b6001600160e01b03198316148061138c57506380ac58cd60e01b6001600160e01b03198316145b806108b95750506001600160e01b031916635b5e139f60e01b1490565b60006001600160e01b0319821663152a902d60e11b14806108b957506108b982611bed565b610caa8133611c22565b6127106001600160601b03821611156114465760405162461bcd60e51b815260206004820152602a60248201527f455243323938313a20726f79616c7479206665652077696c6c206578636565646044820152692073616c65507269636560b01b6064820152608401610aa5565b6001600160a01b03821661149c5760405162461bcd60e51b815260206004820152601960248201527f455243323938313a20696e76616c6964207265636569766572000000000000006044820152606401610aa5565b604080518082019091526001600160a01b039092168083526001600160601b039091166020909201829052600160a01b90910217600955565b6000816001111580156114e9575060005482105b80156108b9575050600090815260046020526040902054600160e01b161590565b6daaeb6d7670e522a718067333cd4e3b15610caa57604051633185c44d60e21b81523060048201526001600160a01b03821660248201526daaeb6d7670e522a718067333cd4e9063c617113490604401602060405180830381865afa158015611577573d6000803e3d6000fd5b505050506040513d601f19601f8201168201806040525081019061159b91906126de565b610caa57604051633b79c77360e21b81526001600160a01b0382166004820152602401610aa5565b60006115ce82610d9a565b9050336001600160a01b03821614611607576115ea8133610821565b611607576040516367d9dca160e11b815260040160405180910390fd5b60008281526006602052604080822080546001600160a01b0319166001600160a01b0387811691821790925591518593918516917f8c5be1e5ebec7d5bd14f71427d1e84f3dd0314c0f7b2291e5b200ac8c7c3b92591a4505050565b600061166e82611a34565b9050836001600160a01b0316816001600160a01b0316146116a15760405162a1148160e81b815260040160405180910390fd5b600082815260066020526040902080546116cd8187335b6001600160a01b039081169116811491141790565b6116f8576116db8633610821565b6116f857604051632ce44b5f60e11b815260040160405180910390fd5b6001600160a01b03851661171f57604051633a954ecd60e21b815260040160405180910390fd5b801561172a57600082555b6001600160a01b038681166000908152600560205260408082208054600019019055918716808252919020805460010190554260a01b17600160e11b17600085815260046020526040812091909155600160e11b841690036117bc576001840160008181526004602052604081205490036117ba5760005481146117ba5760008181526004602052604090208490555b505b83856001600160a01b0316876001600160a01b0316600080516020612a5883398151915260405160405180910390a45b505050505050565b6117fe8282610f00565b610b295760008281526008602090815260408083206001600160a01b03851684529091529020805460ff191660011790556118363390565b6001600160a01b0316816001600160a01b0316837f2f8788117e7eff1d82e926ec794901d17c78024a50270940304540a733656f0d60405160405180910390a45050565b6118848282610f00565b15610b295760008281526008602090815260408083206001600160a01b0385168085529252808320805460ff1916905551339285917ff6391f5c32d9c69d2a47ea670b442974b53935d1edc7fd64eb21e047a839171b9190a45050565b6108d4838383604051806020016040528060008152506110ed565b600061190783611a34565b90508060008061192586600090815260066020526040902080549091565b9150915084156119655761193a8184336116b8565b611965576119488333610821565b61196557604051632ce44b5f60e11b815260040160405180910390fd5b801561197057600082555b6001600160a01b038316600081815260056020526040902080546fffffffffffffffffffffffffffffffff0190554260a01b17600360e01b17600087815260046020526040812091909155600160e11b851690036119fe576001860160008181526004602052604081205490036119fc5760005481146119fc5760008181526004602052604090208590555b505b60405186906000906001600160a01b03861690600080516020612a58833981519152908390a45050600180548101905550505050565b60008180600111611a8a57600054811015611a8a5760008181526004602052604081205490600160e01b82169003611a88575b806000036110d2575060001901600081815260046020526040902054611a67565b505b604051636f96cda160e11b815260040160405180910390fd5b6040805160808101825260008082526020820181905291810182905260608101919091526000828152600460205260409020546108b990611c7b565b3360008181526007602090815260408083206001600160a01b03871680855290835292819020805460ff191686151590811790915590519081529192917f17307eab39ab6107e8899845ad3d59bd9653f200f220920489ca2b5937696c31910160405180910390a35050565b611b56848484610ac7565b6001600160a01b0383163b15610aec57611b7284848484611cc2565b610aec576040516368d2bf6b60e11b815260040160405180910390fd5b6040805160808101825260008082526020820181905291810182905260608101919091526108b9611bbf83611a34565b611c7b565b6060600d805461097c906126fb565b610b29828260405180602001604052806000815250611dae565b60006001600160e01b03198216637965db0b60e01b14806108b957506301ffc9a760e01b6001600160e01b03198316146108b9565b611c2c8282610f00565b610b2957611c3981611e14565b611c44836020611e26565b604051602001611c55929190612971565b60408051601f198184030181529082905262461bcd60e51b8252610aa5916004016121a7565b604080516080810182526001600160a01b038316815260a083901c6001600160401b03166020820152600160e01b831615159181019190915260e89190911c606082015290565b604051630a85bd0160e11b81526000906001600160a01b0385169063150b7a0290611cf79033908990889088906004016129e6565b6020604051808303816000875af1925050508015611d32575060408051601f3d908101601f19168201909252611d2f91810190612a23565b60015b611d90573d808015611d60576040519150601f19603f3d011682016040523d82523d6000602084013e611d65565b606091505b508051600003611d88576040516368d2bf6b60e11b815260040160405180910390fd5b805181602001fd5b6001600160e01b031916630a85bd0160e11b1490505b949350505050565b611db88383611fc1565b6001600160a01b0383163b156108d4576000548281035b611de26000868380600101945086611cc2565b611dff576040516368d2bf6b60e11b815260040160405180910390fd5b818110611dcf57816000541461096657600080fd5b60606108b96001600160a01b03831660145b60606000611e3583600261274b565b611e4090600261295e565b6001600160401b03811115611e5757611e576122b9565b6040519080825280601f01601f191660200182016040528015611e81576020820181803683370190505b509050600360fc1b81600081518110611e9c57611e9c612889565b60200101906001600160f81b031916908160001a905350600f60fb1b81600181518110611ecb57611ecb612889565b60200101906001600160f81b031916908160001a9053506000611eef84600261274b565b611efa90600161295e565b90505b6001811115611f72576f181899199a1a9b1b9c1cb0b131b232b360811b85600f1660108110611f2e57611f2e612889565b1a60f81b828281518110611f4457611f44612889565b60200101906001600160f81b031916908160001a90535060049490941c93611f6b81612a40565b9050611efd565b5083156110d25760405162461bcd60e51b815260206004820181905260248201527f537472696e67733a20686578206c656e67746820696e73756666696369656e746044820152606401610aa5565b6000805490829003611fe65760405163b562e8dd60e01b815260040160405180910390fd5b6001600160a01b03831660008181526005602090815260408083208054680100000000000000018802019055848352600490915281206001851460e11b4260a01b17831790558284019083908390600080516020612a588339815191528180a4600183015b8181146120715780836000600080516020612a58833981519152600080a460010161204b565b508160000361209257604051622e076360e81b815260040160405180910390fd5b60005550505050565b6001600160e01b031981168114610caa57600080fd5b6000602082840312156120c357600080fd5b81356110d28161209b565b80356001600160a01b03811681146120e557600080fd5b919050565b600080604083850312156120fd57600080fd5b612106836120ce565b915060208301356001600160601b038116811461212257600080fd5b809150509250929050565b6000806040838503121561214057600080fd5b612149836120ce565b946020939093013593505050565b60005b8381101561217257818101518382015260200161215a565b50506000910152565b60008151808452612193816020860160208601612157565b601f01601f19169290920160200192915050565b6020815260006110d2602083018461217b565b6000602082840312156121cc57600080fd5b5035919050565b6000602082840312156121e557600080fd5b813561ffff811681146110d257600080fd5b60008060006060848603121561220c57600080fd5b612215846120ce565b9250612223602085016120ce565b9150604084013590509250925092565b6000806040838503121561224657600080fd5b50508035926020909101359150565b6000806040838503121561226857600080fd5b82359150612278602084016120ce565b90509250929050565b6000806040838503121561229457600080fd5b61229d836120ce565b915060208301356001600160401b038116811461212257600080fd5b634e487b7160e01b600052604160045260246000fd5b60006001600160401b03808411156122e9576122e96122b9565b604051601f8501601f19908116603f01168101908282118183101715612311576123116122b9565b8160405280935085815286868601111561232a57600080fd5b858560208301376000602087830101525050509392505050565b60006020828403121561235657600080fd5b81356001600160401b0381111561236c57600080fd5b8201601f8101841361237d57600080fd5b611da6848235602084016122cf565b60008083601f84011261239e57600080fd5b5081356001600160401b038111156123b557600080fd5b6020830191508360208260051b8501011115610bd457600080fd5b600080602083850312156123e357600080fd5b82356001600160401b038111156123f957600080fd5b6124058582860161238c565b90969095509350505050565b80516001600160a01b031682526020808201516001600160401b03169083015260408082015115159083015260609081015162ffffff16910152565b6020808252825182820181905260009190848201906040850190845b81811015610ef45761247c838551612411565b9284019260809290920191600101612469565b6000602082840312156124a157600080fd5b6110d2826120ce565b6020808252825182820181905260009190848201906040850190845b81811015610ef4578351835292840192918401916001016124c6565b600080602083850312156124f557600080fd5b82356001600160401b038082111561250c57600080fd5b818501915085601f83011261252057600080fd5b81358181111561252f57600080fd5b86602082850101111561254157600080fd5b60209290920196919550909350505050565b60008060006060848603121561256857600080fd5b612571846120ce565b95602085013595506040909401359392505050565b8015158114610caa57600080fd5b600080604083850312156125a757600080fd5b6125b0836120ce565b9150602083013561212281612586565b600080600080608085870312156125d657600080fd5b6125df856120ce565b93506125ed602086016120ce565b92506040850135915060608501356001600160401b0381111561260f57600080fd5b8501601f8101871361262057600080fd5b61262f878235602084016122cf565b91505092959194509250565b608081016108b98284612411565b6000806000806040858703121561265f57600080fd5b84356001600160401b038082111561267657600080fd5b6126828883890161238c565b9096509450602087013591508082111561269b57600080fd5b506126a88782880161238c565b95989497509550505050565b600080604083850312156126c757600080fd5b6126d0836120ce565b9150612278602084016120ce565b6000602082840312156126f057600080fd5b81516110d281612586565b600181811c9082168061270f57607f821691505b60208210810361272f57634e487b7160e01b600052602260045260246000fd5b50919050565b634e487b7160e01b600052601160045260246000fd5b80820281158282048414176108b9576108b9612735565b60008261277f57634e487b7160e01b600052601260045260246000fd5b500490565b601f8211156108d457600081815260208120601f850160051c810160208610156127ab5750805b601f850160051c820191505b818110156117ec578281556001016127b7565b81516001600160401b038111156127e3576127e36122b9565b6127f7816127f184546126fb565b84612784565b602080601f83116001811461282c57600084156128145750858301515b600019600386901b1c1916600185901b1785556117ec565b600085815260208120601f198616915b8281101561285b5788860151825594840194600190910190840161283c565b50858210156128795787850151600019600388901b60f8161c191681555b5050505050600190811b01905550565b634e487b7160e01b600052603260045260246000fd5b6001600160401b038311156128b6576128b66122b9565b6128ca836128c483546126fb565b83612784565b6000601f8411600181146128fe57600085156128e65750838201355b600019600387901b1c1916600186901b178355610966565b600083815260209020601f19861690835b8281101561292f578685013582556020948501946001909201910161290f565b508682101561294c5760001960f88860031b161c19848701351681555b505060018560011b0183555050505050565b808201808211156108b9576108b9612735565b7f416363657373436f6e74726f6c3a206163636f756e74200000000000000000008152600083516129a9816017850160208801612157565b7001034b99036b4b9b9b4b733903937b6329607d1b60179184019182015283516129da816028840160208801612157565b01602801949350505050565b6001600160a01b0385811682528416602082015260408101839052608060608201819052600090612a199083018461217b565b9695505050505050565b600060208284031215612a3557600080fd5b81516110d28161209b565b600081612a4f57612a4f612735565b50600019019056feddf252ad1be2c89b69c2b068fc378daa952ba7f163c4a11628f55a4df523b3efa2646970667358221220143d5788042e5291ed0843f108985581f911e4748552b6a700834cee05b6173564736f6c63430008120033",
    "linkReferences": {},
    "deployedLinkReferences": {}
}