{
  "_format": "hh-sol-artifact-1",
  "contractName": "Wonderbits",
  "sourceName": "contracts/wonderbits/impl/nft/Bits.sol",
  "abi": [
    {
      "inputs": [],
      "stateMutability": "nonpayable",
      "type": "constructor"
    },
    {
      "inputs": [],
      "name": "AccessControlBadConfirmation",
      "type": "error"
    },
    {
      "inputs": [
        {
          "internalType": "address",
          "name": "account",
          "type": "address"
        },
        {
          "internalType": "bytes32",
          "name": "neededRole",
          "type": "bytes32"
        }
      ],
      "name": "AccessControlUnauthorizedAccount",
      "type": "error"
    },
    {
      "inputs": [],
      "name": "ApprovalCallerNotOwnerNorApproved",
      "type": "error"
    },
    {
      "inputs": [],
      "name": "ApprovalQueryForNonexistentToken",
      "type": "error"
    },
    {
      "inputs": [],
      "name": "BalanceQueryForZeroAddress",
      "type": "error"
    },
    {
      "inputs": [],
      "name": "ECDSAInvalidSignature",
      "type": "error"
    },
    {
      "inputs": [
        {
          "internalType": "uint256",
          "name": "length",
          "type": "uint256"
        }
      ],
      "name": "ECDSAInvalidSignatureLength",
      "type": "error"
    },
    {
      "inputs": [
        {
          "internalType": "bytes32",
          "name": "s",
          "type": "bytes32"
        }
      ],
      "name": "ECDSAInvalidSignatureS",
      "type": "error"
    },
    {
      "inputs": [
        {
          "internalType": "address",
          "name": "recovered",
          "type": "address"
        }
      ],
      "name": "InvalidAdminSignature",
      "type": "error"
    },
    {
      "inputs": [],
      "name": "InvalidQueryRange",
      "type": "error"
    },
    {
      "inputs": [],
      "name": "MintERC2309QuantityExceedsLimit",
      "type": "error"
    },
    {
      "inputs": [],
      "name": "MintToZeroAddress",
      "type": "error"
    },
    {
      "inputs": [],
      "name": "MintZeroQuantity",
      "type": "error"
    },
    {
      "inputs": [],
      "name": "NotCompatibleWithSpotMints",
      "type": "error"
    },
    {
      "inputs": [],
      "name": "OwnerQueryForNonexistentToken",
      "type": "error"
    },
    {
      "inputs": [],
      "name": "OwnershipNotInitializedForExtraData",
      "type": "error"
    },
    {
      "inputs": [],
      "name": "SequentialMintExceedsLimit",
      "type": "error"
    },
    {
      "inputs": [],
      "name": "SequentialUpToTooSmall",
      "type": "error"
    },
    {
      "inputs": [],
      "name": "SpotMintTokenIdTooSmall",
      "type": "error"
    },
    {
      "inputs": [],
      "name": "TokenAlreadyExists",
      "type": "error"
    },
    {
      "inputs": [],
      "name": "TransferCallerNotOwnerNorApproved",
      "type": "error"
    },
    {
      "inputs": [],
      "name": "TransferFromIncorrectOwner",
      "type": "error"
    },
    {
      "inputs": [],
      "name": "TransferToNonERC721ReceiverImplementer",
      "type": "error"
    },
    {
      "inputs": [],
      "name": "TransferToZeroAddress",
      "type": "error"
    },
    {
      "inputs": [],
      "name": "URIQueryForNonexistentToken",
      "type": "error"
    },
    {
      "anonymous": false,
      "inputs": [
        {
          "indexed": true,
          "internalType": "address",
          "name": "owner",
          "type": "address"
        },
        {
          "indexed": true,
          "internalType": "address",
          "name": "approved",
          "type": "address"
        },
        {
          "indexed": true,
          "internalType": "uint256",
          "name": "tokenId",
          "type": "uint256"
        }
      ],
      "name": "Approval",
      "type": "event"
    },
    {
      "anonymous": false,
      "inputs": [
        {
          "indexed": true,
          "internalType": "address",
          "name": "owner",
          "type": "address"
        },
        {
          "indexed": true,
          "internalType": "address",
          "name": "operator",
          "type": "address"
        },
        {
          "indexed": false,
          "internalType": "bool",
          "name": "approved",
          "type": "bool"
        }
      ],
      "name": "ApprovalForAll",
      "type": "event"
    },
    {
      "anonymous": false,
      "inputs": [
        {
          "indexed": true,
          "internalType": "uint256",
          "name": "fromTokenId",
          "type": "uint256"
        },
        {
          "indexed": false,
          "internalType": "uint256",
          "name": "toTokenId",
          "type": "uint256"
        },
        {
          "indexed": true,
          "internalType": "address",
          "name": "from",
          "type": "address"
        },
        {
          "indexed": true,
          "internalType": "address",
          "name": "to",
          "type": "address"
        }
      ],
      "name": "ConsecutiveTransfer",
      "type": "event"
    },
    {
      "anonymous": false,
      "inputs": [
        {
          "indexed": true,
          "internalType": "bytes32",
          "name": "role",
          "type": "bytes32"
        },
        {
          "indexed": true,
          "internalType": "bytes32",
          "name": "previousAdminRole",
          "type": "bytes32"
        },
        {
          "indexed": true,
          "internalType": "bytes32",
          "name": "newAdminRole",
          "type": "bytes32"
        }
      ],
      "name": "RoleAdminChanged",
      "type": "event"
    },
    {
      "anonymous": false,
      "inputs": [
        {
          "indexed": true,
          "internalType": "bytes32",
          "name": "role",
          "type": "bytes32"
        },
        {
          "indexed": true,
          "internalType": "address",
          "name": "account",
          "type": "address"
        },
        {
          "indexed": true,
          "internalType": "address",
          "name": "sender",
          "type": "address"
        }
      ],
      "name": "RoleGranted",
      "type": "event"
    },
    {
      "anonymous": false,
      "inputs": [
        {
          "indexed": true,
          "internalType": "bytes32",
          "name": "role",
          "type": "bytes32"
        },
        {
          "indexed": true,
          "internalType": "address",
          "name": "account",
          "type": "address"
        },
        {
          "indexed": true,
          "internalType": "address",
          "name": "sender",
          "type": "address"
        }
      ],
      "name": "RoleRevoked",
      "type": "event"
    },
    {
      "anonymous": false,
      "inputs": [
        {
          "indexed": true,
          "internalType": "address",
          "name": "from",
          "type": "address"
        },
        {
          "indexed": true,
          "internalType": "address",
          "name": "to",
          "type": "address"
        },
        {
          "indexed": true,
          "internalType": "uint256",
          "name": "tokenId",
          "type": "uint256"
        }
      ],
      "name": "Transfer",
      "type": "event"
    },
    {
      "inputs": [],
      "name": "DEFAULT_ADMIN_ROLE",
      "outputs": [
        {
          "internalType": "bytes32",
          "name": "",
          "type": "bytes32"
        }
      ],
      "stateMutability": "view",
      "type": "function"
    },
    {
      "inputs": [
        {
          "internalType": "address",
          "name": "to",
          "type": "address"
        },
        {
          "internalType": "uint256",
          "name": "tokenId",
          "type": "uint256"
        }
      ],
      "name": "approve",
      "outputs": [],
      "stateMutability": "payable",
      "type": "function"
    },
    {
      "inputs": [
        {
          "internalType": "address",
          "name": "owner",
          "type": "address"
        }
      ],
      "name": "balanceOf",
      "outputs": [
        {
          "internalType": "uint256",
          "name": "",
          "type": "uint256"
        }
      ],
      "stateMutability": "view",
      "type": "function"
    },
    {
      "inputs": [
        {
          "internalType": "uint256",
          "name": "tokenId",
          "type": "uint256"
        }
      ],
      "name": "burn",
      "outputs": [],
      "stateMutability": "nonpayable",
      "type": "function"
    },
    {
      "inputs": [
        {
          "internalType": "uint256",
          "name": "tokenId",
          "type": "uint256"
        }
      ],
      "name": "explicitOwnershipOf",
      "outputs": [
        {
          "components": [
            {
              "internalType": "address",
              "name": "addr",
              "type": "address"
            },
            {
              "internalType": "uint64",
              "name": "startTimestamp",
              "type": "uint64"
            },
            {
              "internalType": "bool",
              "name": "burned",
              "type": "bool"
            },
            {
              "internalType": "uint24",
              "name": "extraData",
              "type": "uint24"
            }
          ],
          "internalType": "struct IERC721A.TokenOwnership",
          "name": "ownership",
          "type": "tuple"
        }
      ],
      "stateMutability": "view",
      "type": "function"
    },
    {
      "inputs": [
        {
          "internalType": "uint256[]",
          "name": "tokenIds",
          "type": "uint256[]"
        }
      ],
      "name": "explicitOwnershipsOf",
      "outputs": [
        {
          "components": [
            {
              "internalType": "address",
              "name": "addr",
              "type": "address"
            },
            {
              "internalType": "uint64",
              "name": "startTimestamp",
              "type": "uint64"
            },
            {
              "internalType": "bool",
              "name": "burned",
              "type": "bool"
            },
            {
              "internalType": "uint24",
              "name": "extraData",
              "type": "uint24"
            }
          ],
          "internalType": "struct IERC721A.TokenOwnership[]",
          "name": "",
          "type": "tuple[]"
        }
      ],
      "stateMutability": "view",
      "type": "function"
    },
    {
      "inputs": [
        {
          "internalType": "uint256",
          "name": "tokenId",
          "type": "uint256"
        }
      ],
      "name": "getApproved",
      "outputs": [
        {
          "internalType": "address",
          "name": "",
          "type": "address"
        }
      ],
      "stateMutability": "view",
      "type": "function"
    },
    {
      "inputs": [
        {
          "internalType": "address",
          "name": "_owner",
          "type": "address"
        }
      ],
      "name": "getAux",
      "outputs": [
        {
          "internalType": "uint64",
          "name": "",
          "type": "uint64"
        }
      ],
      "stateMutability": "view",
      "type": "function"
    },
    {
      "inputs": [
        {
          "internalType": "bytes32",
          "name": "role",
          "type": "bytes32"
        }
      ],
      "name": "getRoleAdmin",
      "outputs": [
        {
          "internalType": "bytes32",
          "name": "",
          "type": "bytes32"
        }
      ],
      "stateMutability": "view",
      "type": "function"
    },
    {
      "inputs": [
        {
          "internalType": "bytes32",
          "name": "role",
          "type": "bytes32"
        },
        {
          "internalType": "address",
          "name": "account",
          "type": "address"
        }
      ],
      "name": "grantRole",
      "outputs": [],
      "stateMutability": "nonpayable",
      "type": "function"
    },
    {
      "inputs": [
        {
          "internalType": "bytes32",
          "name": "role",
          "type": "bytes32"
        },
        {
          "internalType": "address",
          "name": "account",
          "type": "address"
        }
      ],
      "name": "hasRole",
      "outputs": [
        {
          "internalType": "bool",
          "name": "",
          "type": "bool"
        }
      ],
      "stateMutability": "view",
      "type": "function"
    },
    {
      "inputs": [
        {
          "internalType": "address",
          "name": "owner",
          "type": "address"
        },
        {
          "internalType": "address",
          "name": "operator",
          "type": "address"
        }
      ],
      "name": "isApprovedForAll",
      "outputs": [
        {
          "internalType": "bool",
          "name": "",
          "type": "bool"
        }
      ],
      "stateMutability": "view",
      "type": "function"
    },
    {
      "inputs": [
        {
          "internalType": "address",
          "name": "to",
          "type": "address"
        },
        {
          "internalType": "bytes[2]",
          "name": "sigData",
          "type": "bytes[2]"
        }
      ],
      "name": "mint",
      "outputs": [],
      "stateMutability": "nonpayable",
      "type": "function"
    },
    {
      "inputs": [],
      "name": "name",
      "outputs": [
        {
          "internalType": "string",
          "name": "",
          "type": "string"
        }
      ],
      "stateMutability": "view",
      "type": "function"
    },
    {
      "inputs": [],
      "name": "nextTokenId",
      "outputs": [
        {
          "internalType": "uint256",
          "name": "",
          "type": "uint256"
        }
      ],
      "stateMutability": "view",
      "type": "function"
    },
    {
      "inputs": [
        {
          "internalType": "address",
          "name": "addr",
          "type": "address"
        },
        {
          "internalType": "bytes",
          "name": "salt",
          "type": "bytes"
        }
      ],
      "name": "opHash",
      "outputs": [
        {
          "internalType": "bytes32",
          "name": "",
          "type": "bytes32"
        }
      ],
      "stateMutability": "pure",
      "type": "function"
    },
    {
      "inputs": [
        {
          "internalType": "uint256",
          "name": "tokenId",
          "type": "uint256"
        }
      ],
      "name": "ownerOf",
      "outputs": [
        {
          "internalType": "address",
          "name": "",
          "type": "address"
        }
      ],
      "stateMutability": "view",
      "type": "function"
    },
    {
      "inputs": [
        {
          "internalType": "bytes32",
          "name": "role",
          "type": "bytes32"
        },
        {
          "internalType": "address",
          "name": "callerConfirmation",
          "type": "address"
        }
      ],
      "name": "renounceRole",
      "outputs": [],
      "stateMutability": "nonpayable",
      "type": "function"
    },
    {
      "inputs": [
        {
          "internalType": "bytes32",
          "name": "role",
          "type": "bytes32"
        },
        {
          "internalType": "address",
          "name": "account",
          "type": "address"
        }
      ],
      "name": "revokeRole",
      "outputs": [],
      "stateMutability": "nonpayable",
      "type": "function"
    },
    {
      "inputs": [
        {
          "internalType": "address",
          "name": "from",
          "type": "address"
        },
        {
          "internalType": "address",
          "name": "to",
          "type": "address"
        },
        {
          "internalType": "uint256",
          "name": "tokenId",
          "type": "uint256"
        }
      ],
      "name": "safeTransferFrom",
      "outputs": [],
      "stateMutability": "payable",
      "type": "function"
    },
    {
      "inputs": [
        {
          "internalType": "address",
          "name": "from",
          "type": "address"
        },
        {
          "internalType": "address",
          "name": "to",
          "type": "address"
        },
        {
          "internalType": "uint256",
          "name": "tokenId",
          "type": "uint256"
        },
        {
          "internalType": "bytes",
          "name": "_data",
          "type": "bytes"
        }
      ],
      "name": "safeTransferFrom",
      "outputs": [],
      "stateMutability": "payable",
      "type": "function"
    },
    {
      "inputs": [
        {
          "internalType": "address",
          "name": "operator",
          "type": "address"
        },
        {
          "internalType": "bool",
          "name": "approved",
          "type": "bool"
        }
      ],
      "name": "setApprovalForAll",
      "outputs": [],
      "stateMutability": "nonpayable",
      "type": "function"
    },
    {
      "inputs": [
        {
          "internalType": "string",
          "name": "uri",
          "type": "string"
        }
      ],
      "name": "setBaseURI",
      "outputs": [],
      "stateMutability": "nonpayable",
      "type": "function"
    },
    {
      "inputs": [
        {
          "internalType": "bytes4",
          "name": "interfaceId",
          "type": "bytes4"
        }
      ],
      "name": "supportsInterface",
      "outputs": [
        {
          "internalType": "bool",
          "name": "",
          "type": "bool"
        }
      ],
      "stateMutability": "view",
      "type": "function"
    },
    {
      "inputs": [],
      "name": "symbol",
      "outputs": [
        {
          "internalType": "string",
          "name": "",
          "type": "string"
        }
      ],
      "stateMutability": "view",
      "type": "function"
    },
    {
      "inputs": [
        {
          "internalType": "uint256",
          "name": "tokenId",
          "type": "uint256"
        }
      ],
      "name": "tokenURI",
      "outputs": [
        {
          "internalType": "string",
          "name": "",
          "type": "string"
        }
      ],
      "stateMutability": "view",
      "type": "function"
    },
    {
      "inputs": [
        {
          "internalType": "address",
          "name": "owner",
          "type": "address"
        }
      ],
      "name": "tokensOfOwner",
      "outputs": [
        {
          "internalType": "uint256[]",
          "name": "",
          "type": "uint256[]"
        }
      ],
      "stateMutability": "view",
      "type": "function"
    },
    {
      "inputs": [
        {
          "internalType": "address",
          "name": "owner",
          "type": "address"
        },
        {
          "internalType": "uint256",
          "name": "start",
          "type": "uint256"
        },
        {
          "internalType": "uint256",
          "name": "stop",
          "type": "uint256"
        }
      ],
      "name": "tokensOfOwnerIn",
      "outputs": [
        {
          "internalType": "uint256[]",
          "name": "",
          "type": "uint256[]"
        }
      ],
      "stateMutability": "view",
      "type": "function"
    },
    {
      "inputs": [],
      "name": "totalBurned",
      "outputs": [
        {
          "internalType": "uint256",
          "name": "",
          "type": "uint256"
        }
      ],
      "stateMutability": "view",
      "type": "function"
    },
    {
      "inputs": [],
      "name": "totalSupply",
      "outputs": [
        {
          "internalType": "uint256",
          "name": "result",
          "type": "uint256"
        }
      ],
      "stateMutability": "view",
      "type": "function"
    },
    {
      "inputs": [
        {
          "internalType": "address",
          "name": "from",
          "type": "address"
        },
        {
          "internalType": "address",
          "name": "to",
          "type": "address"
        },
        {
          "internalType": "uint256",
          "name": "tokenId",
          "type": "uint256"
        }
      ],
      "name": "transferFrom",
      "outputs": [],
      "stateMutability": "payable",
      "type": "function"
    },
    {
      "inputs": [],
      "name": "withdrawFunds",
      "outputs": [],
      "stateMutability": "nonpayable",
      "type": "function"
    },
    {
      "inputs": [
        {
          "internalType": "address",
          "name": "_tokenAddr",
          "type": "address"
        },
        {
          "internalType": "uint256",
          "name": "_amount",
          "type": "uint256"
        }
      ],
      "name": "withdrawTokens",
      "outputs": [],
      "stateMutability": "nonpayable",
      "type": "function"
    }
  ],
  "bytecode": "0x60806040523461015157610011610169565b69576f6e6465726269747360b01b602082015261002c61018c565b634249545360e01b60208201528151916001600160401b03831161014c5761005e836100596002546101af565b6101e7565b602090601f84116001146100c657928061009192610099955f926100bb575b50508160011b915f199060031b1c19161790565b600255610286565b6100a260015f55565b6100ab3361035f565b5060405161204890816103e98239f35b015190505f8061007d565b60025f52601f19841691907f405787fa12a823e0f2b7631cc41b3ba8828b3321ca811111fa75cd3aa3bb5ace925f5b818110610134575091600193918661009997941061011c575b505050811b01600255610286565b01515f1960f88460031b161c191690555f808061010e565b929360206001819287860151815501950193016100f5565b610155565b5f80fd5b634e487b7160e01b5f52604160045260245ffd5b60408051919082016001600160401b0381118382101761014c57604052600a8252565b60408051919082016001600160401b0381118382101761014c5760405260048252565b90600182811c921680156101dd575b60208310146101c957565b634e487b7160e01b5f52602260045260245ffd5b91607f16916101be565b601f81116101f3575050565b60025f5260205f20906020601f840160051c8301931061022d575b601f0160051c01905b818110610222575050565b5f8155600101610217565b909150819061020e565b601f821161024457505050565b5f5260205f20906020601f840160051c8301931061027c575b601f0160051c01905b818110610271575050565b5f8155600101610266565b909150819061025d565b80519091906001600160401b03811161014c576102af816102a86003546101af565b6003610237565b602092601f82116001146102e3576102de929382915f926100bb5750508160011b915f199060031b1c19161790565b600355565b60035f52601f198216937fc2575a0e9e593c00f959f8c92f12db2869c3395a3b0502d05e2516446f71f85b915f5b868110610347575083600195961061032f575b505050811b01600355565b01515f1960f88460031b161c191690555f8080610324565b91926020600181928685015181550194019201610311565b6001600160a01b0381165f9081525f80516020612431833981519152602052604090205460ff166103e3576001600160a01b03165f8181525f8051602061243183398151915260205260408120805460ff191660011790553391907f2f8788117e7eff1d82e926ec794901d17c78024a50270940304540a733656f0d8180a4600190565b505f9056fe60806040526004361015610011575f80fd5b5f3560e01c806301ffc9a71461022457806306b091f91461021f57806306fdde031461021a578063081812fc14610215578063095ea7b31461021057806318160ddd1461020b57806323b872dd1461020657806324600fc314610201578063248a9ca3146101fc5780632f2ff15d146101f757806336568abe146101f257806342842e0e146101ed57806342966c68146101e857806355f804b3146101e35780635bbb2177146101de5780636352211e146101d957806370a08231146101d457806375794a3c146101cf5780638462151c146101ca57806391d14854146101c557806395d89b41146101c057806399a2557a146101bb578063a217fddf146101b6578063a22cb465146101b1578063b88d4fde146101ac578063bf0b175e146101a7578063c23dc68f146101a2578063c87b56dd1461019d578063cf55fea714610198578063d547741f14610193578063d89135cd1461018e578063e985e9c5146101895763fcceab8114610184575f80fd5b6113d6565b611386565b611369565b61132b565b6112e7565b61119c565b611139565b6110fe565b6110a4565b610f8e565b610f6a565b610de9565b610d44565b610cf5565b610b65565b610b10565b610aed565b610abe565b610a52565b6108c1565b61070a565b6106e6565b6106a2565b61065f565b61062c565b6105f4565b6105e2565b610584565b6104bd565b61046e565b610394565b6102c1565b61023f565b6001600160e01b031981160361023b57565b5f80fd5b3461023b57602036600319011261023b57602060043561025e81610229565b63ffffffff60e01b16637965db0b60e01b8114908115610284575b506040519015158152f35b6301ffc9a760e01b1490505f610279565b600435906001600160a01b038216820361023b57565b602435906001600160a01b038216820361023b57565b3461023b57604036600319011261023b575f60206102dd610295565b60446024356102ea611a20565b60405163a9059cbb60e01b815233600482015260248101919091529384928391906001600160a01b03165af180156103575761032257005b6020813d60201161034f575b8161033b60209383611032565b8101031261023b5761034d9051610f84565b005b3d915061032e565b6115fd565b805180835260209291819084018484015e5f828201840152601f01601f1916010190565b90602061039192818152019061035c565b90565b3461023b575f36600319011261023b576040515f6002546103b481611608565b808452906001811690811561044a57506001146103ec575b6103e8836103dc81850382611032565b60405191829182610380565b0390f35b91905060025f527f405787fa12a823e0f2b7631cc41b3ba8828b3321ca811111fa75cd3aa3bb5ace915f905b808210610430575090915081016020016103dc6103cc565b919260018160209254838588010152019101909291610418565b60ff191660208086019190915291151560051b840190910191506103dc90506103cc565b3461023b57602036600319011261023b5760043561048b81611aa9565b156104ae575f526006602052602060018060a01b0360405f205416604051908152f35b6333d1c03960e21b5f5260045ffd5b604036600319011261023b576104d1610295565b602435906001600160a01b036104e683611b60565b1690813303610555575b61052581610506855f52600660205260405f2090565b80546001600160a01b0319166001600160a01b03909216919091179055565b6001600160a01b0316907f8c5be1e5ebec7d5bd14f71427d1e84f3dd0314c0f7b2291e5b200ac8c7c3b9255f80a4005b5f82815260076020908152604080832033845290915290205460ff166104f0576367d9dca160e11b5f5260045ffd5b3461023b575f36600319011261023b575f5460015460405191035f19018152602090f35b606090600319011261023b576004356001600160a01b038116810361023b57906024356001600160a01b038116810361023b579060443590565b61034d6105ee366105a8565b91611640565b3461023b575f36600319011261023b5761060c611a20565b5f80808047818115610623575b3390f11561035757005b506108fc610619565b3461023b57602036600319011261023b5760206106576004355f526009602052600160405f20015490565b604051908152f35b3461023b57604036600319011261023b5761034d60043561067e6102ab565b9061069d610698825f526009602052600160405f20015490565b611a6f565b611bcb565b3461023b57604036600319011261023b576004356106be6102ab565b336001600160a01b038216036106d75761034d91611c5b565b63334bd91960e11b5f5260045ffd5b61034d6106f2366105a8565b9060405192610702602085611032565b5f845261189e565b3461023b57602036600319011261023b5760043561072781611b60565b5f8281526006602052604090208054916001600160a01b03811691338085149084141715610754565b1590565b61084a575b5f93610841575b506001600160a01b0382165f90815260056020526040902080546fffffffffffffffffffffffffffffffff0190556001600160a01b0382164260a01b17600360e01b176107b5855f52600460205260405f2090565b55600160e11b8116156107fc575b507fddf252ad1be2c89b69c2b068fc378daa952ba7f163c4a11628f55a4df523b3ef8280a461034d6107f760015460010190565b600155565b60018401610812815f52600460205260405f2090565b541561081f575b506107c3565b8354811461081957610839905f52600460205260405f2090565b555f80610819565b8390555f610760565b61088a6107506108833361086e8760018060a01b03165f52600760205260405f2090565b9060018060a01b03165f5260205260405f2090565b5460ff1690565b1561075957611b08565b9181601f8401121561023b578235916001600160401b03831161023b576020838186019501011161023b57565b3461023b57602036600319011261023b576004356001600160401b03811161023b576108f1903690600401610894565b6108f9611a20565b6001600160401b0381116109d45761091b81610916600a54611608565b6117d6565b5f601f8211600114610958578190610948935f9261094d575b50508160011b915f199060031b1c19161790565b600a55005b013590505f80610934565b600a5f52601f198216927fc65a7bb8d6351c1cf70c95a316cc6a92839c986682d98bc35f958f4883f9d2a8915f5b8581106109bc575083600195106109a3575b505050811b01600a55005b01355f19600384901b60f8161c191690555f8080610998565b90926020600181928686013581550194019101610986565b61101e565b60206040818301928281528451809452019201905f5b8181106109fc5750505090565b9091926020608082610a47600194885162ffffff6060809260018060a01b0381511685526001600160401b036020820151166020860152604081015115156040860152015116910152565b0194019291016109ef565b3461023b57602036600319011261023b576004356001600160401b03811161023b573660238201121561023b578060040135906001600160401b03821161023b573660248360051b8301011161023b576103e8916024610ab29201611826565b604051918291826109d9565b3461023b57602036600319011261023b5760206001600160a01b03610ae4600435611b60565b16604051908152f35b3461023b57602036600319011261023b576020610657610b0b610295565b611868565b3461023b575f36600319011261023b5760205f54604051908152f35b60206040818301928281528451809452019201905f5b818110610b4f5750505090565b8251845260209384019390920191600101610b42565b3461023b57602036600319011261023b57610b7e610295565b5f5460609080600103610b9a575b604051806103e88482610b2c565b90819260019060609380831015610cf0575f5480911015610ce8575b50610bc081611868565b9285831015610ce0575b83610bdf575b505050506103e891505f610b8c565b92935090915f19850184811115610cd8575b506040519183850160051b83019485604052610c0c85611913565b905f91610c1f6107506040830151151590565b610cc6575b505f97919591825b15610c97575b5f96610c3d84611e1f565b604081015115610c5c57505060015f935b019688604052969296610c2c565b9390935180610c8f575b50848418861b15610c7a575b600190610c4e565b6001909901600581901b87018a905298610c72565b93505f610c66565b8083148015610cbd575b15610c325750505050509150506103e89181525f808080610bd0565b50818914610ca1565b516001600160a01b031691505f610c24565b93505f610bf1565b5f9350610bca565b94505f610bb6565b611b51565b3461023b57604036600319011261023b57602060ff610d38600435610d186102ab565b905f526009845260405f209060018060a01b03165f5260205260405f2090565b54166040519015158152f35b3461023b575f36600319011261023b576040515f600354610d6481611608565b808452906001811690811561044a5750600114610d8b576103e8836103dc81850382611032565b91905060035f527fc2575a0e9e593c00f959f8c92f12db2869c3395a3b0502d05e2516446f71f85b915f905b808210610dcf575090915081016020016103dc6103cc565b919260018160209254838588010152019101909291610db7565b3461023b57606036600319011261023b57610e02610295565b60443590606090602435838181811015610cf057600111610f61575b5f5480911015610f59575b50610e3382611868565b9184821015610f51575b82610e51575b604051806103e88682610b2c565b9080929350840383811115610f49575b50604051906001840160051b82019384604052610e7d84611913565b905f91610e906107506040830151151590565b610f37575b505f9691949160015b15610f0a575b5f95610eaf84611e1f565b604081015115610ece57505060015f935b019587604052959295610e9e565b9390935180610f02575b5084841860601b15610eed575b600190610ec0565b6001909801600581901b860189905297610ee5565b93505f610ed8565b8083148015610f2e575b15610ea457505050509150506103e89181525f8080610e43565b50818814610f14565b516001600160a01b031691505f610e95565b92505f610e61565b5f9250610e3d565b93505f610e29565b60019150610e1e565b3461023b575f36600319011261023b5760206040515f8152f35b8015150361023b57565b3461023b57604036600319011261023b57610fa7610295565b60243590610fb482610f84565b335f9081526007602090815260408083206001600160a01b038516845290915290209115159160ff1981541660ff841617905560405191825260018060a01b0316907f17307eab39ab6107e8899845ad3d59bd9653f200f220920489ca2b5937696c3160203392a3005b634e487b7160e01b5f52604160045260245ffd5b90601f801991011681019081106001600160401b038211176109d457604052565b6001600160401b0381116109d457601f01601f191660200190565b92919261107a82611053565b916110886040519384611032565b82948184528183011161023b578281602093845f960137010152565b608036600319011261023b576110b8610295565b6110c06102ab565b90604435606435926001600160401b03841161023b573660238501121561023b576110f861034d94369060248160040135910161106e565b9261189e565b3461023b57602036600319011261023b576001600160a01b0361111f610295565b165f526005602052602060405f205460c01c604051908152f35b3461023b57602036600319011261023b576080611157600435611913565b61119a604051809262ffffff6060809260018060a01b0381511685526001600160401b036020820151166020860152604081015115156040860152015116910152565bf35b3461023b57602036600319011261023b576004356111b981611aa9565b156112d857604051600a54815f6111cf83611608565b80835292600181169081156112b9575060011461125a575b6111f392500382611032565b805115611248576103dc6112239161123a6112296112136103e896611e77565b604051958694602086019061195a565b9061195a565b64173539b7b760d91b815260050190565b03601f198101835282611032565b50506103e86112556117c2565b6103dc565b5090600a5f527fc65a7bb8d6351c1cf70c95a316cc6a92839c986682d98bc35f958f4883f9d2a8905f915b81831061129d5750509060206111f3928201016111e7565b6020919350806001915483858801015201910190918392611285565b602092506111f394915060ff191682840152151560051b8201016111e7565b630a14c4b560e41b5f5260045ffd5b3461023b57604036600319011261023b57611300610295565b6024356001600160401b03811161023b57602091611325610657923690600401610894565b9161196c565b3461023b57604036600319011261023b5761034d60043561134a6102ab565b90611364610698825f526009602052600160405f20015490565b611c5b565b3461023b575f36600319011261023b576020600154604051908152f35b3461023b57604036600319011261023b57602060ff610d386113a6610295565b6113ae6102ab565b6001600160a01b039182165f9081526007865260408082209290931681526020919091522090565b3461023b57604036600319011261023b576113ef610295565b6024356001600160401b03811161023b57806004019060443691011161023b5760ff6114d261149a6114918461143161142a611484976119b5565b908961196c565b7f19457468657265756d205369676e6564204d6573736167653a0a3332000000005f52601c5261148b611467603c5f20926119e9565b61147b61147536838561106e565b85611ebc565b909a919a611f14565b369161106e565b90611ebc565b90929192611f14565b6001600160a01b03165f9081527fec8156718a8372b1db44bb411437d0870f3e3790d4a08526d024ce1b0b668f6b6020526040902090565b5416156115dd57506040516114e8602082611032565b5f808252546001600160a01b0383164260a01b17600160e11b17611514825f52600460205260405f2090565b556001600160a01b0383165f8181526005602052604090208054680100000000000000010190559182156115d85760018201919360015b1561157e575b5f85855f7fddf252ad1be2c89b69c2b068fc378daa952ba7f163c4a11628f55a4df523b3ef8180a461154b565b936001019382850361155157825f55803b61159557005b5f545f198101919060015b156115c4575b5f6115b961075086600187019686611d58565b156115a0575b6118d0565b8083106115a657925050505f540361023b57005b611b17565b63ee4abeb760e01b5f9081526001600160a01b0391909116600452602490fd5b6040513d5f823e3d90fd5b90600182811c92168015611636575b602083101461162257565b634e487b7160e01b5f52602260045260245ffd5b91607f1691611617565b919061164b82611b60565b6001600160a01b039384169381168490036117bd575f83815260066020526040902080546116886001600160a01b03871633908114908314171590565b61178f575b611786575b506001600160a01b0384165f90815260056020526040902080545f190190556001600160a01b0382165f908152600560205260409020805460010190556001600160a01b0382164260a01b17600160e11b176116f6845f52600460205260405f2090565b55600160e11b811615611741575b506001600160a01b03169182907fddf252ad1be2c89b69c2b068fc378daa952ba7f163c4a11628f55a4df523b3ef5f80a41561173c57565b611b33565b60018301611757815f52600460205260405f2090565b5415611764575b50611704565b5f54811461175e5761177e905f52600460205260405f2090565b555f8061175e565b5f90555f611692565b6117b36107506108833361086e8a60018060a01b03165f52600760205260405f2090565b1561168d57611b08565b611b25565b604051906117d1602083611032565b5f8252565b601f81116117e2575050565b600a5f5260205f20906020601f840160051c8301931061181c575b601f0160051c01905b818110611811575050565b5f8155600101611806565b90915081906117fd565b6040519180835260051b906020828401016040525b8182801561186157601f1990810193611858919084010135611913565b9084015261183b565b5050505090565b6001600160a01b0316801561188f575f5260056020526001600160401b0360405f20541690565b6323d3ad8160e21b5f5260045ffd5b9291906118ac828286611640565b803b6118b9575b50505050565b6118c293611df7565b156118d0575f8080806118b3565b6368d2bf6b60e11b5f5260045ffd5b60405190608082018281106001600160401b038211176109d4576040525f6060838281528260208201528260408201520152565b9061191c6118df565b9160018110156119295750565b5f5481106119345750565b9091505b805f52600460205260405f2054611951575f1901611938565b61039190611e1f565b805191908290602001825e015f815290565b919060346119af918360405194859260208401976bffffffffffffffffffffffff199060601b1688528484013781015f838201520301601f198101835282611032565b51902090565b803590601e198136030182121561023b5701908135916001600160401b03831161023b57602001823603811361023b579190565b602081013590601e198136030182121561023b5701908135916001600160401b03831161023b57602001823603811361023b579190565b335f9081527fec8156718a8372b1db44bb411437d0870f3e3790d4a08526d024ce1b0b668f6b602052604090205460ff1615611a5857565b63e2517d3f60e01b5f52336004525f60245260445ffd5b5f81815260096020908152604080832033845290915290205460ff1615611a935750565b63e2517d3f60e01b5f523360045260245260445ffd5b905f918060011115611ab85750565b5f548110611ac35750565b9091505b805f52600460205260405f205480611afc57508015611ae8575f1901611ac7565b634e487b7160e01b5f52601160045260245ffd5b600160e01b1615919050565b632ce44b5f60e11b5f5260045ffd5b622e076360e81b5f5260045ffd5b62a1148160e81b5f5260045ffd5b633a954ecd60e21b5f5260045ffd5b636f96cda160e11b5f5260045ffd5b631960ccad60e11b5f5260045ffd5b80600111611b4257611b7a815f52600460205260405f2090565b54908115611b915750600160e01b8116611b425790565b90505f54811015611b42575b5f19015f81815260046020526040902054908115611bc45750600160e01b8116611b425790565b9050611b9d565b5f8181526009602090815260408083206001600160a01b038616845290915290205460ff16611c55575f8181526009602090815260408083206001600160a01b03861684529091529020805460ff1916600117905533916001600160a01b0316907f2f8788117e7eff1d82e926ec794901d17c78024a50270940304540a733656f0d5f80a4600190565b50505f90565b5f8181526009602090815260408083206001600160a01b038616845290915290205460ff1615611c55575f8181526009602090815260408083206001600160a01b03861684529091529020805460ff1916905533916001600160a01b0316907ff6391f5c32d9c69d2a47ea670b442974b53935d1edc7fd64eb21e047a839171b5f80a4600190565b9081602091031261023b575161039181610229565b6001600160a01b0391821681529116602082015260408101919091526080606082018190526103919291019061035c565b3d15611d53573d90611d3a82611053565b91611d486040519384611032565b82523d5f602084013e565b606090565b91611d7f926020925f604051809681958294630a85bd0160e11b8452843360048601611cf8565b03926001600160a01b03165af15f9181611dc6575b50611db057611da1611d29565b8051156115bf57805190602001fd5b6001600160e01b031916630a85bd0160e11b1490565b611de991925060203d602011611df0575b611de18183611032565b810190611ce3565b905f611d94565b503d611dd7565b906020925f611d7f959360405196879586948593630a85bd0160e11b85523360048601611cf8565b611e276118df565b505f52600460205260405f2054611e3c6118df565b6001600160a01b038216815260a082901c6001600160401b03166020820152600160e01b82161515604082015260e89190911c606082015290565b9060405160a08101604052600a60808201935f8552935b5f190193603082820601855304928315611eaa57600a90611e8e565b809350608091030191601f1901918252565b8151919060418303611eec57611ee59250602082015190606060408401519301515f1a90611f90565b9192909190565b50505f9160029190565b60041115611f0057565b634e487b7160e01b5f52602160045260245ffd5b611f1d81611ef6565b80611f26575050565b611f2f81611ef6565b60018103611f465763f645eedf60e01b5f5260045ffd5b611f4f81611ef6565b60028103611f6a575063fce698f760e01b5f5260045260245ffd5b80611f76600392611ef6565b14611f7e5750565b6335e2f38360e21b5f5260045260245ffd5b91907f7fffffffffffffffffffffffffffffff5d576e7357a4501ddfe92f46681b20a08411612007579160209360809260ff5f9560405194855216868401526040830152606082015282805260015afa15610357575f516001600160a01b03811615611ffd57905f905f90565b505f906001905f90565b5050505f916003919056fea2646970667358221220358d8d9c49bcdeb5a83389ceebbcf00abf5aa5358de7fe56cecd847e877455c664736f6c634300081a0033ec8156718a8372b1db44bb411437d0870f3e3790d4a08526d024ce1b0b668f6b",
  "linkReferences": {},
  "deployedLinkReferences": {}
}