{
  "abi": [
    {
      "type": "constructor",
      "inputs": [],
      "stateMutability": "nonpayable"
    },
    {
      "type": "function",
      "name": "DEFAULT_ADMIN_ROLE",
      "inputs": [],
      "outputs": [
        {
          "name": "",
          "type": "bytes32",
          "internalType": "bytes32"
        }
      ],
      "stateMutability": "view"
    },
    {
      "type": "function",
      "name": "dataHash",
      "inputs": [
        {
          "name": "player",
          "type": "address",
          "internalType": "address"
        },
        {
          "name": "salt",
          "type": "bytes",
          "internalType": "bytes"
        }
      ],
      "outputs": [
        {
          "name": "",
          "type": "bytes32",
          "internalType": "bytes32"
        }
      ],
      "stateMutability": "pure"
    },
    {
      "type": "function",
      "name": "getPlayer",
      "inputs": [
        {
          "name": "player",
          "type": "address",
          "internalType": "address"
        },
        {
          "name": "mixpanelEvents",
          "type": "bytes32[]",
          "internalType": "bytes32[]"
        }
      ],
      "outputs": [
        {
          "name": "_points",
          "type": "uint256",
          "internalType": "uint256"
        },
        {
          "name": "mixpanelEventCounters",
          "type": "uint256[]",
          "internalType": "uint256[]"
        }
      ],
      "stateMutability": "view"
    },
    {
      "type": "function",
      "name": "getRoleAdmin",
      "inputs": [
        {
          "name": "role",
          "type": "bytes32",
          "internalType": "bytes32"
        }
      ],
      "outputs": [
        {
          "name": "",
          "type": "bytes32",
          "internalType": "bytes32"
        }
      ],
      "stateMutability": "view"
    },
    {
      "type": "function",
      "name": "grantRole",
      "inputs": [
        {
          "name": "role",
          "type": "bytes32",
          "internalType": "bytes32"
        },
        {
          "name": "account",
          "type": "address",
          "internalType": "address"
        }
      ],
      "outputs": [],
      "stateMutability": "nonpayable"
    },
    {
      "type": "function",
      "name": "hasRole",
      "inputs": [
        {
          "name": "role",
          "type": "bytes32",
          "internalType": "bytes32"
        },
        {
          "name": "account",
          "type": "address",
          "internalType": "address"
        }
      ],
      "outputs": [
        {
          "name": "",
          "type": "bool",
          "internalType": "bool"
        }
      ],
      "stateMutability": "view"
    },
    {
      "type": "function",
      "name": "incrementEventCounter",
      "inputs": [
        {
          "name": "player",
          "type": "address",
          "internalType": "address"
        },
        {
          "name": "mixpanelEvent",
          "type": "bytes32",
          "internalType": "bytes32"
        },
        {
          "name": "sigData",
          "type": "bytes[2]",
          "internalType": "bytes[2]"
        }
      ],
      "outputs": [],
      "stateMutability": "nonpayable"
    },
    {
      "type": "function",
      "name": "playerExists",
      "inputs": [
        {
          "name": "player",
          "type": "address",
          "internalType": "address"
        }
      ],
      "outputs": [
        {
          "name": "",
          "type": "bool",
          "internalType": "bool"
        }
      ],
      "stateMutability": "view"
    },
    {
      "type": "function",
      "name": "renounceRole",
      "inputs": [
        {
          "name": "role",
          "type": "bytes32",
          "internalType": "bytes32"
        },
        {
          "name": "callerConfirmation",
          "type": "address",
          "internalType": "address"
        }
      ],
      "outputs": [],
      "stateMutability": "nonpayable"
    },
    {
      "type": "function",
      "name": "revokeRole",
      "inputs": [
        {
          "name": "role",
          "type": "bytes32",
          "internalType": "bytes32"
        },
        {
          "name": "account",
          "type": "address",
          "internalType": "address"
        }
      ],
      "outputs": [],
      "stateMutability": "nonpayable"
    },
    {
      "type": "function",
      "name": "supportsInterface",
      "inputs": [
        {
          "name": "interfaceId",
          "type": "bytes4",
          "internalType": "bytes4"
        }
      ],
      "outputs": [
        {
          "name": "",
          "type": "bool",
          "internalType": "bool"
        }
      ],
      "stateMutability": "view"
    },
    {
      "type": "function",
      "name": "updateEventCounter",
      "inputs": [
        {
          "name": "player",
          "type": "address",
          "internalType": "address"
        },
        {
          "name": "mixpanelEvent",
          "type": "bytes32",
          "internalType": "bytes32"
        },
        {
          "name": "newCounter",
          "type": "uint256",
          "internalType": "uint256"
        },
        {
          "name": "sigData",
          "type": "bytes[2]",
          "internalType": "bytes[2]"
        }
      ],
      "outputs": [],
      "stateMutability": "nonpayable"
    },
    {
      "type": "function",
      "name": "updatePoints",
      "inputs": [
        {
          "name": "player",
          "type": "address",
          "internalType": "address"
        },
        {
          "name": "_points",
          "type": "uint256",
          "internalType": "uint256"
        },
        {
          "name": "sigData",
          "type": "bytes[2]",
          "internalType": "bytes[2]"
        }
      ],
      "outputs": [],
      "stateMutability": "nonpayable"
    },
    {
      "type": "event",
      "name": "RoleAdminChanged",
      "inputs": [
        {
          "name": "role",
          "type": "bytes32",
          "indexed": true,
          "internalType": "bytes32"
        },
        {
          "name": "previousAdminRole",
          "type": "bytes32",
          "indexed": true,
          "internalType": "bytes32"
        },
        {
          "name": "newAdminRole",
          "type": "bytes32",
          "indexed": true,
          "internalType": "bytes32"
        }
      ],
      "anonymous": false
    },
    {
      "type": "event",
      "name": "RoleGranted",
      "inputs": [
        {
          "name": "role",
          "type": "bytes32",
          "indexed": true,
          "internalType": "bytes32"
        },
        {
          "name": "account",
          "type": "address",
          "indexed": true,
          "internalType": "address"
        },
        {
          "name": "sender",
          "type": "address",
          "indexed": true,
          "internalType": "address"
        }
      ],
      "anonymous": false
    },
    {
      "type": "event",
      "name": "RoleRevoked",
      "inputs": [
        {
          "name": "role",
          "type": "bytes32",
          "indexed": true,
          "internalType": "bytes32"
        },
        {
          "name": "account",
          "type": "address",
          "indexed": true,
          "internalType": "address"
        },
        {
          "name": "sender",
          "type": "address",
          "indexed": true,
          "internalType": "address"
        }
      ],
      "anonymous": false
    },
    {
      "type": "error",
      "name": "AccessControlBadConfirmation",
      "inputs": []
    },
    {
      "type": "error",
      "name": "AccessControlUnauthorizedAccount",
      "inputs": [
        {
          "name": "account",
          "type": "address",
          "internalType": "address"
        },
        {
          "name": "neededRole",
          "type": "bytes32",
          "internalType": "bytes32"
        }
      ]
    },
    {
      "type": "error",
      "name": "ECDSAInvalidSignature",
      "inputs": []
    },
    {
      "type": "error",
      "name": "ECDSAInvalidSignatureLength",
      "inputs": [
        {
          "name": "length",
          "type": "uint256",
          "internalType": "uint256"
        }
      ]
    },
    {
      "type": "error",
      "name": "ECDSAInvalidSignatureS",
      "inputs": [
        {
          "name": "s",
          "type": "bytes32",
          "internalType": "bytes32"
        }
      ]
    },
    {
      "type": "error",
      "name": "InvalidAdminSignature",
      "inputs": [
        {
          "name": "recovered",
          "type": "address",
          "internalType": "address"
        }
      ]
    },
    {
      "type": "error",
      "name": "NotAdmin",
      "inputs": []
    },
    {
      "type": "error",
      "name": "NotSelfOrAdmin",
      "inputs": []
    }
  ],
  "bytecode": {
    "object": "0x6080604052348015600f57600080fd5b506019600033601e565b5060c7565b6000828152602081815260408083206001600160a01b038516845290915281205460ff1660bd576000838152602081815260408083206001600160a01b03861684529091529020805460ff1916600117905560763390565b6001600160a01b0316826001600160a01b0316847f2f8788117e7eff1d82e926ec794901d17c78024a50270940304540a733656f0d60405160405180910390a450600160c1565b5060005b92915050565b610d83806100d66000396000f3fe608060405234801561001057600080fd5b50600436106100cf5760003560e01c806391d148541161008c578063d547741f11610066578063d547741f146101c2578063d7302cf9146101d5578063da7471a7146101e8578063e7886cfb1461020957600080fd5b806391d148541461017b578063a217fddf1461018e578063bbe523001461019657600080fd5b8063013be699146100d457806301ffc9a7146100e9578063127b9f5a14610111578063248a9ca3146101245780632f2ff15d1461015557806336568abe14610168575b600080fd5b6100e76100e23660046109fd565b61021c565b005b6100fc6100f7366004610a54565b6102cf565b60405190151581526020015b60405180910390f35b6100e761011f366004610a85565b610306565b610147610132366004610ae6565b60009081526020819052604090206001015490565b604051908152602001610108565b6100e7610163366004610aff565b610376565b6100e7610176366004610aff565b6103a1565b6100fc610189366004610aff565b6103d9565b610147600081565b6100fc6101a4366004610b2b565b6001600160a01b031660009081526001602052604090205460ff1690565b6100e76101d0366004610aff565b610402565b6101476101e3366004610b46565b610427565b6101fb6101f6366004610bcb565b61045d565b604051610108929190610c42565b6100e76102173660046109fd565b610537565b6102246105a8565b610287610275610242858460005b6020028101906101e39190610ca7565b7f19457468657265756d205369676e6564204d6573736167653a0a3332000000006000908152601c91909152603c902090565b6102826020840184610ca7565b6105d2565b6001600160a01b0383166000908152600260205260408120839055829084907f42d2ad11ff9659a0531bcc412ef69ac84d0bd266a422b949472de8092c24fa449080a3505050565b60006001600160e01b03198216637965db0b60e01b148061030057506301ffc9a760e01b6001600160e01b03198316145b92915050565b61030e6105a8565b61032061027561024286846000610232565b6001600160a01b038416600090815260036020908152604080832086845290915281208390558290849086907f716677208892641c4024209a120da890dd40ee222d2dc6c4f17af44ab4dbaa809080a450505050565b6000828152602081905260409020600101546103918161068a565b61039b8383610697565b50505050565b6001600160a01b03811633146103ca5760405163334bd91960e11b815260040160405180910390fd5b6103d48282610729565b505050565b6000918252602082815260408084206001600160a01b0393909316845291905290205460ff1690565b60008281526020819052604090206001015461041d8161068a565b61039b8383610729565b600083838360405160200161043e93929190610cf5565b6040516020818303038152906040528051906020012090509392505050565b6001600160a01b03831660009081526002602052604090205460608267ffffffffffffffff81111561049157610491610d21565b6040519080825280602002602001820160405280156104ba578160200160208202803683370190505b50905060005b8381101561052e576001600160a01b0386166000908152600360205260408120908686848181106104f3576104f3610c91565b9050602002013581526020019081526020016000205482828151811061051b5761051b610c91565b60209081029190910101526001016104c0565b50935093915050565b61053f6105a8565b61055161027561024285846000610232565b6001600160a01b0383166000908152600360209081526040808320858452909152812080546001019055829084907f89a19956bae505a698c5ddf53c1616b501ac75fcff661b77436ac917a15e3f929080a3505050565b6105b36000336103d9565b6105d057604051637bfa4b9f60e01b815260040160405180910390fd5b565b60006106148484848080601f01602080910402602001604051908101604052809392919081815260200183838082843760009201919091525061079492505050565b905061065d6000801b6101898686868080601f01602080910402602001604051908101604052809392919081815260200183838082843760009201919091525061079492505050565b61039b5760405163ee4abeb760e01b81526001600160a01b03821660048201526024015b60405180910390fd5b61069481336107be565b50565b60006106a383836103d9565b610721576000838152602081815260408083206001600160a01b03861684529091529020805460ff191660011790556106d93390565b6001600160a01b0316826001600160a01b0316847f2f8788117e7eff1d82e926ec794901d17c78024a50270940304540a733656f0d60405160405180910390a4506001610300565b506000610300565b600061073583836103d9565b15610721576000838152602081815260408083206001600160a01b0386168085529252808320805460ff1916905551339286917ff6391f5c32d9c69d2a47ea670b442974b53935d1edc7fd64eb21e047a839171b9190a4506001610300565b6000806000806107a486866107fb565b9250925092506107b48282610848565b5090949350505050565b6107c882826103d9565b6107f75760405163e2517d3f60e01b81526001600160a01b038216600482015260248101839052604401610681565b5050565b600080600083516041036108355760208401516040850151606086015160001a61082788828585610901565b955095509550505050610841565b50508151600091506002905b9250925092565b600082600381111561085c5761085c610d37565b03610865575050565b600182600381111561087957610879610d37565b036108975760405163f645eedf60e01b815260040160405180910390fd5b60028260038111156108ab576108ab610d37565b036108cc5760405163fce698f760e01b815260048101829052602401610681565b60038260038111156108e0576108e0610d37565b036107f7576040516335e2f38360e21b815260048101829052602401610681565b600080807f7fffffffffffffffffffffffffffffff5d576e7357a4501ddfe92f46681b20a084111561093c57506000915060039050826109c6565b604080516000808252602082018084528a905260ff891692820192909252606081018790526080810186905260019060a0016020604051602081039080840390855afa158015610990573d6000803e3d6000fd5b5050604051601f1901519150506001600160a01b0381166109bc575060009250600191508290506109c6565b9250600091508190505b9450945094915050565b80356001600160a01b03811681146109e757600080fd5b919050565b806040810183101561030057600080fd5b600080600060608486031215610a1257600080fd5b610a1b846109d0565b925060208401359150604084013567ffffffffffffffff811115610a3e57600080fd5b610a4a868287016109ec565b9150509250925092565b600060208284031215610a6657600080fd5b81356001600160e01b031981168114610a7e57600080fd5b9392505050565b60008060008060808587031215610a9b57600080fd5b610aa4856109d0565b93506020850135925060408501359150606085013567ffffffffffffffff811115610ace57600080fd5b610ada878288016109ec565b91505092959194509250565b600060208284031215610af857600080fd5b5035919050565b60008060408385031215610b1257600080fd5b82359150610b22602084016109d0565b90509250929050565b600060208284031215610b3d57600080fd5b610a7e826109d0565b600080600060408486031215610b5b57600080fd5b610b64846109d0565b9250602084013567ffffffffffffffff811115610b8057600080fd5b8401601f81018613610b9157600080fd5b803567ffffffffffffffff811115610ba857600080fd5b866020828401011115610bba57600080fd5b939660209190910195509293505050565b600080600060408486031215610be057600080fd5b610be9846109d0565b9250602084013567ffffffffffffffff811115610c0557600080fd5b8401601f81018613610c1657600080fd5b803567ffffffffffffffff811115610c2d57600080fd5b8660208260051b8401011115610bba57600080fd5b6000604082018483526040602084015280845180835260608501915060208601925060005b81811015610c85578351835260209384019390920191600101610c67565b50909695505050505050565b634e487b7160e01b600052603260045260246000fd5b6000808335601e19843603018112610cbe57600080fd5b83018035915067ffffffffffffffff821115610cd957600080fd5b602001915036819003821315610cee57600080fd5b9250929050565b6bffffffffffffffffffffffff198460601b168152818360148301376000910160140190815292915050565b634e487b7160e01b600052604160045260246000fd5b634e487b7160e01b600052602160045260246000fdfea26469706673582212204a4875d1e2568b3cea104e4aaaf3b877e9b6c4a36d2949e191f87741207ee6b864736f6c634300081a0033",
    "linkReferences": {}
  },
  "methodIdentifiers": {
    "DEFAULT_ADMIN_ROLE()": "a217fddf",
    "dataHash(address,bytes)": "d7302cf9",
    "getPlayer(address,bytes32[])": "da7471a7",
    "getRoleAdmin(bytes32)": "248a9ca3",
    "grantRole(bytes32,address)": "2f2ff15d",
    "hasRole(bytes32,address)": "91d14854",
    "incrementEventCounter(address,bytes32,bytes[2])": "e7886cfb",
    "playerExists(address)": "bbe52300",
    "renounceRole(bytes32,address)": "36568abe",
    "revokeRole(bytes32,address)": "d547741f",
    "supportsInterface(bytes4)": "01ffc9a7",
    "updateEventCounter(address,bytes32,uint256,bytes[2])": "127b9f5a",
    "updatePoints(address,uint256,bytes[2])": "013be699"
  },
  "id": 10
}