{
  "abi": [
    {
      "type": "constructor",
      "inputs": [],
      "stateMutability": "nonpayable"
    },
    {
      "type": "function",
      "name": "DEFAULT_ADMIN_ROLE",
      "inputs": [],
      "outputs": [
        {
          "name": "",
          "type": "bytes32",
          "internalType": "bytes32"
        }
      ],
      "stateMutability": "view"
    },
    {
      "type": "function",
      "name": "dataHash",
      "inputs": [
        {
          "name": "player",
          "type": "address",
          "internalType": "address"
        },
        {
          "name": "salt",
          "type": "bytes",
          "internalType": "bytes"
        }
      ],
      "outputs": [
        {
          "name": "",
          "type": "bytes32",
          "internalType": "bytes32"
        }
      ],
      "stateMutability": "pure"
    },
    {
      "type": "function",
      "name": "getPlayer",
      "inputs": [
        {
          "name": "player",
          "type": "address",
          "internalType": "address"
        },
        {
          "name": "mixpanelEvents",
          "type": "bytes32[]",
          "internalType": "bytes32[]"
        }
      ],
      "outputs": [
        {
          "name": "_points",
          "type": "uint256",
          "internalType": "uint256"
        },
        {
          "name": "mixpanelEventCounters",
          "type": "uint256[]",
          "internalType": "uint256[]"
        }
      ],
      "stateMutability": "view"
    },
    {
      "type": "function",
      "name": "getRoleAdmin",
      "inputs": [
        {
          "name": "role",
          "type": "bytes32",
          "internalType": "bytes32"
        }
      ],
      "outputs": [
        {
          "name": "",
          "type": "bytes32",
          "internalType": "bytes32"
        }
      ],
      "stateMutability": "view"
    },
    {
      "type": "function",
      "name": "grantRole",
      "inputs": [
        {
          "name": "role",
          "type": "bytes32",
          "internalType": "bytes32"
        },
        {
          "name": "account",
          "type": "address",
          "internalType": "address"
        }
      ],
      "outputs": [],
      "stateMutability": "nonpayable"
    },
    {
      "type": "function",
      "name": "hasRole",
      "inputs": [
        {
          "name": "role",
          "type": "bytes32",
          "internalType": "bytes32"
        },
        {
          "name": "account",
          "type": "address",
          "internalType": "address"
        }
      ],
      "outputs": [
        {
          "name": "",
          "type": "bool",
          "internalType": "bool"
        }
      ],
      "stateMutability": "view"
    },
    {
      "type": "function",
      "name": "incrementEventCounter",
      "inputs": [
        {
          "name": "player",
          "type": "address",
          "internalType": "address"
        },
        {
          "name": "mixpanelEvent",
          "type": "bytes32",
          "internalType": "bytes32"
        },
        {
          "name": "sigData",
          "type": "bytes[2]",
          "internalType": "bytes[2]"
        }
      ],
      "outputs": [],
      "stateMutability": "nonpayable"
    },
    {
      "type": "function",
      "name": "playerExists",
      "inputs": [
        {
          "name": "player",
          "type": "address",
          "internalType": "address"
        }
      ],
      "outputs": [
        {
          "name": "",
          "type": "bool",
          "internalType": "bool"
        }
      ],
      "stateMutability": "view"
    },
    {
      "type": "function",
      "name": "renounceRole",
      "inputs": [
        {
          "name": "role",
          "type": "bytes32",
          "internalType": "bytes32"
        },
        {
          "name": "callerConfirmation",
          "type": "address",
          "internalType": "address"
        }
      ],
      "outputs": [],
      "stateMutability": "nonpayable"
    },
    {
      "type": "function",
      "name": "revokeRole",
      "inputs": [
        {
          "name": "role",
          "type": "bytes32",
          "internalType": "bytes32"
        },
        {
          "name": "account",
          "type": "address",
          "internalType": "address"
        }
      ],
      "outputs": [],
      "stateMutability": "nonpayable"
    },
    {
      "type": "function",
      "name": "supportsInterface",
      "inputs": [
        {
          "name": "interfaceId",
          "type": "bytes4",
          "internalType": "bytes4"
        }
      ],
      "outputs": [
        {
          "name": "",
          "type": "bool",
          "internalType": "bool"
        }
      ],
      "stateMutability": "view"
    },
    {
      "type": "function",
      "name": "updateEventCounter",
      "inputs": [
        {
          "name": "player",
          "type": "address",
          "internalType": "address"
        },
        {
          "name": "mixpanelEvent",
          "type": "bytes32",
          "internalType": "bytes32"
        },
        {
          "name": "newCounter",
          "type": "uint256",
          "internalType": "uint256"
        },
        {
          "name": "sigData",
          "type": "bytes[2]",
          "internalType": "bytes[2]"
        }
      ],
      "outputs": [],
      "stateMutability": "nonpayable"
    },
    {
      "type": "function",
      "name": "updatePoints",
      "inputs": [
        {
          "name": "player",
          "type": "address",
          "internalType": "address"
        },
        {
          "name": "_points",
          "type": "uint256",
          "internalType": "uint256"
        },
        {
          "name": "sigData",
          "type": "bytes[2]",
          "internalType": "bytes[2]"
        }
      ],
      "outputs": [],
      "stateMutability": "nonpayable"
    },
    {
      "type": "event",
      "name": "RoleAdminChanged",
      "inputs": [
        {
          "name": "role",
          "type": "bytes32",
          "indexed": true,
          "internalType": "bytes32"
        },
        {
          "name": "previousAdminRole",
          "type": "bytes32",
          "indexed": true,
          "internalType": "bytes32"
        },
        {
          "name": "newAdminRole",
          "type": "bytes32",
          "indexed": true,
          "internalType": "bytes32"
        }
      ],
      "anonymous": false
    },
    {
      "type": "event",
      "name": "RoleGranted",
      "inputs": [
        {
          "name": "role",
          "type": "bytes32",
          "indexed": true,
          "internalType": "bytes32"
        },
        {
          "name": "account",
          "type": "address",
          "indexed": true,
          "internalType": "address"
        },
        {
          "name": "sender",
          "type": "address",
          "indexed": true,
          "internalType": "address"
        }
      ],
      "anonymous": false
    },
    {
      "type": "event",
      "name": "RoleRevoked",
      "inputs": [
        {
          "name": "role",
          "type": "bytes32",
          "indexed": true,
          "internalType": "bytes32"
        },
        {
          "name": "account",
          "type": "address",
          "indexed": true,
          "internalType": "address"
        },
        {
          "name": "sender",
          "type": "address",
          "indexed": true,
          "internalType": "address"
        }
      ],
      "anonymous": false
    },
    {
      "type": "error",
      "name": "AccessControlBadConfirmation",
      "inputs": []
    },
    {
      "type": "error",
      "name": "AccessControlUnauthorizedAccount",
      "inputs": [
        {
          "name": "account",
          "type": "address",
          "internalType": "address"
        },
        {
          "name": "neededRole",
          "type": "bytes32",
          "internalType": "bytes32"
        }
      ]
    },
    {
      "type": "error",
      "name": "ECDSAInvalidSignature",
      "inputs": []
    },
    {
      "type": "error",
      "name": "ECDSAInvalidSignatureLength",
      "inputs": [
        {
          "name": "length",
          "type": "uint256",
          "internalType": "uint256"
        }
      ]
    },
    {
      "type": "error",
      "name": "ECDSAInvalidSignatureS",
      "inputs": [
        {
          "name": "s",
          "type": "bytes32",
          "internalType": "bytes32"
        }
      ]
    },
    {
      "type": "error",
      "name": "InvalidAdminSignature",
      "inputs": [
        {
          "name": "recovered",
          "type": "address",
          "internalType": "address"
        }
      ]
    },
    {
      "type": "error",
      "name": "NotAdmin",
      "inputs": []
    },
    {
      "type": "error",
      "name": "NotSelfOrAdmin",
      "inputs": []
    }
  ],
  "bytecode": {
    "object": "0x6080604052348015600f57600080fd5b506019600033601e565b5060c7565b6000828152602081815260408083206001600160a01b038516845290915281205460ff1660bd576000838152602081815260408083206001600160a01b03861684529091529020805460ff1916600117905560763390565b6001600160a01b0316826001600160a01b0316847f2f8788117e7eff1d82e926ec794901d17c78024a50270940304540a733656f0d60405160405180910390a450600160c1565b5060005b92915050565b610d41806100d66000396000f3fe608060405234801561001057600080fd5b50600436106100cf5760003560e01c806391d148541161008c578063d547741f11610066578063d547741f146101c2578063d7302cf9146101d5578063da7471a7146101e8578063e7886cfb1461020957600080fd5b806391d148541461017b578063a217fddf1461018e578063bbe523001461019657600080fd5b8063013be699146100d457806301ffc9a7146100e9578063127b9f5a14610111578063248a9ca3146101245780632f2ff15d1461015557806336568abe14610168575b600080fd5b6100e76100e23660046109bb565b61021c565b005b6100fc6100f7366004610a12565b6102c7565b60405190151581526020015b60405180910390f35b6100e761011f366004610a43565b6102fe565b610147610132366004610aa4565b60009081526020819052604090206001015490565b604051908152602001610108565b6100e7610163366004610abd565b610366565b6100e7610176366004610abd565b610391565b6100fc610189366004610abd565b6103c9565b610147600081565b6100fc6101a4366004610ae9565b6001600160a01b031660009081526001602052604090205460ff1690565b6100e76101d0366004610abd565b6103f2565b6101476101e3366004610b04565b610417565b6101fb6101f6366004610b89565b61044d565b604051610108929190610c00565b6100e76102173660046109bb565b610527565b61027f61026d61023a858460005b6020028101906101e39190610c65565b7f19457468657265756d205369676e6564204d6573736167653a0a3332000000006000908152601c91909152603c902090565b61027a6020840184610c65565b610590565b6001600160a01b0383166000908152600260205260408120839055829084907f42d2ad11ff9659a0531bcc412ef69ac84d0bd266a422b949472de8092c24fa449080a3505050565b60006001600160e01b03198216637965db0b60e01b14806102f857506301ffc9a760e01b6001600160e01b03198316145b92915050565b61031061026d61023a8684600061022a565b6001600160a01b038416600090815260036020908152604080832086845290915281208390558290849086907f716677208892641c4024209a120da890dd40ee222d2dc6c4f17af44ab4dbaa809080a450505050565b60008281526020819052604090206001015461038181610648565b61038b8383610655565b50505050565b6001600160a01b03811633146103ba5760405163334bd91960e11b815260040160405180910390fd5b6103c482826106e7565b505050565b6000918252602082815260408084206001600160a01b0393909316845291905290205460ff1690565b60008281526020819052604090206001015461040d81610648565b61038b83836106e7565b600083838360405160200161042e93929190610cb3565b6040516020818303038152906040528051906020012090509392505050565b6001600160a01b03831660009081526002602052604090205460608267ffffffffffffffff81111561048157610481610cdf565b6040519080825280602002602001820160405280156104aa578160200160208202803683370190505b50905060005b8381101561051e576001600160a01b0386166000908152600360205260408120908686848181106104e3576104e3610c4f565b9050602002013581526020019081526020016000205482828151811061050b5761050b610c4f565b60209081029190910101526001016104b0565b50935093915050565b61053961026d61023a8584600061022a565b6001600160a01b0383166000908152600360209081526040808320858452909152812080546001019055829084907f89a19956bae505a698c5ddf53c1616b501ac75fcff661b77436ac917a15e3f929080a3505050565b60006105d28484848080601f01602080910402602001604051908101604052809392919081815260200183838082843760009201919091525061075292505050565b905061061b6000801b6101898686868080601f01602080910402602001604051908101604052809392919081815260200183838082843760009201919091525061075292505050565b61038b5760405163ee4abeb760e01b81526001600160a01b03821660048201526024015b60405180910390fd5b610652813361077c565b50565b600061066183836103c9565b6106df576000838152602081815260408083206001600160a01b03861684529091529020805460ff191660011790556106973390565b6001600160a01b0316826001600160a01b0316847f2f8788117e7eff1d82e926ec794901d17c78024a50270940304540a733656f0d60405160405180910390a45060016102f8565b5060006102f8565b60006106f383836103c9565b156106df576000838152602081815260408083206001600160a01b0386168085529252808320805460ff1916905551339286917ff6391f5c32d9c69d2a47ea670b442974b53935d1edc7fd64eb21e047a839171b9190a45060016102f8565b60008060008061076286866107b9565b9250925092506107728282610806565b5090949350505050565b61078682826103c9565b6107b55760405163e2517d3f60e01b81526001600160a01b03821660048201526024810183905260440161063f565b5050565b600080600083516041036107f35760208401516040850151606086015160001a6107e5888285856108bf565b9550955095505050506107ff565b50508151600091506002905b9250925092565b600082600381111561081a5761081a610cf5565b03610823575050565b600182600381111561083757610837610cf5565b036108555760405163f645eedf60e01b815260040160405180910390fd5b600282600381111561086957610869610cf5565b0361088a5760405163fce698f760e01b81526004810182905260240161063f565b600382600381111561089e5761089e610cf5565b036107b5576040516335e2f38360e21b81526004810182905260240161063f565b600080807f7fffffffffffffffffffffffffffffff5d576e7357a4501ddfe92f46681b20a08411156108fa5750600091506003905082610984565b604080516000808252602082018084528a905260ff891692820192909252606081018790526080810186905260019060a0016020604051602081039080840390855afa15801561094e573d6000803e3d6000fd5b5050604051601f1901519150506001600160a01b03811661097a57506000925060019150829050610984565b9250600091508190505b9450945094915050565b80356001600160a01b03811681146109a557600080fd5b919050565b80604081018310156102f857600080fd5b6000806000606084860312156109d057600080fd5b6109d98461098e565b925060208401359150604084013567ffffffffffffffff8111156109fc57600080fd5b610a08868287016109aa565b9150509250925092565b600060208284031215610a2457600080fd5b81356001600160e01b031981168114610a3c57600080fd5b9392505050565b60008060008060808587031215610a5957600080fd5b610a628561098e565b93506020850135925060408501359150606085013567ffffffffffffffff811115610a8c57600080fd5b610a98878288016109aa565b91505092959194509250565b600060208284031215610ab657600080fd5b5035919050565b60008060408385031215610ad057600080fd5b82359150610ae06020840161098e565b90509250929050565b600060208284031215610afb57600080fd5b610a3c8261098e565b600080600060408486031215610b1957600080fd5b610b228461098e565b9250602084013567ffffffffffffffff811115610b3e57600080fd5b8401601f81018613610b4f57600080fd5b803567ffffffffffffffff811115610b6657600080fd5b866020828401011115610b7857600080fd5b939660209190910195509293505050565b600080600060408486031215610b9e57600080fd5b610ba78461098e565b9250602084013567ffffffffffffffff811115610bc357600080fd5b8401601f81018613610bd457600080fd5b803567ffffffffffffffff811115610beb57600080fd5b8660208260051b8401011115610b7857600080fd5b6000604082018483526040602084015280845180835260608501915060208601925060005b81811015610c43578351835260209384019390920191600101610c25565b50909695505050505050565b634e487b7160e01b600052603260045260246000fd5b6000808335601e19843603018112610c7c57600080fd5b83018035915067ffffffffffffffff821115610c9757600080fd5b602001915036819003821315610cac57600080fd5b9250929050565b6bffffffffffffffffffffffff198460601b168152818360148301376000910160140190815292915050565b634e487b7160e01b600052604160045260246000fd5b634e487b7160e01b600052602160045260246000fdfea26469706673582212200cb4b9b3fbf6086d8639912f8c6907da0cdb5cab97c72ee5b592995083daece464736f6c634300081a0033",
    "linkReferences": {}
  },
  "methodIdentifiers": {
    "DEFAULT_ADMIN_ROLE()": "a217fddf",
    "dataHash(address,bytes)": "d7302cf9",
    "getPlayer(address,bytes32[])": "da7471a7",
    "getRoleAdmin(bytes32)": "248a9ca3",
    "grantRole(bytes32,address)": "2f2ff15d",
    "hasRole(bytes32,address)": "91d14854",
    "incrementEventCounter(address,bytes32,bytes[2])": "e7886cfb",
    "playerExists(address)": "bbe52300",
    "renounceRole(bytes32,address)": "36568abe",
    "revokeRole(bytes32,address)": "d547741f",
    "supportsInterface(bytes4)": "01ffc9a7",
    "updateEventCounter(address,bytes32,uint256,bytes[2])": "127b9f5a",
    "updatePoints(address,uint256,bytes[2])": "013be699"
  },
  "id": 10
}