{
    "abi": [
        {
            "type": "constructor",
            "inputs": [],
            "stateMutability": "nonpayable"
        },
        {
            "type": "function",
            "name": "DEFAULT_ADMIN_ROLE",
            "inputs": [],
            "outputs": [
                {
                    "name": "",
                    "type": "bytes32",
                    "internalType": "bytes32"
                }
            ],
            "stateMutability": "view"
        },
        {
            "type": "function",
            "name": "createPlayer",
            "inputs": [
                {
                    "name": "player",
                    "type": "address",
                    "internalType": "address"
                }
            ],
            "outputs": [],
            "stateMutability": "nonpayable"
        },
        {
            "type": "function",
            "name": "getPlayer",
            "inputs": [
                {
                    "name": "player",
                    "type": "address",
                    "internalType": "address"
                },
                {
                    "name": "mixpanelEvents",
                    "type": "bytes32[]",
                    "internalType": "bytes32[]"
                }
            ],
            "outputs": [
                {
                    "name": "_points",
                    "type": "uint256",
                    "internalType": "uint256"
                },
                {
                    "name": "mixpanelEventCounters",
                    "type": "uint256[]",
                    "internalType": "uint256[]"
                }
            ],
            "stateMutability": "view"
        },
        {
            "type": "function",
            "name": "getRoleAdmin",
            "inputs": [
                {
                    "name": "role",
                    "type": "bytes32",
                    "internalType": "bytes32"
                }
            ],
            "outputs": [
                {
                    "name": "",
                    "type": "bytes32",
                    "internalType": "bytes32"
                }
            ],
            "stateMutability": "view"
        },
        {
            "type": "function",
            "name": "grantRole",
            "inputs": [
                {
                    "name": "role",
                    "type": "bytes32",
                    "internalType": "bytes32"
                },
                {
                    "name": "account",
                    "type": "address",
                    "internalType": "address"
                }
            ],
            "outputs": [],
            "stateMutability": "nonpayable"
        },
        {
            "type": "function",
            "name": "hasRole",
            "inputs": [
                {
                    "name": "role",
                    "type": "bytes32",
                    "internalType": "bytes32"
                },
                {
                    "name": "account",
                    "type": "address",
                    "internalType": "address"
                }
            ],
            "outputs": [
                {
                    "name": "",
                    "type": "bool",
                    "internalType": "bool"
                }
            ],
            "stateMutability": "view"
        },
        {
            "type": "function",
            "name": "incrementEventCounter",
            "inputs": [
                {
                    "name": "player",
                    "type": "address",
                    "internalType": "address"
                },
                {
                    "name": "mixpanelEvent",
                    "type": "bytes32",
                    "internalType": "bytes32"
                }
            ],
            "outputs": [],
            "stateMutability": "nonpayable"
        },
        {
            "type": "function",
            "name": "playerExists",
            "inputs": [
                {
                    "name": "player",
                    "type": "address",
                    "internalType": "address"
                }
            ],
            "outputs": [
                {
                    "name": "",
                    "type": "bool",
                    "internalType": "bool"
                }
            ],
            "stateMutability": "view"
        },
        {
            "type": "function",
            "name": "renounceRole",
            "inputs": [
                {
                    "name": "role",
                    "type": "bytes32",
                    "internalType": "bytes32"
                },
                {
                    "name": "callerConfirmation",
                    "type": "address",
                    "internalType": "address"
                }
            ],
            "outputs": [],
            "stateMutability": "nonpayable"
        },
        {
            "type": "function",
            "name": "revokeRole",
            "inputs": [
                {
                    "name": "role",
                    "type": "bytes32",
                    "internalType": "bytes32"
                },
                {
                    "name": "account",
                    "type": "address",
                    "internalType": "address"
                }
            ],
            "outputs": [],
            "stateMutability": "nonpayable"
        },
        {
            "type": "function",
            "name": "supportsInterface",
            "inputs": [
                {
                    "name": "interfaceId",
                    "type": "bytes4",
                    "internalType": "bytes4"
                }
            ],
            "outputs": [
                {
                    "name": "",
                    "type": "bool",
                    "internalType": "bool"
                }
            ],
            "stateMutability": "view"
        },
        {
            "type": "function",
            "name": "updateEventCounter",
            "inputs": [
                {
                    "name": "player",
                    "type": "address",
                    "internalType": "address"
                },
                {
                    "name": "mixpanelEvent",
                    "type": "bytes32",
                    "internalType": "bytes32"
                },
                {
                    "name": "newCounter",
                    "type": "uint256",
                    "internalType": "uint256"
                }
            ],
            "outputs": [],
            "stateMutability": "nonpayable"
        },
        {
            "type": "function",
            "name": "updatePoints",
            "inputs": [
                {
                    "name": "player",
                    "type": "address",
                    "internalType": "address"
                },
                {
                    "name": "_points",
                    "type": "uint256",
                    "internalType": "uint256"
                }
            ],
            "outputs": [],
            "stateMutability": "nonpayable"
        },
        {
            "type": "event",
            "name": "RoleAdminChanged",
            "inputs": [
                {
                    "name": "role",
                    "type": "bytes32",
                    "indexed": true,
                    "internalType": "bytes32"
                },
                {
                    "name": "previousAdminRole",
                    "type": "bytes32",
                    "indexed": true,
                    "internalType": "bytes32"
                },
                {
                    "name": "newAdminRole",
                    "type": "bytes32",
                    "indexed": true,
                    "internalType": "bytes32"
                }
            ],
            "anonymous": false
        },
        {
            "type": "event",
            "name": "RoleGranted",
            "inputs": [
                {
                    "name": "role",
                    "type": "bytes32",
                    "indexed": true,
                    "internalType": "bytes32"
                },
                {
                    "name": "account",
                    "type": "address",
                    "indexed": true,
                    "internalType": "address"
                },
                {
                    "name": "sender",
                    "type": "address",
                    "indexed": true,
                    "internalType": "address"
                }
            ],
            "anonymous": false
        },
        {
            "type": "event",
            "name": "RoleRevoked",
            "inputs": [
                {
                    "name": "role",
                    "type": "bytes32",
                    "indexed": true,
                    "internalType": "bytes32"
                },
                {
                    "name": "account",
                    "type": "address",
                    "indexed": true,
                    "internalType": "address"
                },
                {
                    "name": "sender",
                    "type": "address",
                    "indexed": true,
                    "internalType": "address"
                }
            ],
            "anonymous": false
        },
        {
            "type": "error",
            "name": "AccessControlBadConfirmation",
            "inputs": []
        },
        {
            "type": "error",
            "name": "AccessControlUnauthorizedAccount",
            "inputs": [
                {
                    "name": "account",
                    "type": "address",
                    "internalType": "address"
                },
                {
                    "name": "neededRole",
                    "type": "bytes32",
                    "internalType": "bytes32"
                }
            ]
        },
        {
            "type": "error",
            "name": "NotAdmin",
            "inputs": []
        },
        {
            "type": "error",
            "name": "NotSelfOrAdmin",
            "inputs": []
        },
        {
            "type": "error",
            "name": "PlayerAlreadyExists",
            "inputs": []
        }
    ],
    "bytecode": {
        "object": "0x6080604052348015600e575f80fd5b5060175f33601c565b5060c2565b5f828152602081815260408083206001600160a01b038516845290915281205460ff1660b9575f838152602081815260408083206001600160a01b03861684529091529020805460ff1916600117905560723390565b6001600160a01b0316826001600160a01b0316847f2f8788117e7eff1d82e926ec794901d17c78024a50270940304540a733656f0d60405160405180910390a450600160bc565b505f5b92915050565b610904806100cf5f395ff3fe608060405234801561000f575f80fd5b50600436106100cb575f3560e01c806391d1485411610088578063d547741f11610063578063d547741f146101ba578063da7471a7146101cd578063e7fd149e146101ee578063e8ace5d714610201575f80fd5b806391d1485414610175578063a217fddf14610188578063bbe523001461018f575f80fd5b806301ffc9a7146100cf5780630f239ad5146100f7578063248a9ca31461010c5780632af074241461013c5780632f2ff15d1461014f57806336568abe14610162575b5f80fd5b6100e26100dd3660046106dd565b610214565b60405190151581526020015b60405180910390f35b61010a610105366004610726565b61024a565b005b61012e61011a366004610756565b5f9081526020819052604090206001015490565b6040519081526020016100ee565b61010a61014a36600461076d565b6102a6565b61010a61015d366004610795565b6102f4565b61010a610170366004610795565b61031e565b6100e2610183366004610795565b610356565b61012e5f81565b6100e261019d3660046107bf565b6001600160a01b03165f9081526001602052604090205460ff1690565b61010a6101c8366004610795565b61037e565b6101e06101db3660046107d8565b6103a2565b6040516100ee929190610859565b61010a6101fc36600461076d565b610478565b61010a61020f3660046107bf565b6104d5565b5f6001600160e01b03198216637965db0b60e01b148061024457506301ffc9a760e01b6001600160e01b03198316145b92915050565b610252610535565b6001600160a01b0383165f90815260036020908152604080832085845290915281208290558190839085907f716677208892641c4024209a120da890dd40ee222d2dc6c4f17af44ab4dbaa809080a4505050565b6102ae610535565b6001600160a01b0382165f908152600260205260408120829055819083907f42d2ad11ff9659a0531bcc412ef69ac84d0bd266a422b949472de8092c24fa449080a35050565b5f8281526020819052604090206001015461030e8161055e565b610318838361056b565b50505050565b6001600160a01b03811633146103475760405163334bd91960e11b815260040160405180910390fd5b61035182826105fa565b505050565b5f918252602082815260408084206001600160a01b0393909316845291905290205460ff1690565b5f828152602081905260409020600101546103988161055e565b61031883836105fa565b6001600160a01b0383165f9081526002602052604090205460608267ffffffffffffffff8111156103d5576103d56108a6565b6040519080825280602002602001820160405280156103fe578160200160208202803683370190505b5090505f5b8381101561046f576001600160a01b0386165f90815260036020526040812090868684818110610435576104356108ba565b9050602002013581526020019081526020015f205482828151811061045c5761045c6108ba565b6020908102919091010152600101610403565b50935093915050565b610480610535565b6001600160a01b0382165f908152600360209081526040808320848452909152812080546001019055819083907f89a19956bae505a698c5ddf53c1616b501ac75fcff661b77436ac917a15e3f929080a35050565b806104df81610663565b6104e7610535565b6001600160a01b0382165f9081526001602081905260408220805460ff1916909117905582907fb4cca19a27ce42915c3cee0cee28fc5d90969ee49f09ec71659546a63b5f7bc09080a25050565b61053f5f33610356565b61055c57604051637bfa4b9f60e01b815260040160405180910390fd5b565b610568813361069c565b50565b5f6105768383610356565b6105f3575f838152602081815260408083206001600160a01b03861684529091529020805460ff191660011790556105ab3390565b6001600160a01b0316826001600160a01b0316847f2f8788117e7eff1d82e926ec794901d17c78024a50270940304540a733656f0d60405160405180910390a4506001610244565b505f610244565b5f6106058383610356565b156105f3575f838152602081815260408083206001600160a01b0386168085529252808320805460ff1916905551339286917ff6391f5c32d9c69d2a47ea670b442974b53935d1edc7fd64eb21e047a839171b9190a4506001610244565b6001600160a01b0381165f9081526001602052604090205460ff161561056857604051637722b8a160e11b815260040160405180910390fd5b6106a68282610356565b6106d95760405163e2517d3f60e01b81526001600160a01b03821660048201526024810183905260440160405180910390fd5b5050565b5f602082840312156106ed575f80fd5b81356001600160e01b031981168114610704575f80fd5b9392505050565b80356001600160a01b0381168114610721575f80fd5b919050565b5f805f60608486031215610738575f80fd5b6107418461070b565b95602085013595506040909401359392505050565b5f60208284031215610766575f80fd5b5035919050565b5f806040838503121561077e575f80fd5b6107878361070b565b946020939093013593505050565b5f80604083850312156107a6575f80fd5b823591506107b66020840161070b565b90509250929050565b5f602082840312156107cf575f80fd5b6107048261070b565b5f805f604084860312156107ea575f80fd5b6107f38461070b565b9250602084013567ffffffffffffffff81111561080e575f80fd5b8401601f8101861361081e575f80fd5b803567ffffffffffffffff811115610834575f80fd5b8660208260051b8401011115610848575f80fd5b939660209190910195509293505050565b5f60408201848352604060208401528084518083526060850191506020860192505f5b8181101561089a57835183526020938401939092019160010161087c565b50909695505050505050565b634e487b7160e01b5f52604160045260245ffd5b634e487b7160e01b5f52603260045260245ffdfea264697066735822122044753058b6e5bc40f659d32bb0e0f8817c42836075ae8d6ed0c40e011ccf295c64736f6c634300081a0033",
        "linkReferences": {}
    },
    "methodIdentifiers": {
        "DEFAULT_ADMIN_ROLE()": "a217fddf",
        "createPlayer(address)": "e8ace5d7",
        "getPlayer(address,bytes32[])": "da7471a7",
        "getRoleAdmin(bytes32)": "248a9ca3",
        "grantRole(bytes32,address)": "2f2ff15d",
        "hasRole(bytes32,address)": "91d14854",
        "incrementEventCounter(address,bytes32)": "e7fd149e",
        "playerExists(address)": "bbe52300",
        "renounceRole(bytes32,address)": "36568abe",
        "revokeRole(bytes32,address)": "d547741f",
        "supportsInterface(bytes4)": "01ffc9a7",
        "updateEventCounter(address,bytes32,uint256)": "0f239ad5",
        "updatePoints(address,uint256)": "2af07424"
    },
    "id": 9
}